:020000040800F2
:1000000000000220F14E00081D1C00081F1C000803
:10001000211C0008231C0008251C0008000000000B
:10002000000000000000000000000000271C000885
:10003000291C0008000000002B1C00082D1C0008D3
:10004000414F0008414F0008414F0008414F000850
:10005000414F0008414F0008414F0008414F000840
:10006000414F0008414F0008414F0008414F000830
:10007000414F0008414F0008414F0008414F000820
:10008000414F0008351C0008414F0008414F00084F
:10009000414F0008451C0008414F0008414F00082F
:1000A000414F0008414F0008414F0008414F0008F0
:1000B000414F0008414F0008414F0008414F0008E0
:1000C000414F0008414F0008414F0008414F0008D0
:1000D000414F0008414F0008551C0008414F0008DF
:1000E000414F0008414F0008414F0008414F0008B0
:1000F000414F0008414F0008414F0008414F0008A0
:10010000414F0008414F0008651C0008414F00089E
:10011000414F0008414F0008414F0008414F00087F
:10012000751C0008414F0008851C0008414F00085D
:10013000414F00080000000000000000414F00088F
:10014000951C0008414F0008414F0008414F00082E
:10015000414F0008414F0008414F0008414F00083F
:10016000414F0008414F0008414F0008414F00082F
:10017000414F0008414F000800000000000000004F
:08018000414F0008414F000847
:1001880010B5054C237833B9044B13B10448AFF3C9
:1001980000800123237010BD7005002000000000BE
:1001A8000C51000808B5034B1BB103490348AFF3D2
:1001B800008008BD00000000740500200C510008F4
:1001C80081F0004102E000BF83F0004330B54FEA00
:1001D80041044FEA430594EA050F08BF90EA020F6D
:1001E8001FBF54EA000C55EA020C7FEA645C7FEA00
:1001F800655C00F0E2804FEA5454D4EB5555B8BF23
:100208006D420CDD2C4480EA020281EA030382EA93
:10021800000083EA010180EA020281EA0303362D25
:1002280088BF30BD11F0004F4FEA01314FF4801CF8
:100238004CEA113102D0404261EB410113F0004F0A
:100248004FEA03334CEA133302D0524263EB4303C1
:1002580094EA050F00F0A780A4F10104D5F1200E5F
:100268000DDB02FA0EFC22FA05F2801841F10001BA
:1002780003FA0EF2801843FA05F359410EE0A5F18E
:1002880020050EF1200E012A03FA0EFC28BF4CF0BF
:10029800020C43FA05F3C01851EBE37101F0004575
:1002A80007D54FF0000EDCF1000C7EEB00006EEB82
:1002B8000101B1F5801F1BD3B1F5001F0CD349080C
:1002C8005FEA30004FEA3C0C04F101044FEA445263
:1002D80012F5800F80F09A80BCF1004F08BF5FEAEA
:1002E800500C50F1000041EB045141EA050130BDCA
:1002F8005FEA4C0C404141EB0101013C28BFB1F5DC
:10030800801FE9D291F0000F04BF01460020B1FA26
:1003180081F308BF2033A3F10B03B3F120020CDAF9
:100328000C3208DD02F1140CC2F10C0201FA0CF0D7
:1003380021FA02F10CE002F11402D8BFC2F1200C3C
:1003480001FA02F120FA0CFCDCBF41EA0C019040F2
:10035800E41AA2BF01EB0451294330BD6FEA04043B
:100368001F3C1CDA0C340EDC04F11404C4F1200226
:1003780020FA04F001FA02F340EA030021FA04F338
:1003880045EA030130BDC4F10C04C4F1200220FA8F
:1003980002F001FA04F340EA0300294630BD21FACD
:1003A80004F0294630BD94F0000F83F4801306BF93
:1003B80081F480110134013D4EE77FEA645C18BF87
:1003C8007FEA655C29D094EA050F08BF90EA020F1E
:1003D80005D054EA000C04BF1946104630BD91EA16
:1003E800030F1EBF0021002030BD5FEA545C05D119
:1003F8004000494128BF41F0004130BD14F5800458
:100408003CBF01F5801130BD01F0004545F0FE41CB
:1004180041F470014FF0000030BD7FEA645C1ABF00
:10042800194610467FEA655C1CBF0B46024650EA37
:10043800013406BF52EA033591EA030F41F4002163
:1004480030BD00BF90F0000F04BF0021704730B5E9
:100458004FF4806404F132044FF000054FF00001BE
:1004680050E700BF90F0000F04BF0021704730B57F
:100478004FF4806404F1320410F0004548BF404254
:100488004FF000013EE700BF42004FEAE2014FEAA9
:1004980031014FEA02701FBF12F07F4393F07F4F84
:1004A80081F06051704732F07F4208BF704793F087
:1004B8007F4F04BF41F40021704730B54FF460749A
:1004C80001F0004521F000411CE700BF50EA01029D
:1004D80008BF704730B54FF000050AE050EA010246
:1004E80008BF704730B511F0004502D5404261EBB6
:1004F80041014FF4806404F132045FEA915C3FF4F7
:10050800D8AE4FF003025FEADC0C18BF03325FEA93
:10051800DC0C18BF033202EBDC02C2F1200300FA44
:1005280003FC20FA02F001FA03FE40EA0E0021FA69
:1005380002F11444BDE600BF70B54FF0FF0C4CF457
:10054800E06C1CEA11541DBF1CEA135594EA0C0F09
:1005580095EA0C0F00F0DEF82C4481EA030621EA44
:100568004C5123EA4C5350EA013518BF52EA03357F
:1005780041F4801143F4801338D0A0FB02CE4FF031
:100588000005E1FB02E506F00042E0FB03E54FF061
:100598000006E1FB03569CF0000F18BF4EF0010E59
:1005A800A4F1FF04B6F5007F64F5407404D25FEA55
:1005B8004E0E6D4146EB060642EAC62141EA555108
:1005C8004FEAC52040EA5E504FEACE2EB4F1FD0C4A
:1005D80088BFBCF5E06F1ED8BEF1004F08BF5FEAC8
:1005E800500E50F1000041EB045170BD06F000467A
:1005F80046EA010140EA020081EA0301B4EB5C0427
:10060800C2BFD4EB0C0541EA045170BD41F480111E
:100618004FF0000E013C00F3AB8014F1360FDEBF43
:10062800002001F0004170BDC4F10004203C35DA1F
:100638000C341BDC04F11404C4F1200500FA05F3A2
:1006480020FA04F001FA05F240EA020001F0004243
:1006580021F0004110EBD37021FA04F642EB0601B9
:100668005EEA430E08BF20EAD37070BDC4F10C04E3
:10067800C4F1200500FA04F320FA05F001FA04F2A7
:1006880040EA020001F0004110EBD37041F1000193
:100698005EEA430E08BF20EAD37070BDC4F120059E
:1006A80000FA05F24EEA020E20FA04F301FA05F206
:1006B80043EA020321FA04F001F0004121FA04F2AE
:1006C80020EA020000EBD3705EEA430E08BF20EA7E
:1006D800D37070BD94F0000F0FD101F000464000B8
:1006E80041EB010111F4801F08BF013CF7D041EA3A
:1006F800060195F0000F18BF704703F0004652003E
:1007080043EB030313F4801F08BF013DF7D043EA0E
:100718000603704794EA0C0F0CEA135518BF95EAC4
:100728000C0F0CD050EA410618BF52EA4306D1D14B
:1007380081EA030101F000414FF0000070BD50EA6A
:10074800410606BF1046194652EA430619D094EAF4
:100758000C0F02D150EA013613D195EA0C0F05D1DE
:1007680052EA03361CBF104619460AD181EA030132
:1007780001F0004141F0FE4141F470014FF00000EA
:1007880070BD41F0FE4141F4780170BD70B54FF085
:10079800FF0C4CF4E06C1CEA11541DBF1CEA135505
:1007A80094EA0C0F95EA0C0F00F0A7F8A4EB0504E7
:1007B80081EA030E52EA03354FEA013100F08880DE
:1007C8004FEA03334FF0805545EA131343EA1263A7
:1007D8004FEA022245EA111545EA10654FEA00265C
:1007E8000EF000419D4208BF964244F1FD0404F515
:1007F800407402D25B084FEA3202B61A65EB030571
:100808005B084FEA32024FF480104FF4002CB6EB2D
:10081800020E75EB030E22BFB61A754640EA0C00AD
:100828005B084FEA3202B6EB020E75EB030E22BFED
:10083800B61A754640EA5C005B084FEA3202B6EB2E
:10084800020E75EB030E22BFB61A754640EA9C00ED
:100858005B084FEA3202B6EB020E75EB030E22BFBD
:10086800B61A754640EADC0055EA060E18D04FEA7B
:10087800051545EA16754FEA06164FEAC30343EA1B
:1008880052734FEAC2025FEA1C1CC0D111F4801FE8
:100898000BD141EA00014FF000004FF0004CB6E7E1
:1008A80011F4801F04BF01430020B4F1FD0C88BF80
:1008B800BCF5E06F3FF6AFAEB5EB030C04BFB6EB8B
:1008C800020C5FEA500C50F1000041EB045170BD7E
:1008D8000EF0004E4EEA113114EB5C04C2BFD4EBAB
:1008E8000C0541EA045170BD41F480114FF0000E2F
:1008F800013C90E645EA060E8DE60CEA135594EAAB
:100908000C0F08BF95EA0C0F3FF43BAF94EA0C0FAD
:100918000AD150EA01347FF434AF95EA0C0F7FF422
:1009280025AF104619462CE795EA0C0F06D152EA76
:1009380003353FF4FDAE1046194622E750EA41065A
:1009480018BF52EA43067FF4C5AE50EA41047FF46B
:100958000DAF52EA43057FF4EBAE12E74A0011D21D
:1009680012F5001211D20DD56FF47873B3EB625201
:100978000ED44FEAC12343F0004343EA505323FA0D
:1009880002F070474FF00000704750EA013002D182
:100998004FF0FF3070474FF0000070474FEA4102B8
:1009A800B2F1E04324BFB3F5001CDCF1FE5C0DD9C5
:1009B80001F0004C4FEAC0024CEA5070B2F1004F0F
:1009C80040EB830008BF20F00100704711F0804F12
:1009D80021D113F13872BCBF01F00040704741F4D7
:1009E80080114FEA5252C2F11802C2F1200C10FADB
:1009F8000CF320FA02F018BF40F001004FEAC123BF
:100A08004FEAD32303FA0CFC40EA0C0023FA02F362
:100A18004FEA4303CCE77FEA625307D150EA013338
:100A28001EBF4FF0FE4040F44000704701F0004008
:100A380040F0FE4040F40000704700BF53B94AB987
:100A4800002908BF00281CBF4FF0FF314FF0FF30CE
:100A580000F06EB9ADF1080C6DE904CE00F006F8AF
:100A6800DDF804E0DDE9022304B070472DE9F04722
:100A7800089D04468C46002B40F083808A42174626
:100A880047D9B2FA82F242B1C2F1200024FA00F04A
:100A98009140974040EA010C94404FEA1748230CD4
:100AA800BCFBF8F61FFA87FE08FB16C143EA0143B0
:100AB80006FB0EF1994209D9FB1806F1FF3080F0C8
:100AC8001981994240F21681023E3B445B1AA4B256
:100AD800B3FBF8F008FB103344EA034400FB0EFEB6
:100AE800A64509D93C1900F1FF3380F00581A645D8
:100AF80040F2028102383C4440EA0640A4EB0E046E
:100B080000261DB1D4400023C5E900433146BDE8A5
:100B1800F08702B9FFDEB2FA82F2002A50D1CB1B6D
:100B28004FEA174E1FFA87F80126B3FBFEFC210C8B
:100B38000EFB1C3341EA034108FB0CF38B4207D937
:100B480079180CF1FF3002D28B4200F2E98084461A
:100B5800C91AA3B2B1FBFEF00EFB101143EA01441F
:100B680008FB00F8A04507D93C1900F1FF3302D271
:100B7800A04500F2D9801846A4EB080440EA0C40CE
:100B8800BFE78B4209D9002D00F0B1800026C5E9E6
:100B9800000130463146BDE8F087B3FA83F6002EEF
:100BA8004AD18B4202D3824200F2B880841A61EBA8
:100BB800030101208C46002DA8D0C5E9004CA5E70B
:100BC800C2F1200320FA03F6974001FA02F04FEA37
:100BD800174ED9403043030CB1FBFEF61FFA87F8D5
:100BE8000EFB161143EA014306FB08F1994204FA89
:100BF80002F409D9FB1806F1FF3C80F08D80994278
:100C080040F28A80023E3B445B1A81B2B3FBFEF09D
:100C18000EFB103341EA034100FB08F38B4207D96E
:100C2800791800F1FF3C73D28B4271D902383944EC
:100C3800CB1A40EA064678E7C6F1200C03FA06F418
:100C480022FA0CF31C4320FA0CF701FA06F34FEAD8
:100C5800144E21FA0CF11F433B0CB1FBFEF91FFAAD
:100C680084F80EFB191143EA014109FB08FA8A4589
:100C780002FA06F200FA06F308D9611809F1FF3002
:100C880048D28A4546D9A9F102092144A1EB0A01B3
:100C9800BFB2B1FBFEF00EFB101147EA014700FBA3
:100CA80008F8B84507D9E71900F1FF312ED2B84541
:100CB8002CD90238274440EA0940A7EB0807A0FBD3
:100CC80002894F45C64649461AD317D05DB1B3EBE2
:100CD8000E0267EB010707FA0CFCF2404CEA02022D
:100CE800F740C5E9002700263146BDE8F0872E46C3
:100CF80028460BE70646E9E61846FDE64345E5D2F1
:100D0800B8EB020E69EB04010138DFE70846D2E7C9
:100D180060468DE78146B9E7664675E730464AE79B
:100D2800ACF1020C394413E702383C4424E700BF15
:100D3800704700BFF0B58BB0002405940694079463
:100D48000894099401942C4B1A6B42F080021A63A0
:100D58001A6B02F080020192019A02941A6B42F017
:100D680004021A631A6B02F004020292029A0394B4
:100D78001A6B42F001021A631A6B02F00102039225
:100D8800039A04941A6B42F002021A631B6B03F075
:100D980002030493049B194F224641F6104138463A
:100DA80002F00EFA164D22464FF44071284602F022
:100DB80007FA41F61043059301260696079408940E
:100DC80005A9384602F016F94FF4807305930223FB
:100DD800069307940894099405A90A4802F00AF9A9
:100DE8004FF44073059306960794089405A928467E
:100DF80002F000F90BB0F0BD0038024000080240D4
:100E0800000402400000024010B582B000240094A3
:100E1800164B1A6B42F480021A631A6B02F48002B2
:100E28000092009A01941A6B42F400121A631B6B29
:100E380003F400130193019B22462146112002F07E
:100E4800FDFB112002F02EFC22462146382002F03C
:100E5800F5FB382002F026FC224621463A2002F013
:100E6800EDFB3A2002F01EFC02B010BD0038024033
:100E780008B50D480D4B03604FF48273436000239F
:100E880083604FF40062C260036143614FF40072F3
:100E980082613022C2610362436283620A23C362B1
:100EA80002F05CFD08BD00BF500800200030014082
:100EB80008B50D480D4B03604FF4827343604FF43F
:100EC800004383604FF40063C36000230361436100
:100ED8004FF400728261C3610362436283620A2332
:100EE800C36202F03BFD08BDAC050020003800409D
:100EF80008B50848084B03604FF4E133436000230A
:100F08008360C36003610C2242618361C36103F0A3
:100F180045F908BDA80800200044004030B583B05A
:100F2800002400940194074D074B2B60284603F0DA
:100F38001DFB0094019422466946284603F028FBCD
:100F480003B030BD9C0700200074004030B589B064
:100F5800002403940494059406940794019402943D
:100F68000F4D104B2B606C60AC604FF6FF73EB605D
:100F78002C61AC61284601F089FB072303936023A9
:100F880004930594079403A9284601F059FC019499
:100F9800029401A9284601F07DFC09B030BD00BFCC
:100FA800040600200008004030B589B000240394EE
:100FB8000494059406940794019402940F4D104BE1
:100FC8002B606C60AC604FF6FF73EB602C616C615A
:100FD800AC61284601F05AFB07230393602304936E
:100FE8000594079403A9284601F02AFC0194029469
:100FF80001A9284601F04EFC09B030BD10080020B8
:101008000000014030B587B0002402940394049492
:101018000594009401940E4D0E4B2B606C60AC60EF
:101028004FF08063EB602C61AC61284601F02EFB29
:101038004FF48053029302A9284601F04DFB009417
:1010480001946946284601F025FC07B030BD00BF71
:101058008C060020000C004070B584B00025009577
:10106800019502950395104C104B23604FF44033C3
:101078006360A56025610126267684F82050E56224
:101088000B4BA362E560E66184F830606661204638
:1010980003F054FB0095019602956946204603F03B
:1010A80083FC04B070BD00BFCC06002000200140C6
:1010B8000100000F70B584B00025009501950295D8
:1010C8000395104C104B23604FF440336360A560C8
:1010D80025610126267684F82050E5620B4BA36231
:1010E800E560E66184F830606661204603F026FB1F
:1010F8000096019602956946204603F055FC04B017
:1011080070BD00BF44060020002101400100000F0F
:1011180008B50B480B4B036003234360002383602F
:10112800C3604FF4402202614FF48012426103769B
:1011380043768376C3760377437703F0FDFC08BDD7
:10114800480900200064004008B50B480B4B0360B9
:101158000323436000238360C3604FF4402202618D
:101168004FF480124261037643768376C376037721
:10117800437703F0E1FC08BD140700200068004035
:1011880030B595B03022002108A803F0FBFE0024FA
:101198000394049405940694079401941D4B1A6CC7
:1011A80042F080521A641B6C03F080530193019B38
:1011B8000294194B1A6842F480421A601B6803F4BF
:1011C80080430293029B0225089501230B93102369
:1011D8000C930E950F9408231093C02311930423A6
:1011E8001293139308A801F09BFB0F230393049514
:1011F80005944FF4A05306934FF4805307930321AB
:1012080003A801F021FE22462146204601F07EFD7A
:1012180015B030BD003802400070004008B502F03B
:101228008BFAFFF7ADFFFFF785FDFFF7EDFDFFF741
:101238001FFEFFF75DFEFFF771FEFFF787FEFFF762
:10124800B3FEFFF7DFFEFFF733FEFFF705FFFFF7FB
:1012580031FFFFF75DFFFFF777FF00F039F9FCE793
:10126800704700000368104A934203D00F4A934224
:1012780011D07047037F012B07D0022BF9D10C4BFB
:10128800B3F8C0200B4B1A6070470B4AB2F8C01075
:101298000A4A1160F1E7037F082BEAD1064BB3F83D
:1012A800C020064B1A60E4E7000800400000014037
:1012B8007C8800209805002068DB00209405002029
:1012C80008B50C4B834200D008BD0B4B5B6A0B4A38
:1012D80013600B4A526A0B490A609B1A0A4A136048
:1012E8000A4B01221A604FF40061094801F06EFFB1
:1012F800EAE700BF8C06002000080040788800203C
:1013080000000140B8CB0020A005002020CA002022
:101318000008024000000000514B834200D0704793
:1013280010B5504B1B78752B0BD0642B29D0722B22
:1013380047D0782B65D001224A49494802F05DFF21
:1013480010BD494C2068FFF79FF83FA3D3E900235D
:10135800FEF73CFFFFF722FB2060FFF795F83CA360
:10136800D3E90023FFF712FA0022404BFFF7E4F815
:10137800FFF7F4FA0346002211463D4803F02DF921
:10138800D9E7394C2068FFF77FF82FA3D3E900236A
:10139800FEF71AFFFFF702FB2060FFF775F82CA392
:1013A800D3E90023FFF7F2F90022304BFFF7C4F826
:1013B800FFF7D4FA0346002211462D4803F00DF931
:1013C800B9E7294C2068FFF75FF823A3D3E9002386
:1013D800FEF7FCFEFFF7E2FA2060FFF755F81CA3C2
:1013E800D3E90023FFF7D2F90022204BFFF7A4F836
:1013F800FFF7B4FA0346002211461D4803F0EDF842
:1014080099E7194C2068FFF73FF813A3D3E90023A5
:10141800FEF7DAFEFFF7C2FA2060FFF735F80CA3F3
:10142800D3E90023FFF7B2F90022104BFFF784F845
:10143800FFF794FA0346002211460D4803F0CDF851
:1014480079E700BFAFF300809A9999999999B93FC4
:101458006666666666660A407B14AE47E17A843F34
:10146800A8080020C0CB0020BCCB00200000B04062
:101478009C07002010B5044602220168104600F0BF
:101488003FFF02226168032000F03AFF0222A168B0
:10149800042000F035FF0222E168052000F030FF4B
:1014A80002222169062000F02BFF02226169072031
:1014B80000F026FF0222A169082000F021FF022285
:1014C800E169092000F01CFF00F008FF10BD0000D2
:1014D8002DE9F0418AB02022002102A803F052FD34
:1014E8004FF6FF73514A1360514A136000F0AAFE89
:1014F80002A8FFF7BFFF01224FF40061092000F0A6
:10150800FFFE4C4D29680122090B062000F0F8FE69
:1015180029680122C1F30B01072000F0F1FE464CB7
:1015280021680122090B052000F0EAFE216801224A
:10153800C1F30B01042000F0E3FE00F04FFB3F4F26
:1015480023233B703E4E304602F074FF0B2239468F
:10155800304602F081FE012002F01AF90027394BCB
:101568001F60394B1F6001972E682568012201A969
:10157800364803F00FF930E00A3E0A3540F6FC74AD
:1015880004EA962802224146062000F0B9FE02220B
:101598004146072000F0B4FE0222C6F30B010820E2
:1015A80000F0AEFE04EA952402222146052000F050
:1015B800A7FE02222146042000F0A2FE0222C5F363
:1015C8000B01032000F09CFE4FF4FC6000F0E2FEEB
:1015D8004FF400611E4801F0F9FD3C46134B1A68B0
:1015E80045F255539A42F9D1104B43F233321A60FF
:1015F800019FC7F30B073C1B012201A9134803F005
:10160800C9F8132CBADC07EE904AF8EEE77AB1EE87
:10161800047A67EE877A0F4BC3ED007AF5EEC07A4D
:10162800F1EE10FAA8DD0A360A3DA7E7DC860020AD
:10163800F8DC0020040000200000002078090020C9
:10164800A80800208C0500209005002044060020F2
:10165800000802409C05002010B504460A4B984239
:1016680003D00A4B9C4209D010BD094B01221A60D5
:10167800C8220849044803F08DF8F2E7064B45F202
:1016880055521A60F0E700BFCC060020440600203F
:101698008C050020E0860020DC86002008B50B4B76
:1016A800834200D008BD0A4BB3F801200949A1F8CC
:1016B8000120D3F80320C1F80320D3F80730C1F87C
:1016C80007300B22014802F0C7FDEBE7A80800200D
:1016D80094DE00207809002008B501221021024874
:1016E80001F06EFD08BD00BF0008024030B583B0B0
:1016F800ADF80600ADF80410022002F049F8124CCB
:1017080000221021204601F05BFD032002F040F882
:101718000E4D642301220DF10601284602F05EF900
:101728006423012201A9284602F058F9032002F097
:101738002FF801221021204601F042FD022002F07C
:1017480027F803B030BD00BF000802405008002051
:1017580070B582B00C46ADF806000D4D0022102180
:10176800284601F02DFD0B4E642301220DF10601E0
:10177800304602F033F9642301222146304602F054
:101788001BFB01221021284601F01AFD02B070BD92
:10179800000802405008002070B582B006460024B8
:1017A80000E00134312C14DC0B4B04EB440203EB56
:1017B800420533F812000DF1060140F42040FFF70E
:1017C800C7FFBDF806301B0A6B80012EE9D1AB803C
:1017D800E7E702B070BD00BF0800002010B5084C54
:1017E800B4F826014FF4807140F40050FFF77EFFF3
:1017F800B4F82601002140F40050FFF777FF10BD30
:101808000800002010B5134C208840F2022140F453
:101818000050FFF76BFF20884AF2A00140F4005007
:10182800FFF764FFB4F82601002140F40050FFF7E9
:101838005DFFB4F826014FF4807140F40050FFF7C3
:1018480055FFB4F82601002140F40050FFF74EFF81
:1018580010BD00BF0800002008B50146034B588A98
:1018680040F40050FFF742FF08BD00BF0800002009
:1018780070B582B0D14BB3F81E2142F0010222F0BC
:10188800020292B2EE21A3F8B210A3F87C10002451
:10189800A3F8D040B3F8D61041F08001A3F8D610D1
:1018A8001021A3F80611B3F80C1141F04001A3F878
:1018B8000C11A3F818413021998300283AD1BF4B65
:1018C80034219983BD4DAB8B03F07F03AB83002498
:1018D8002C8501266E846C87AE86EC850823A5F8D6
:1018E80040300623A5F84630A5F86A308623A5F8C7
:1018F8004C300220A5F864001623A5F8703002F0D9
:10190800FD02A5F81E2101F043FF22461021AC4834
:1019180001F056FC032001F03BFFB5F8723043F4A8
:10192800C043ADF804306423324601A9A54802F04B
:1019380055F827E0012805D00228C3D19F4B3C2148
:101948009983BFE79D4B38219983BBE7032001F0BA
:101958001FFF04EB44019C4BA3EB810290886FF0BE
:101968000502A2EB81021344B3F9043043EA0023D1
:10197800ADF80630642301220DF10601914802F00A
:101988002DF80134072CE1DD032001F001FF8C4C18
:1019980001221021204601F013FC022001F0F8FE7C
:1019A800022001F0F5FE00221021204601F008FC7B
:1019B800032001F0EDFE814BB3F8C63043F4C04379
:1019C800ADF804306423012201A97E4802F006F82C
:1019D80000241BE0032001F0DBFE04EB44017B4BF9
:1019E800A3EB810290886FF00502A2EB81021344F9
:1019F800B3F9043043EA0023ADF80630642301222A
:101A08000DF106016F4801F0E9FF0134062CE1DD14
:101A1800032001F0BDFE6A4C01221021204601F08E
:101A2800CFFB022001F0B4FE022001F0B1FE00223B
:101A38001021204601F0C4FB032001F0A9FE5F4BF2
:101A4800B3F80E3143F4C043ADF8043064230122E7
:101A580001A95C4801F0C2FF0024052C1CDC03200E
:101A680001F096FE04EB4401594BA3EB81029088E8
:101A78006FF00502A2EB81021344B3F9043043EA84
:101A88000023ADF80630642301220DF106014D480C
:101A980001F0A4FF0134E0E7032001F079FE484C8F
:101AA80001221021204601F08BFB022001F070FE7C
:101AB800022001F06DFE00221021204601F080FB7B
:101AC800032001F065FE3D4BB3F81A3143F4C043DF
:101AD800ADF804306423012201A93A4801F07EFFE1
:101AE8000024002C1CDC032001F052FE04EB44010E
:101AF800384BA3EB810290886FF00502A2EB8102BC
:101B08001344B3F9043043EA0023ADF806306423E4
:101B180001220DF106012B4801F060FF0134E0E7D6
:101B2800032001F035FE264C01221021204601F049
:101B380047FB022001F02CFE022001F029FE0022C2
:101B48001021204601F03CFB032001F021FE1B4B35
:101B5800B3F8203143F4C043ADF8043064230122C4
:101B680001A9184801F03AFF0024002C0EDD0320DB
:101B780001F00EFE01221021114801F021FB022084
:101B880001F006FEFFF72AFE02B070BD032001F047
:101B9800FFFD04EB4402104BA3EB42039A88B3F910
:101BA800043043EA0223ADF80630642301220DF124
:101BB8000601044801F012FF0134D6E708000020AE
:101BC80000080240500800207A000020CE000020C3
:101BD80016010020220100202801002008B5FFF787
:101BE8007BFDFFF70FFE4EF69030FFF735FE012024
:101BF800FFF7D2FD1E2001F0CBFD0220FFF738FED3
:101C08001E2001F0C5FD0020FFF7C6FD1E2001F0D3
:101C1800BFFD08BD7047FEE7FEE7FEE7FEE7704739
:101C28007047704708B501F0A1FD08BD08B5024826
:101C380001F004FC08BD00BF3C07002008B50248BD
:101C480003F02DF808BD00BF4809002008B5024878
:101C580002F0F0FB08BD00BFA808002008B5024844
:101C680000F0F2FB08BD00BF8C06002008B5024852
:101C780001F0E4FB08BD00BFB007002008B502482A
:101C880001F0DCFB08BD00BFE808002008B50248E9
:101C980003F005F808BD00BF1407002082B000213A
:101CA80000910B4B5A6C42F480425A645A6C02F40D
:101CB80080420092009A01911A6C42F080521A6494
:101CC8001B6C03F080530193019B02B0704700BF67
:101CD8000038024030B58BB00446002305930693C4
:101CE80007930893099303683F4A934204D03F4AF5
:101CF80093423CD00BB030BD002501953C4B5A6C4B
:101D080042F480725A645A6C02F480720192019A09
:101D180002951A6B42F001021A631B6B03F0010370
:101D28000293029B0123059303230693079505A9B4
:101D3800304801F05FF93048304B036045608560FA
:101D4800C5604FF4806303614FF4006343614FF44F
:101D580000538361C5610562456201F0C1FA18B993
:101D6800254BA3639C63C5E7FFF77AFAF8E70025DC
:101D780003951F4B5A6C42F400725A645A6C02F471
:101D880000720392039A04951A6B42F001021A63D7
:101D98001B6B03F001030493049B022305930323A5
:101DA8000693079505A9134801F024F91448154B23
:101DB80003604FF0007343608560C5604FF4806333
:101DC80003614FF4006343614FF400538361C561BD
:101DD8000562456201F084FA18B9094BA3639C6354
:101DE80088E7FFF73DFAF8E70020014000210140AD
:101DF8000038024000000240B00700201064024092
:101E0800E80800204064024010B58AB0002305931A
:101E180006930793089309930368404A934204D0B2
:101E28003F4A934237D00AB010BD3E4A1368013387
:101E38001360012B22D0002401943B4B1A6B42F013
:101E480001021A631B6B03F001030193019B4FF41A
:101E5800C053059302230693079403230893092389
:101E6800099305A9314801F0C5F8224621461520F5
:101E780001F0E4FB152001F015FCD4E700230093E2
:101E8800294B1A6C42F000721A641B6C03F0007341
:101E98000093009BCFE700230293234B1A6C42F078
:101EA80080621A641B6C03F080630293029B1D4AD4
:101EB800136801331360012B22D0002404941A4BB9
:101EC8001A6B42F002021A631B6B03F002030493BD
:101ED800049B4FF44053059302230693079403236E
:101EE80008930923099305A9114801F083F82246AC
:101EF8002146402001F0A2FB402001F0D3FB92E7ED
:101F080000230393084B1A6C42F000721A641B6C8E
:101F180003F000730393039BCFE700BF0064004006
:101F280000680040A405002000380240000002407C
:101F38000004024000B589B000230393049305937D
:101F4800069307930268134B9A4202D009B05DF8D2
:101F580004FB0022019203F5E233196C41F00051B1
:101F68001964196C01F00051019101990292196BE1
:101F780041F0010119631B6B03F001030293029BFB
:101F88001023039303230493059203A9024801F045
:101F980031F8DBE70074004000000240F0B58BB078
:101FA8000023059306930793089309930368324A1D
:101FB800934204D0314A934225D00BB0F0BD0022A1
:101FC80000922F4B596C41F480515964596C01F4BB
:101FD8008051009100990192196B41F00101196338
:101FE8001B6B03F001030193019BE023059302237C
:101FF80006930792032308930523099305A921480B
:1020080000F0F8FFD9E7002402941D4B1A6C42F443
:1020180080421A641A6C02F480420292029A039473
:102028001A6B42F004021A631A6B02F0040203925C
:10203800039A04941A6B42F002021A631B6B03F0B2
:1020480002030493049B0823059302270697079429
:10205800032608960525099505A90B4800F0CAFF2F
:102068004FF480630593069707940896099505A988
:10207800064800F0BFFFA0E70030014000380040EC
:1020880000380240000002400008024000040240FC
:1020980000B58BB000230593069307930893099323
:1020A8000368334A934208D0324A934229D0324ACD
:1020B800934248D00BB05DF804FB002200922F4BEE
:1020C800596C41F001015964596C01F0010100910A
:1020D80000990192196B41F0010119631B6B03F020
:1020E80001030193019B4FF40073059302230693A8
:1020F800079208920123099305A9214800F07AFF65
:10210800D8E7002202921D4B196C41F004011964B2
:10211800196C01F00401029102990392196B41F0C4
:10212800020119631B6B03F002030393039B8023D3
:1021380005930223069307920892099305A911486B
:1021480000F058FFB6E7002104910C4B1A6C42F0DE
:1021580008021A641B6C03F008030493049B0A46E4
:10216800322001F06BFA322001F09CFAA2E700BF9E
:102178000000014000080040000C00400038024008
:10218800000002400004024030B589B000230393E8
:1021980004930593069307930268264B9A4201D04D
:1021A80009B030BD04460025019503F5FA331A6CD1
:1021B80042F400321A641A6C02F400320192019A55
:1021C80002951A6B42F001021A631B6B03F00103BC
:1021D8000293029B0C230393022304930595032384
:1021E80006930723079303A9134800F003FF134836
:1021F800134B03604FF00063436040238360C56066
:102208004FF48063036145618561C561056245627C
:1022180001F066F858B9094B23639C630022114604
:10222800262001F00BFA262001F03CFAB8E7FFF768
:1022380017F8F0E700440040000002403C07002087
:10224800A060024030B583B0214C01224FF4807168
:10225800204600F0B5FF01224FF40071204600F03F
:10226800AFFF022001F094FA4FF48053ADF8063026
:1022780000224FF40071204600F0A2FF154D0A23FA
:1022880001220DF10601284601F0A8FB01224FF4B6
:102298000071204600F094FF00224FF400712046A0
:1022A80000F08EFF4FF6FF73ADF806300A230122C7
:1022B8000DF10601284601F091FB01224FF400714F
:1022C800204600F07DFF044B00221A8003B030BD89
:1022D80000040240AC050020A805002010B5074CFA
:1022E80000224FF48071204600F06AFF01224FF46B
:1022F8008071204600F064FF10BD00BF000402405A
:1023080070B582B00446154603039BB20B43ADF883
:1023180006301D4E00224FF40071304600F050FF89
:102328000A2301220DF10601184801F057FB01228A
:102338004FF40071304600F043FF00224FF4007163
:10234800304600F03DFF012D07D001224FF4007107
:102358000D4800F035FF02B070BD0234012202FAC8
:1023680004F40B49088840EA04036FEAC3436FEAA0
:10237800D343ADF8063004430C800A230DF106015F
:10238800024801F02BFBE0E700040240AC05002006
:10239800A805002030B583B00446104D00224FF444
:1023A8000071284600F00CFF0D4A108820436FEAA0
:1023B800C0436FEAD343ADF8063010800A230122E8
:1023C8000DF10601074801F009FB01224FF40071E5
:1023D800284600F0F5FE03B030BD00BF00040240FF
:1023E800A8050020AC05002030B4036A056A25F072
:1023F80001050562846924F0F00444EA021423F01C
:102408000A030B438461036230BC704730B4056A29
:1024180025F0100505628469036A24F4704444EACF
:10242800023423F0A00343EA01138461036230BC41
:102438007047836823F070030B4343F007038360FE
:10244800704770477047704710B5044603681A69AB
:1024580012F0020F11D0DA6812F0020F0DD06FF0EF
:1024680002021A610123037703689B6913F0030FC3
:1024780070D0FEF7F7FE0023237723681A6912F05D
:10248800040F12D0DA6812F0040F0ED06FF00402B5
:102498001A610223237723689B6913F4407F5FD076
:1024A8002046FEF7DFFE0023237723681A6912F01F
:1024B800080F12D0DA6812F0080F0ED06FF0080279
:1024C8001A61042323772368DB6913F0030F4ED0C6
:1024D8002046FEF7C7FE0023237723681A6912F007
:1024E800100F12D0DA6812F0100F0ED06FF0100231
:1024F8001A61082323772368DB6913F4407F3DD0F2
:102508002046FEF7AFFE0023237723681A6912F0EE
:10251800010F03D0DA6812F0010F36D123681A6967
:1025280012F0800F03D0DA6812F0800F34D12368DC
:102538001A6912F0400F03D0DA6812F0400F32D156
:1025480023681A6912F0200F03D0DA6812F0200FFE
:1025580030D110BDFFF775FF2046FFF773FF8AE7FC
:102568002046FFF76EFF2046FFF76CFF9BE72046EB
:10257800FFF767FF2046FFF765FFACE72046FFF748
:1025880060FF2046FFF75EFFBDE76FF001021A61AA
:102598002046FEF795FEC1E76FF080021A612046DB
:1025A80000F0BDF9C3E76FF040021A612046FFF75B
:1025B8004AFFC5E76FF020021A61204600F0AEF925
:1025C800C7E700000368304A904212D0B0F1804F4C
:1025D8000FD0A2F57C4290420BD002F58062904267
:1025E80007D002F58062904203D002F5784290420B
:1025F80003D123F070034A681343234A90422AD038
:10260800B0F1804F27D0A2F57C42904223D002F54A
:10261800806290421FD002F5806290421BD002F582
:102628007842904217D002F57052904213D002F5CA
:10263800806290420FD002F5806290420BD0A2F5E2
:102648009832904207D002F58062904203D002F59A
:102658008062904203D123F44073CA68134323F085
:1026680080034A69134303608B68C3620B68836203
:10267800054B984203D003F58063984201D10B695A
:10268800036301234361704700000140B0B110B5F6
:10269800044690F83D3063B1022384F83D3021466A
:1026A80051F8040BFFF78EFF012384F83D3000201A
:1026B80010BD80F83C30FFF7EBFCEDE701207047D8
:1026C80010B4846824F47F4442EA03220A43224374
:1026D80082605DF8044B704790F83C30012B66D05F
:1026E80010B50446012380F83C30022380F83D30C1
:1026F8000268936823F47F4323F0770393600B68A1
:10270800602B40D022D8402B47D00BD9502B0ED16C
:10271800CA6849680068FFF767FE50212068FFF71C
:1027280088FE04E0202B0CD008D9302B09D00123D7
:1027380084F83D30002084F83C0010BD0BB1102B0C
:10274800F5D119462068FFF774FEF0E7702B0ED01C
:10275800B3F5005FEBD1CB684A6889680068FFF77A
:10276800AFFF2268936843F480439360DFE7CB6848
:102778004A6889680068FFF7A3FF2268936843F0F6
:1027880077039360D3E7CA6849680068FFF73EFE9D
:1027980060212068FFF74DFEC9E7CA6849680068EC
:1027A800FFF722FE40212068FFF743FEBFE7022023
:1027B800704710B50468A26822F070024B68134392
:1027C80023F007030A681343A3604B68602B2CD0DF
:1027D8000CD8402B14D0502B06D10A6989680068A0
:1027E800FFF702FE002028E0002026E0702B23D10E
:1027F8000B698A68C9680068FFF762FF00201CE05F
:102808000B68052B1AD003681C6A1A6A22F00102A9
:102818001A620268936923F0F003096943EA011315
:10282800936103681C62002007E00A6989680068F0
:10283800FFF7ECFD002000E0002010BD0120FCE7C0
:1028480090F83C30012B22D010B50446012380F8C3
:102858003C30022380F83D30FFF7ABFF80B9226897
:10286800D36823F04003D3602268D36823F48043FD
:10287800D360012384F83D30002384F83C3010BD38
:10288800012084F83D00002384F83C30F7E702205B
:102898007047000090F83C30012B3BD030B4012346
:1028A80080F83C30022380F83D3003685C689D68FE
:1028B80024F070040A6822435A600368164A934257
:1028C8001AD0B3F1804F17D0A2F57C42934213D0AF
:1028D80002F5806293420FD002F5806293420BD0DA
:1028E80002F57842934207D002F57052934203D022
:1028F800A2F59432934204D125F080054A68154325
:102908009D60012380F83D30002380F83C30184654
:1029180030BC704702207047000001407047704784
:10292800002800F0D98170B582B00446036813F01E
:10293800010F3BD0A64B9B6803F00C03042B2CD053
:10294800A34B9B6803F00C03082B21D06368B3F5F5
:10295800803F4FD0B3F5A02F52D09D4B1A6822F478
:1029680080321A601A6822F480221A606368002B89
:1029780050D000F007FF0546954B1B6813F4003F45
:1029880014D100F0FFFE401B6428F5D90320AAE10A
:102998008F4B5B6813F4800FD8D08D4B1B6813F4F2
:1029A800003F03D06368002B00F09881236813F080
:1029B800020F54D0864B9B6813F00C0F3ED0844B0B
:1029C8009B6803F00C03082B33D0E368002B67D017
:1029D800804B01221A6000F0D5FE05467C4B1B682F
:1029E80013F0020F53D100F0CDFE401B0228F5D999
:1029F800032078E1764A136843F480331360B5E71F
:102A0800734B1A6842F480221A601A6842F48032C2
:102A18001A60ABE700F0B6FE05466D4B1B6813F471
:102A2800003FC3D000F0AEFE401B6428F5D9032058
:102A380059E1674B5B6813F4800FC6D1644B1B6880
:102A480013F0020F03D0E368012B40F04981604A7C
:102A5800136823F0F803216943EAC103136023686C
:102A680013F0080F40D0636963B35B4B01221A600F
:102A780000F088FE0546564B5B6F13F0020F33D10A
:102A880000F080FE401B0228F5D903202BE1504AB4
:102A9800136823F0F803216943EAC1031360DEE7F2
:102AA8004C4B00221A6000F06DFE0546484B1B682F
:102AB80013F0020FD3D000F065FE401B0228F5D9B1
:102AC800032010E1444B00221A6000F05BFE05462B
:102AD8003F4B5B6F13F0020F06D000F053FE401B14
:102AE8000228F5D90320FEE0236813F0040F78D0FC
:102AF800374B1B6C13F0805F0DD100230193344BCF
:102B08001A6C42F080521A641B6C03F080530193D4
:102B1800019B012500E00025304B1B6813F4807FE2
:102B280021D0A368012B32D0052B36D0284B1A6F41
:102B380022F001021A671A6F22F004021A67A368CA
:102B4800002B34D000F01EFE0646214B1B6F13F0FD
:102B5800020F45D100F016FE801B41F288339842DF
:102B6800F3D90320BFE01D4A136843F48073136050
:102B780000F008FE0646194B1B6813F4807FD0D17D
:102B880000F000FE801B0228F5D90320ABE0104AB4
:102B9800136F43F001031367D1E70D4B1A6F42F02F
:102BA80004021A671A6F42F001021A67C7E700F0B9
:102BB800E9FD0646064B1B6F13F0020F10D000F01C
:102BC800E1FD801B41F288339842F3D903208AE063
:102BD8000038024000004742800E47420070004023
:102BE800E5B9A369002B7DD0464A926802F00C0231
:102BF800082A51D0022B17D0434B00221A6000F04C
:102C0800C1FD04463F4B1B6813F0007F42D000F023
:102C1800B9FD001B0228F5D9032064E0394A136C7A
:102C280023F080531364DCE7374B00221A6000F06E
:102C3800A9FD0546334B1B6813F0007F06D000F052
:102C4800A1FD401B0228F5D903204CE0E369226A64
:102C58001343626A43EA8213A26A5208013A43EABA
:102C68000243E26A43EA0263264A5360264B012282
:102C78001A6000F087FD0446224B1B6813F0007FA2
:102C880006D100F07FFD001B0228F5D903202AE0B9
:102C9800002028E0002026E0012B26D0194B5B6895
:102CA80003F48001E269914221D103F03F02216AD5
:102CB8008A421ED1616A47F6C0721A408A421AD106
:102CC80003F44032A16A8A4217D103F07063E26AC2
:102CD800934214D1002006E001207047012002E051
:102CE800012000E0002002B070BD0120FBE70120B8
:102CF800F9E70120F7E70120F5E70120F3E70120D4
:102D0800F1E700BF003802406000474270B588B064
:102D18000C46154600BB00230193204E326B42F04F
:102D280001023263326B02F001020192019A4FF400
:102D3800807203920222049203220692059307935B
:102D480003A9174800F056F9B36823F0EC632C4345
:102D58001C43B46008B070BD002302930F4E326B61
:102D680042F004023263326B02F004020292029AC9
:102D78004FF40072039202220492032206920593F2
:102D8800079303A9074800F035F9B36823F078439F
:102D980044EAC5041C43B460DCE700BF00380240C5
:102DA8000000024000080240F8B5244B9B6803F07D
:102DB8000C03042B3DD0082B3DD1204B5A6802F060
:102DC8003F025B6813F4800F12D01C4B5968C1F3A3
:102DD800881100231A48A1FB0001FDF72FFE174BAD
:102DE8005B68C3F3014301335B00B0FBF3F023E0FE
:102DF800124B5B68C3F388135C010025E41A65F184
:102E08000005AE0146EA9466A701381B66EB05018A
:102E1800CC0044EA5074C500E81844F100018B0264
:102E280043EA90538402204619460023FDF706FE24
:102E3800D5E7034800E00348F8BD00BF003802406A
:102E4800405489000024F400002800F09B8070B5ED
:102E58000D4604464F4B1B6803F00F038B4208D204
:102E6800CBB24C4A1370136803F00F038B4240F047
:102E78008B80236813F0020F17D013F0040F04D0CF
:102E8800454A936843F4E0539360236813F0080FAE
:102E980004D0414A936843F4604393603E4A936880
:102EA80023F0F003A1680B439360236813F0010F2C
:102EB80032D06368012B21D09A1E012A25D9364ABF
:102EC800126812F0020F61D033498A6822F00302B7
:102ED80013438B6000F056FC06462F4B9B6803F0AB
:102EE8000C036268B3EB820F16D000F04BFC801B1A
:102EF80041F288339842F0D9032042E0264A12680A
:102F080012F4003FE0D101203BE0234A126812F09E
:102F1800007FD9D1012034E01E4B1B6803F00F035A
:102F2800AB4207D9EAB21B4B1A701B6803F00F03B8
:102F3800AB422DD1236813F0040F06D0164A9368CC
:102F480023F4E053E1680B439360236813F0080F00
:102F580007D0114A936823F46043216943EAC10307
:102F68009360FFF721FF0C4B9B68C3F303130B4AD5
:102F7800D35CD8400A4B18600A4B186800F0B6FBBF
:102F8800002070BD012070470120FAE70120F8E712
:102F98000120F6E7003C0240003802402C510008AE
:102FA8003C01002038010020014B1868704700BF21
:102FB8003C01002008B5FFF7F7FF044B9B68C3F3FB
:102FC8008223034AD35CD84008BD00BF00380240C2
:102FD8003C51000808B5FFF7E7FF044B9B68C3F3B3
:102FE8004233034AD35CD84008BD00BF00380240D2
:102FF8003C51000800230F2B00F2D980F0B583B0B4
:1030080039E0072200E00022B2403A430234684E19
:1030180046F82420674A1468EA4324EA05064F68FC
:1030280017F4803F01D045EA0406624C26606468C4
:1030380002EA04064F6817F4003F01D045EA040687
:103048005C4C6660A46802EA04064F6817F4801FA7
:1030580001D045EA0406574CA660E46822404E6851
:1030680016F4001F01D045EA0402524CE260013315
:103078000F2B00F29A8001229A400C6804EA02059C
:1030880032EA0404F3D14C68661E012E03D9112CD0
:1030980001D0122C12D186685F000324BC4026EAB6
:1030A8000406CC68BC4034438460466826EA0206BD
:1030B8004C68C4F300129A4032434260C7685E000D
:1030C8000324B440E24327EA04078C68B4403C4335
:1030D800C4604C68022C01D0122C13D1DF080837C9
:1030E80050F827E003F007044FEA840C0F2404FA91
:1030F8000CF42EEA040E0C6904FA0CF444EA0E04EB
:1031080040F82740046814404A6802F00302B240BD
:10311800224302604A6812F0805FA8D00022019220
:10312800254A546C44F480445464526C02F480423E
:103138000192019A9C08A61C1D4A52F8267003F0B9
:10314800030296000F22B24027EA02071B4A904268
:103158003FF459AF02F5806290421AD002F58062BE
:10316800904218D002F58062904216D002F5806233
:10317800904214D002F58062904212D002F580622B
:10318800904210D002F5806290423FF43AAF082294
:103198003AE7012238E7022236E7032234E704221D
:1031A80032E7052230E706222EE703B0F0BD70476C
:1031B80000380140003C0140003802400000024055
:1031C8000AB181617047090481617047436931EA36
:1031D800030301D08161704709048161704730B4ED
:1031E80005682C6824F480242C6004686360836874
:1031F800402B05D0036899600368DA6030BC7047DB
:1032080003689A600368D960F8E7000010B403689F
:10321800D9B210390C4AA2FB014212090B4CA25C2C
:10322800C2655F2909D923F47F7323F003030433AC
:103238008365806D5DF8044B704723F47F7323F03A
:1032480003038365F5E700BFABAAAAAA24510008C7
:10325800836A826992B9012B0AD0022B02D00BB182
:1032680000207047C36A13F0807F28D10020704780
:10327800C36AB3F1C07F24D000207047B2F5005F65
:1032880009D0022B25D9032B25D1C36A13F0807FDF
:1032980023D100207047032B03D8DFE803F0140480
:1032A800140A00207047C36A13F0807F0DD10020F4
:1032B8007047C36AB3F1C07F09D00020704701206E
:1032C8007047012070470120704701207047012096
:1032D80070470120704700207047012070470000A8
:1032E80070B5044600F04EFA002C5BD0054600236A
:1032F80084F83430022384F835302268136823F0C8
:103308000103136023681A6812F0010F0AD000F055
:1033180039FA431B052BF5D920236365032084F86C
:10332800350070BD1A68204810406168A2680A43D9
:10333800E1680A4321690A4361690A43A1690A43AA
:10334800E1690A43216A0A430243616A04291ED0DB
:103358001A602668756925F00705636A1D43042B02
:1033680007D1A36A1D43E36A1BB12046FFF770FF2C
:1033780090B975612046FFF749FFE26D3F239340FE
:10338800836000206065012384F83530C9E7E16A6D
:10339800206B01430A43DBE740236365012084F87F
:1033A8003500BEE70120BCE73F8010F038B5044681
:1033B800856D90F8340001282BD0012084F8340062
:1033C80094F83500C0B2012804D0002384F83430C2
:1033D800022038BD022084F83500002060652046B0
:1033E800FFF7FDFEE26D3F239340AB602268136850
:1033F80043F016031360236C23B12268136843F06B
:10340800080313602268136843F001031360002067
:10341800DFE70220DDE790F83530DBB2022B03D07E
:103428008023436501207047052380F83530026802
:10343800136823F00103136000207047F0B583B0D0
:10344800044600230193724B1D68724BA3FB05359C
:10345800AD0A876D3E68C26D08239340334210D091
:1034680003681A6812F0040F0BD01A6822F00402DD
:103478001A60C26D08239340BB60436D43F001039B
:103488004365E26D01239340334209D022685269B3
:1034980012F0800F04D0BB60636D43F002036365D4
:1034A800E26D04239340334209D02268126812F077
:1034B800020F04D0BB60636D43F004036365E26DE3
:1034C80010239340334224D02268126812F0080F68
:1034D8001FD0BB6023681A6812F4802F0DD01B68B8
:1034E80013F4002F04D1236C9BB12046984710E0B9
:1034F800A36C73B1204698470BE01A6812F4807FDA
:1035080003D11A6822F008021A60236C0BB1204616
:103518009847E26D20239340334255D022681268C1
:1035280012F0100F50D0BB6094F83530DBB2052B89
:103538000ED023681A6812F4802F33D01B6813F456
:10354800002F2AD1636C002B3ED0204698473BE0E1
:103558002268136823F0160313602268536923F066
:1035680080035361236CA3B12268136823F0080316
:103578001360E26D3F239340BB60002384F834302E
:10358800012384F83530236D002B3FD0204698471F
:103598003CE0A36C002BE7D1EBE7E36BA3B120463B
:1035A800984711E01A6812F4807F09D11A6822F04E
:1035B80010021A60002384F83430012384F835306F
:1035C800E36B0BB120469847636DFBB1636D13F055
:1035D800010F17D0052384F835302268136823F0CB
:1035E80001031360019B01330193AB4204D82368A4
:1035F8001B6813F0010FF5D1002384F83430012340
:1036080084F83530E36C0BB12046984703B0F0BD21
:103618003C010020B5814E1B074AD36823F4E063C0
:103628001B041B0C000200F4E060034343F0BF637B
:1036380043F40033D360704700ED00E030B4174B1B
:10364800DB68C3F30223C3F10704042C28BF042456
:103658001D1D062D18D9033B4FF0FF3505FA04F45C
:1036680021EA0401994005FA03F322EA0303194306
:1036780000280BDB0901C9B200F1604000F5614088
:1036880080F8001330BC70470023E5E700F00F0016
:103698000901C9B2024B1954F4E700BF00ED00E07C
:1036A80014ED00E0002807DB00F01F0240090123A9
:1036B8009340024A42F82030704700BF00E100E022
:1036C8000138B0F1807F0AD2064B5860064AF021D3
:1036D80082F823100020986007221A6070470120A2
:1036E800704700BF10E000E000ED00E010B50446B0
:1036F8000E4B18784FF47A73B3FBF0F30C4A10684A
:10370800B0FBF3F0FFF7DCFF68B90F2C01D90120FB
:103718000AE0002221464FF0FF30FFF78FFF054BEC
:103728001C60002000E0012010BD00BF3401002013
:103738003C0100203801002008B50B4B1A6842F400
:1037480000721A601A6842F480621A601A6842F4B9
:1037580080721A600320FFF75FFF0020FFF7C6FFA3
:10376800FEF79CFA002008BD003C0240034A11689D
:10377800034B1B780B441360704700BF40200120A7
:1037880034010020014B1868704700BF4020012019
:1037980038B50446FFF7F6FF0546B4F1FF3F02D0FF
:1037A800044B1B781C44FFF7EDFF401BA042FAD3E3
:1037B80038BD00BF34010020054BD3F8882042F4FF
:1037C8007002C3F888204FF000629A60704700BF0B
:1037D80000ED00E02DE9F0410646884617461D46F3
:1037E8003468A46838EA04030CBF01240024BC42EE
:1037F80037D0B5F1FF3FF3D0FFF7C4FF069BC01ADF
:10380800A84201D2002DEBD13268536823F0E003BF
:1038180053607368B3F5827F0BD0B36AB3F5005F6A
:1038280014D0012386F85130002386F85030032045
:1038380018E0B368B3F5004F02D0B3F5806FECD150
:103848003268136823F040031360E6E732681368B0
:1038580023F4005313603268136843F40053136071
:10386800DFE70020BDE8F08130B585B00446164B8F
:103878001868164BA3FB0030400D4FF47A7505FB12
:1038880000F003906368B3F5827F0BD0039BBBB154
:10389800039B013B039323689B6813F0800FF5D1CA
:1038A80000200EE000920B46002280212046FFF700
:1038B80091FF30B1636D43F020036365032000E09E
:1038C800002005B030BD00BF3C010020819F5E167E
:1038D80010B582B004460B464168B1F5827F14D01A
:1038E8006168B1F5827F2AD1A168B1F5806F19D0DE
:1038F8000092002280212046FFF76CFF30B3636DF1
:1039080043F020036365032020E08168B1F5004F90
:1039180002D0B1F5806FE3D12068016821F0400141
:103928000160DDE70092002201212046FFF752FFE7
:1039380060B1636D43F020036365032006E00092E5
:10394800002201212046FFF745FF08B902B010BD4B
:10395800636D43F0200363650320F7E700283BD03D
:1039680010B504460023836290F85130002B2ED006
:10397800022384F851302268136823F0400313604F
:103988006368A2681343E2681343226913436269B8
:103998001343A26902F400721343E2691343226AD3
:1039A8001343A16A22680B431360638B03F004037B
:1039B800616A22680B4353602268D36923F4006369
:1039C800D36100206065012384F8513010BD80F870
:1039D8005030FEF7E3FACBE7012070472DE9F043BA
:1039E80083B01D4690F85030012B00F0C780044684
:1039F80088469146012380F85030FFF7C3FE0746FA
:103A080094F85160F6B2012E40F0A580B8F1000F8D
:103A180000F0A280B9F1000F00F09E80032384F823
:103A2800513000236365C4F83080A4F83490A4F8BA
:103A38003690A363A387E38763642364A368B3F51D
:103A4800004F1ED023681A6812F0400F03D11A687D
:103A580042F040021A60E368B3F5006F17D063685C
:103A680013B1B9F1010F4DD1226B236812781A7383
:103A7800236B01332363E38E9BB2013B9BB2E38646
:103A880040E02268136843F480431360DAE7636810
:103A980013B1B9F1010F16D1226B23681288DA60CD
:103AA800236B02332363E38E9BB2013B9BB2E38615
:103AB80009E0FFF767FEC01BA84202D3B5F1FF3F3C
:103AC80054D1002D54D0E38E9BB2002B2ED0236806
:103AD8009A6812F0020FECD0226B1288DA60236B1E
:103AE80002332363E38E9BB2013B9BB2E386EAE792
:103AF800FFF748FEC01BA84202D3B5F1FF3F39D1FA
:103B0800002D39D0E38E9BB283B123689A6812F0F6
:103B1800020FEDD0226B12781A73236B01332363E3
:103B2800E28E92B2013A92B2E286EBE73A46294631
:103B38002046FFF799FE08B120236365A36833B9CF
:103B480001932368DA6801929B680193019B636D76
:103B580013B9002600E00226012384F8513000231F
:103B680084F85030304603B0BDE8F0830326F3E70D
:103B78000326F1E70326EFE70326EDE70226F1E740
:103B88002DE9F04383B01F460A9D90F85030012B71
:103B980000F01081044688469146012380F8503091
:103BA800FFF7F0FD064694F85130DBB26268012B4E
:103BB8000AD0B2F5827F40F0E380A268002A40F084
:103BC800E980042B40F0E880B8F1000F00F0E680AF
:103BD800B9F1000F00F0E480002F00F0E38094F8C2
:103BE8005130DBB2042B02D0052384F85130002376
:103BF8006365C4F83890E787A787C4F83080E786FC
:103C0800A7862364636423681A6812F0400F03D1FF
:103C18001A6842F040021A60E368B3F5006F11D0E9
:103C280063680BB1012F0BD1226B236812781A73CA
:103C3800236B01332363E38E9BB2013B9BB2E38684
:103C480001276BE063680BB1012F0BD1226B23684E
:103C58001288DA60236B02332363E38E9BB2013B45
:103C68009BB2E38601271CE023689A6812F0010FD3
:103C78000ED0E28F92B25AB1DA68A36B1A80A36BA6
:103C88000233A363E38F9BB2013B9BB2E387012717
:103C9800FFF778FD801BA84203D3B5F1FF3F40F042
:103CA8008380E38E9BB21BB9E38F9BB2002B53D06A
:103CB80023689A6812F0020FD6D0E28E92B2002AD8
:103CC800D2D0002FD0D0226B1288DA60236B023357
:103CD8002363E38E9BB2013B9BB2E3860027C3E7D5
:103CE80023689A6812F0010F0ED0E28F92B25AB18F
:103CF800DA68A36B1A70A36B0133A363E38F9BB2DB
:103D0800013B9BB2E3870127FFF73CFD831BAB42D6
:103D180002D3B5F1FF3F49D1002D49D0E38E9BB2C4
:103D280013B9E38F9BB2BBB123689A6812F0020FF4
:103D3800D6D0E28E92B2002AD2D0002FD0D0226BF9
:103D480012781A73236B01332363E38E9BB2013B12
:103D58009BB2E3860027C3E7324629462046FFF791
:103D680083FD48B9A36863B901932368DA680192AF
:103D78009B680193019B04E020236365012000E018
:103D88000220012384F85130002384F8503003B016
:103D9800BDE8F0830220F4E70220F2E70120F0E713
:103DA8000120EEE70120ECE70320EAE70320E8E73B
:103DB8000320E6E70220EAE72DE9F04383B0044652
:103DC800884691461D464368B3F5827F36D094F8FD
:103DD8005030012B00F0A180012384F85030FFF708
:103DE800D1FC074694F85160F6B2012E40F082806B
:103DF800B8F1000F7FD0B9F1000F7CD0042384F80C
:103E0800513000236365C4F83880A4F83C90A4F8C6
:103E18003E902363A386E38623646364A368B3F5B3
:103E2800004F18D023681A6812F0400F03D11A689F
:103E380042F040021A60E368EBB13BE08368002B74
:103E4800C5D1042380F85130009513460A46FFF780
:103E580097FE064655E02268136823F480431360F2
:103E6800E0E7FFF78FFCC01BA84202D3B5F1FF3F84
:103E78004BD1002D4BD0E38F9BB2002B2ED0236863
:103E88009A6812F0010FECD0A26B1B7B1370A36B26
:103E98000133A363E38F9BB2013B9BB2E387EAE75D
:103EA800FFF770FCC01BA84202D3B5F1FF3F30D129
:103EB800002D30D0E38F9BB283B123689A6812F04B
:103EC800010FEDD0DA68A36B1A80A36B0233A363EA
:103ED800E28F92B2013A92B2E287EBE73A4629467C
:103EE8002046FFF7F5FC08B120236365636D13B91D
:103EF800002600E00226012384F85130002384F8CC
:103F08005030304603B0BDE8F0830326F3E70326BC
:103F1800F1E70326EFE70326EDE70226F1E702685B
:103F2800D36823F0C003D360202380F8393070476A
:103F38000268D36823F49073D3600268536923F04E
:103F480001035361202380F83A30704790F83930E4
:103F5800DBB2212B01D0022070478368B3F5805F64
:103F680017D0036A5A1C02621A7803685A60C38C15
:103F78009BB2013B9BB2C3844BB90268D36823F060
:103F88008003D3600268D36843F04003D360002005
:103F98007047036A1B880268C3F308035360036908
:103FA8001BB9036A02330362E1E7036A0133036260
:103FB800DDE7000070B504460268136923F4405336
:103FC800C1680B4313618368026913434269134351
:103FD800C2691A430168CB6823F4164323F00C0323
:103FE8001343CB600268536923F4407381690B4320
:103FF8005361C369B3F5004F36D00368654A9342ED
:1040080000F09A8002F58062934200F09580FEF7F6
:10401800D1FF0026051846EB06012D1846EB0101D5
:10402800CB0043EA5573EA001546194663689A00BF
:104038009B0F281846EB0101FCF700FD564DA5FB28
:1040480000325109642303FB11031B013233A5FB22
:1040580003235B0903F0F00202EB011203F00F03E4
:10406800216813448B6093E003684A4A934233D033
:1040780002F5806293422FD0FEF79CFF00260518B8
:1040880046EB06012D1846EB0101CB0043EA5573B8
:10409800EA001546194662683346921846EB030350
:1040A800281846EB0101FCF7C9FC3B4DA5FB003283
:1040B8005109642303FB1103DB003233A5FB0323FF
:1040C8005B095A0002F4F87202EB011203F00703CD
:1040D800216813448B605BE0FEF77CFF002605181F
:1040E80046EB06012D1846EB0101CB0043EA557358
:1040F800EA001546194662683346921846EB0303F0
:10410800281846EB0101FCF799FC234DA5FB00326A
:104118005109642303FB1103DB003233A5FB03239E
:104128005B095A0002F4F87202EB011203F007036C
:10413800216813448B602BE0FEF74CFF002605181E
:1041480046EB06012D1846EB0101CB0043EA5573F7
:10415800EA001546194663689A009B0F281846EB33
:104168000101FCF76BFC0C4DA5FB003251096423DF
:1041780003FB11031B013233A5FB03235B0903F087
:10418800F00202EB011203F00F03216813448B6065
:1041980070BD00BF001001401F85EB5158B310B52A
:1041A800044690F839300BB3242384F83930226858
:1041B800D36823F40053D3602046FFF7FBFE226840
:1041C800136923F4904313612268536923F02A0387
:1041D80053612268D36843F40053D3600020E0633E
:1041E800202384F8393084F83A3010BD80F838300C
:1041F800FDF7CAFFD8E70120704790F83A30DBB2E4
:10420800202B20D109B312B390F83830012B20D0DD
:1042180081628285C2850023C363222280F83A2006
:1042280080F838300168CA6842F48072CA60016850
:104238004A6942F001024A610168CA6842F02002F4
:10424800CA60184670470220704701207047012055
:10425800704702207047000038B590F83930DBB25B
:10426800202B31D10446002930D0002A30D090F8D4
:104278003830012B2ED0012380F838300162828437
:10428800C2840025C563212380F83930036B1248A6
:10429800D863236B11481864236B1148D864236BC7
:1042A8001D6520681346021D206BFFF77FF8236801
:1042B8006FF040021A6084F838502268536943F05E
:1042C80080035361284600E0022038BD0120FCE746
:1042D8000120FAE70220F8E7ED4200083943000818
:1042E800E343000808B50346806B1B681B6813F49A
:1042F800807F0CD10023C3840268536923F08003B4
:1043080053610268D36843F04003D36008BDFDF7EA
:10431800C5F9FBE708B50168CA6822F04002CA601F
:10432800202280F83920FDF7B9F9002008BD704730
:1043380008B5806BFFF7FBFF08BD08B590F83A3069
:10434800DBB2222B46D18368B3F5805F0FD00369B7
:104358000BBB03685A68836A591C81621A70C38D43
:104368009BB2013B9BB2C385F3B1002008BD826AB2
:10437800036943B903685B68C3F308031380836A5E
:1043880002338362EBE703685B68DBB21380836AFE
:1043980001338362E3E703685B68826A511C8162C8
:1043A80003F07F031370DAE70268D36823F0200371
:1043B800D3600268D36823F48073D36002685369BA
:1043C80023F001035361202380F83A30FCF7A4FF5F
:1043D8000020CBE70220C9E7704710B5846B23683B
:1043E8005A6994F83930DBB2212B10D023685A6906
:1043F80002F0400294F83A30DBB2222B11D0E36B82
:1044080043F01003E3632046FFF7E6FF10BD02F018
:104418008002002AEAD00023E3842046FFF77FFDCC
:10442800E4E7002AEBD00023E3852046FFF780FD70
:10443800E5E7000010B5044602681368D1685269C0
:1044480013F00F0005D113F0200F02D011F0200F48
:1044580013D128B112F0010213D111F4907F10D1B9
:1044680013F0800F02D011F0800F6CD113F0400FC1
:1044780002D011F0400F6AD110BD2046FFF75DFF52
:10448800FAE713F0010F06D011F4807F03D0E06B38
:1044980040F00100E06313F0040F04D01AB1E06BA0
:1044A80040F00200E06313F0020F04D01AB1E06B91
:1044B80040F00400E06313F0080F07D011F0200F5C
:1044C80000D11AB1E26B42F00802E263E26B002A03
:1044D800D2D013F0200F02D011F0200F21D1236881
:1044E8005B6903F04003E26B12F0080F00D123B3BD
:1044F8002046FFF71DFD23685A6912F0400F18D0B7
:104508005A6922F040025A61636B73B1124A1A6504
:10451800606BFEF780FF0028AED0606B036D984794
:10452800AAE72046FFF709FFD9E72046FFF754FF1F
:10453800A2E72046FFF750FF9EE72046FFF74CFF13
:104548000023E36398E72046FFF700FD94E7204641
:10455800FFF7E0FE90E700BF6545000808B5806BEF
:104568000023C385C384FFF737FF08BD70B110B5BA
:104578000446037933B1022323710020206101230B
:10458800237110BD4371FDF7D5FCF4E70120704796
:104598004379012B1FD070B40125457102230371A3
:1045A8000668336840F6FE74944023EA04040B68F6
:1045B80049680B4393402343336004682368C02150
:1045C80001FA02F223EA0202226005710023437114
:1045D800184670BC70470220704710B483B000249E
:1045E80001940068019051B901990A440832019276
:1045F800019A1360002003B05DF8044B70470199DD
:104608000A4414320192F3E74A4B5A6822F44032C2
:104618005A605A6841680A435A600268536823F42A
:104628008073536002685368016943EA0123536049
:104638000268536823F040735360026853688168C6
:104648000B4353600268936823F400639360026825
:104658009368C1680B439360826A374B9A4257D07C
:104668000268936823F07063936002689368816AB4
:104678000B4393600268936823F040539360026889
:104688009368C16A0B4393600268936823F002033E
:10469800936002689368017E43EA4103936090F84F
:1046A8002030002B3FD00268536843F40063536006
:1046B8000268536823F46043536001684B68426A98
:1046C800013A43EA42334B600268D36A23F4700329
:1046D800D3620168CB6AC269013A43EA0253CB62EA
:1046E8000268936823F4007393600268936890F8F3
:1046F800301043EA412393600268936823F480638F
:10470800936002689368416943EA81239360704724
:104718000268936823F0706393600268936823F0DB
:1047280040539360B0E70268536823F40063536012
:10473800CAE700BF002301400100000F38B310B5DD
:104748000446036C43B1236C13F0100F0BD0012007
:10475800002384F83C3010BDFDF7BCFA00236364E5
:1047680084F83C30EFE7236C23F4885323F00203EA
:1047780043F0020323642046FFF746FF00206064ED
:10478800236C23F0030343F001032364E0E70120D3
:104798007047000030B583B013460022019290F8AC
:1047A8003C20012A00F09A800546012280F83C202E
:1047B8000268906810F0010F13D1906840F0010072
:1047C80090604B4A10684B4AA2FB0020800C00EB1B
:1047D8004000019002E0019C013C019401980028EE
:1047E800F9D12A68906810F0010F79D0286C20F46C
:1047F800E06020F0010040F480702864526812F4F0
:10480800806F05D02A6C22F4405242F480522A6408
:104818002A6C12F4805F36D06A6C22F006026A6451
:10482800002285F83C20AA6B3348D063AA6B334832
:104838001064AA6B3248D0642A686FF022001060B6
:104848002868426842F0806242602868826842F4C0
:104858008072826028680A4600F14C01A86BFEF756
:10486800A5FD284B5B6813F01F0F27D12B68264A3C
:10487800934211D002F58072934207D0234A9342A3
:1048880014D000202DE000226A64C9E702F5007206
:10489800526812F01F0FF1D19A6812F0405F22D1CE
:1048A8009A6842F080429A6000201AE002F580720D
:1048B800526812F0100FEFD0002012E02B68124A55
:1048C800934201D000200CE09A6812F0405F0CD1AE
:1048D8009A6842F080429A60002002E0022000E0DC
:1048E800002003B030BD0020FBE70020F9E700BF3F
:1048F8003C01002083DE1B433D4900081B4900089A
:1049080027490008002301400020014000220140FF
:10491800704708B5806BFFF7FBFF08BD704708B507
:10492800806B40230364436C43F004034364FFF744
:10493800F5FF08BD08B50346806B026C12F0500FF6
:1049480025D1036C43F40073036403689A6812F07A
:10495800405F19D1027EBAB9DA6A12F4700F03D037
:104968009A6812F4806F0FD15A6822F020025A60B8
:10497800036C23F480730364036C13F4805F03D126
:10498800036C43F001030364FCF766FE08BD026C88
:1049980012F0100F04D1826BD26C18469047F5E7DD
:1049A800FFF7BCFFF2E7000030B482B000230193A8
:1049B80090F83C30012B00F0B780012380F83C30A0
:1049C8000B68092B3ED90568EA689BB203EB4303E1
:1049D8001E3B072404FA03F322EA0303EB6005688D
:1049E800EA688C680B8803EB43031E3B04FA03F365
:1049F8001343EB604B68062B3AD805686A6B03EBE8
:104A08008303053B1F2404FA03F322EA03036B63C1
:104A180005686A6B4B6803EB8303053B0C8804FA53
:104A280003F313436B630268404B9A4250D0026809
:104A38003E4B9A4255D0002380F83C30184602B0CD
:104A480030BC704705682A699BB203EB430307240F
:104A580004FA03F322EA03032B6105682A698C68C8
:104A68000B8803EB430304FA03F313432B61C1E7F9
:104A78000C2B16D805682A6B03EB8303233B1F24F2
:104A880004FA03F322EA03032B6305682A6B4B68D5
:104A980003EB8303233B0C8804FA03F313432B63D0
:104AA800C1E70568EA6A03EB8303413B1F2404FA64
:104AB80003F322EA0303EB620568EA6A4B6803EB37
:104AC8008303413B0C8804FA03F31343EB62AAE720
:104AD8000B68122BABD1164A536843F4800353601A
:104AE800A5E70B68103B012BA5D8114A536843F47E
:104AF800000353600B68102B9DD10E4B1B6802F10D
:104B0800467202F52E3202F28332A2FB03239B0C7B
:104B180003EB83035B00019302E0019B013B0193DC
:104B2800019B002BF9D186E7022088E7002001408D
:104B3800002301403C010020002800F0A18038B586
:104B4800044690F82030D3B12268136823F002039A
:104B58001360FEF717FE054623685A6812F0020F25
:104B680010D0FEF70FFE401B0A28F5D9636A43F4FC
:104B780000336362052384F82030012038BDFDF737
:104B880043F9E1E71A6842F001021A60FEF7FAFDFC
:104B9800054623685A6812F0010F0DD1FEF7F2FDA1
:104BA800401B0A28F5D9636A43F40033636205237E
:104BB80084F820300120E1E7227E012A3DD01A68DE
:104BC80022F080021A60637E012B3BD022681368B2
:104BD80023F040031360A37E012B39D022681368A9
:104BE80023F020031360E37E012B37D0226813687B
:104BF80043F010031360237F012B35D0226813681C
:104C080023F008031360637F012B33D022681368F5
:104C180023F004031360A368E26813432269134373
:104C2800626913436268013A21681343CB6100202B
:104C38006062012384F82030A0E71A6842F08002FD
:104C48001A60C0E72268136843F040031360C2E7A4
:104C58002268136843F020031360C4E722681368CE
:104C680023F010031360C6E72268136843F00803B3
:104C78001360C8E72268136843F004031360CAE7A7
:104C880001207047704770477047704770477047FA
:104C980070477047704770477047704770472DE9F5
:104CA800F84F054603685C69D3F804809F68D3F819
:104CB8000CB0D3F810A0D3F8189014F001063BD02C
:104CC80017F0010616D001229A6017F0020F08D1DA
:104CD80017F0040F0CD117F0080606D04FF48056D1
:104CE80008E0FFF7CFFF002604E0FFF7CEFF01E062
:104CF8004FF4006617F4807F0DD02B684FF4807254
:104D08009A6017F4007F40F0868017F4806F00F0F7
:104D1800868046F4005617F4803F0DD02B684FF478
:104D280080329A6017F4003F40F0838017F4802F98
:104D380000F0838046F4004614F0080F07D01BF0FB
:104D4800100F04D046F400762B681022DA6014F0B5
:104D5800040F02D01BF0080F79D114F0020F04D011
:104D68002B68DB6813F0030F78D114F0400F07D0DD
:104D78001AF0100F04D046F480662B6810221A61CE
:104D880014F0200F02D01AF0080F6BD114F0100F96
:104D980004D02B681B6913F0030F6AD114F4003F89
:104DA80002D018F0100F68D114F4803F02D018F028
:104DB800080F69D114F4004F7AD018F0040F74D09A
:104DC80014F4807F04D019F0010F01D046F00106D9
:104DD80014F4007F04D019F0020F01D046F0020647
:104DE80014F4806F04D019F0040F01D046F00406C3
:104DF80014F4006F59D019F0700956D0B9F1400F6A
:104E080065D058D8B9F1200F5ED0B9F1300F42D132
:104E180046F0200644E02846FFF735FF7BE717F405
:104E2800006F02D046F4804675E72846FFF72EFF4C
:104E380071E72846FFF728FF7EE717F4002F02D016
:104E480046F4803678E72846FFF721FF74E72B6899
:104E58000822DA602846FFF71CFF7EE72846FFF79E
:104E680017FF82E72B6808221A612846FFF713FF0D
:104E78008CE72846FFF70EFF90E72B6810225A6050
:104E88002846FFF709FF8FE72B6808225A60284653
:104E9800FFF703FF8EE7B9F1100F01D146F00806BE
:104EA8002A68936923F0700393612B6804225A607F
:104EB8009EB9BDE8F88FB9F1500F0BD0B9F1600F6A
:104EC800EED146F48076EBE746F01006E8E746F0C8
:104ED8004006E5E746F08006E2E76B6A1E436E622D
:104EE8002846FFF7DBFEE4E7DFF834D0002103E0D3
:104EF8000C4B5B58435004310B480C4B42189A42F8
:104F0800F6D30B4A02E0002342F8043B094B9A42CD
:104F1800F9D3FEF751FC00F011F8FCF77FF9704760
:104F2800000002205C510008000000206C050020F1
:104F38007005002068200120FEE7000070B50D4EC6
:104F48000D4D761BB61006D0002455F8043B0134ED
:104F58009847A642F9D1094E094D761B00F0D2F8C0
:104F6800B61006D0002455F8043B01349847A642F1
:104F7800F9D170BD5051000850510008585100082F
:104F880050510008F0B4860746D0541E002A3CD081
:104F9800CAB2034601E0013C37D303F8012B9D0751
:104FA800F9D1032C2AD9CDB245EA05250F2C45EABB
:104FB800054534D9A4F1100222F00F0C03F12007A3
:104FC8001609674403F1100242E9045542E9025503
:104FD8001032BA42F8D1721C14F00C0F03EB021213
:104FE80004F00F0613D0331F23F0030304331344D4
:104FF80042F8045B9342FBD106F003042CB1CAB219
:105008001C4403F8012B9C42FBD1F0BC704734468A
:105018001346002CF3D1F8E714460346C1E71A46B5
:105028002646E0E7024B13B1024800F005B8704786
:10503800000000004D500008002301461A4618469B
:1050480000F01AB838B5084B084D5B1B9C1007D008
:10505800043B1D44013C55F804399847002CF9D10C
:10506800BDE8384000F054B85C51000858510008B9
:10507800704700BF704700BF2DE9F047DFF880A0F8
:105088000646DAF8000098460F469146FFF7F0FF0B
:105098001A4B1B68D3F8484124B365681F2D26DCDA
:1050A8005EB9AB1C0135DAF80000656044F823707E
:1050B800FFF7E0FF0020BDE8F08704EB850301213E
:1050C800C3F88890D4F88821A9400A43022EC4F86E
:1050D8008821C3F80881E4D1D4F88C311943C4F885
:1050E8008C11DEE703F5A674C3F84841D5E7DAF872
:1050F8000000FFF7BFFF4FF0FF30DCE74451000826
:1051080068050020F8B500BFF8BC08BC9E4670478B
:0C511800F8B500BFF8BC08BC9E4670470C
:105124000006101600061016000000000000000023
:105134000102030406070809000000000102030439
:045144004001002006
:085148002CB9FF7F01000000FB
:085150002D500008AD0100081C
:0451580089010008C1
:10515C0000082080000820800000000000000300F0
:10516C000000000005000000000006000000000028
:10517C0010000000000011000000000012000000F0
:10518C0000001300000000001400000000001500D7
:10519C0000000000160000000000170000000000D6
:1051AC001800000000001900000000001A000000A8
:1051BC0000001B00000000001C00000000001D008F
:1051CC00000000001E00000000001F000000000096
:1051DC00F00000000000F10000000000F2000000F0
:1051EC000000F30000000000F40000000000F500D7
:1051FC0000000000F60000000000F70000000000B6
:10520C00F80000000000F90000000000FA000000A7
:10521C000000FB0000000000FC0000000000FD008E
:10522C00000000009001000000009101000000004F
:10523C0092010000000093010000000094010000A6
:10524C00000095010000000096010000000097018D
:10525C00000000009801000000009901000000000F
:10526C009A01000000009B0100000000E00100001A
:10527C000000E101000000003002000000003202DA
:10528C000000000001000000100000000024F400E9
:10529C00000000002C04002094040020FC040020DA
:1052AC0000000000000000000000000000000000F2
:1052BC0000000000000000000000000000000000E2
:1052CC0000000000000000000000000000000000D2
:1052DC0000000000000000000000000000000000C2
:1052EC0000000000000000000000000000000000B2
:1052FC0000000000000000000000000000000000A2
:10530C000000000000000000000000000000000091
:10531C000000000000000000000000000000000081
:10532C000000000000000000000000000000000071
:10533C000000000000000000010000000000000060
:10534C000E33CDAB34126DE6ECDE05000B00000025
:10535C000000000000000000000000000000000041
:10536C000000000000000000000000000000000031
:10537C000000000000000000000000000000000021
:10538C000000000000000000000000000000000011
:0C56BC000000000000000000442001205D
:0400000508004EF1B0
:00000001FF
