:020000040800F2
:1000000000000220013F0008FF1D0008011E00083B
:10001000031E0008051E0008071E0008000000005F
:10002000000000000000000000000000091E0008A1
:100030000B1E0008000000000D1E00080F1E000827
:10004000513F0008513F0008513F0008513F000850
:10005000513F0008513F0008513F0008513F000840
:10006000513F0008513F0008513F0008513F000830
:10007000513F0008513F0008513F0008513F000820
:10008000513F0008513F0008513F0008513F000810
:10009000513F0008513F0008513F0008513F000800
:1000A000513F0008513F0008513F0008513F0008F0
:1000B000513F0008513F0008513F0008513F0008E0
:1000C000513F0008513F0008513F0008513F0008D0
:1000D000513F0008513F0008191E0008513F000819
:1000E000513F0008513F0008513F0008513F0008B0
:1000F000513F0008513F0008513F0008513F0008A0
:10010000513F0008513F0008291E0008513F0008D8
:10011000513F0008513F0008513F0008513F00087F
:10012000513F0008513F0008513F0008513F00086F
:10013000513F00080000000000000000513F00088F
:10014000513F0008513F0008513F0008513F00084F
:10015000513F0008513F0008513F0008513F00083F
:10016000513F0008513F0008513F0008513F00082F
:10017000513F0008513F000800000000000000004F
:08018000513F0008513F000847
:1001C00010B5054C237833B9044B13B10448AFF391
:1001D00000800123237010BDE80A00200000000009
:1001E000489F000808B5034B1BB103490348AFF310
:1001F000008008BD00000000EC0A0020489F0008B5
:1002000001F0FF01102A2BDB10F0070F08D010F8C7
:10021000013B013A8B422DD010F0070F42B3F6D1CB
:10022000F0B441EA012141EA014122F007047FF0E4
:1002300000070023F0E80256083C85EA010586EA3B
:10024000010685FA47F5A3FA87F586FA47F6A5FA77
:1002500087F68EB9EED1F0BC01F0FF0102F0070283
:1002600032B110F8013B013A83EA010313B1F8D12E
:100270000020704701387047002D06BF354603380F
:10028000073815F0010F07D1013015F4807F02BF48
:10029000013015F4C03F0130F0BC0138704700BF99
:1002A000844641EA000313F003036DD1403A41D381
:1002B00051F8043B40F8043B51F8043B40F8043B40
:1002C00051F8043B40F8043B51F8043B40F8043B30
:1002D00051F8043B40F8043B51F8043B40F8043B20
:1002E00051F8043B40F8043B51F8043B40F8043B10
:1002F00051F8043B40F8043B51F8043B40F8043B00
:1003000051F8043B40F8043B51F8043B40F8043BEF
:1003100051F8043B40F8043B51F8043B40F8043BDF
:1003200051F8043B40F8043B51F8043B40F8043BCF
:10033000403ABDD2303211D351F8043B40F8043B6F
:1003400051F8043B40F8043B51F8043B40F8043BAF
:1003500051F8043B40F8043B103AEDD20C3205D37F
:1003600051F8043B40F8043B043AF9D2043208D077
:10037000D2071CBF11F8013B00F8013B01D30B88E9
:1003800003806046704700BF082A13D38B078DD0C7
:1003900010F003038AD0C3F10403D21ADB071CBF99
:1003A00011F8013B00F8013B80D331F8023B20F803
:1003B000023B7BE7043AD9D3013A11F8013B00F83C
:1003C000013BF9D20B7803704B7843708B788370C4
:1003D00060467047000000000000000000000000C0
:1003E000000000000000000000000000000000000D
:1003F00000000000000000000000000000000000FD
:1004000090F800F06DE9024520F007016FF0000C54
:1004100010F0070491F820F040F049804FF00004FC
:100420006FF00700D1E9002391F840F000F10800D7
:1004300082FA4CF2A4FA8CF283FA4CF3A2FA8CF30F
:100440004BBBD1E9022382FA4CF200F10800A4FA76
:100450008CF283FA4CF3A2FA8CF3E3B9D1E90423CA
:1004600082FA4CF200F10800A4FA8CF283FA4CF301
:10047000A2FA8CF37BB9D1E9062301F1200182FABB
:100480004CF200F10800A4FA8CF283FA4CF3A2FAC1
:100490008CF3002BC6D0002A04BF04301A4612BACF
:1004A000B2FA82F2FDE8024500EBD2007047D1E9D2
:1004B000002304F00305C4F100004FEAC50514F061
:1004C000040F91F840F00CFA05F562EA05021CBF32
:1004D00063EA050362464FF00004A9E781F000419A
:1004E00002E000BF83F0004330B54FEA41044FEA19
:1004F000430594EA050F08BF90EA020F1FBF54EAB4
:10050000000C55EA020C7FEA645C7FEA655C00F04F
:10051000E2804FEA5454D4EB5555B8BF6D420CDD20
:100520002C4480EA020281EA030382EA000083EAA3
:10053000010180EA020281EA0303362D88BF30BD43
:1005400011F0004F4FEA01314FF4801C4CEA113199
:1005500002D0404261EB410113F0004F4FEA0333F8
:100560004CEA133302D0524263EB430394EA050F83
:1005700000F0A780A4F10104D5F1200E0DDB02FAF2
:100580000EFC22FA05F2801841F1000103FA0EF286
:10059000801843FA05F359410EE0A5F120050EF14C
:1005A000200E012A03FA0EFC28BF4CF0020C43FA7D
:1005B00005F3C01851EBE37101F0004507D54FF08A
:1005C000000EDCF1000C7EEB00006EEB0101B1F5DA
:1005D000801F1BD3B1F5001F0CD349085FEA300020
:1005E0004FEA3C0C04F101044FEA445212F5800F2B
:1005F00080F09A80BCF1004F08BF5FEA500C50F1C8
:10060000000041EB045141EA050130BD5FEA4C0CAA
:10061000404141EB0101013C28BFB1F5801FE9D207
:1006200091F0000F04BF01460020B1FA81F308BF2A
:100630002033A3F10B03B3F120020CDA0C3208DDF6
:1006400002F1140CC2F10C0201FA0CF021FA02F1D1
:100650000CE002F11402D8BFC2F1200C01FA02F141
:1006600020FA0CFCDCBF41EA0C019040E41AA2BF66
:1006700001EB0451294330BD6FEA04041F3C1CDA2E
:100680000C340EDC04F11404C4F1200220FA04F04E
:1006900001FA02F340EA030021FA04F345EA0301F8
:1006A00030BDC4F10C04C4F1200220FA02F001FABA
:1006B00004F340EA0300294630BD21FA04F029463C
:1006C00030BD94F0000F83F4801306BF81F48011D5
:1006D0000134013D4EE77FEA645C18BF7FEA655C48
:1006E00029D094EA050F08BF90EA020F05D054EA1A
:1006F000000C04BF1946104630BD91EA030F1EBF1F
:100700000021002030BD5FEA545C05D14000494122
:1007100028BF41F0004130BD14F580043CBF01F515
:10072000801130BD01F0004545F0FE4141F47001FB
:100730004FF0000030BD7FEA645C1ABF19461046D6
:100740007FEA655C1CBF0B46024650EA013406BFD7
:1007500052EA033591EA030F41F4002130BD00BF96
:1007600090F0000F04BF0021704730B54FF4806453
:1007700004F132044FF000054FF0000150E700BFD4
:1007800090F0000F04BF0021704730B54FF4806433
:1007900004F1320410F0004548BF40424FF0000120
:1007A0003EE700BF42004FEAE2014FEA31014FEA63
:1007B00002701FBF12F07F4393F07F4F81F06051B2
:1007C000704732F07F4208BF704793F07F4F04BFFD
:1007D00041F40021704730B54FF4607401F00045DA
:1007E00021F000411CE700BF50EA010208BF70473A
:1007F00030B54FF000050AE050EA010208BF70472B
:1008000030B511F0004502D5404261EB41014FF493
:10081000806404F132045FEA915C3FF4D8AE4FF09B
:1008200003025FEADC0C18BF03325FEADC0C18BF7E
:10083000033202EBDC02C2F1200300FA03FC20FACF
:1008400002F001FA03FE40EA0E0021FA02F114441C
:10085000BDE600BF70B54FF0FF0C4CF4E06C1CEA35
:1008600011541DBF1CEA135594EA0C0F95EA0C0FA6
:1008700000F0DEF82C4481EA030621EA4C5123EA19
:100880004C5350EA013518BF52EA033541F4801148
:1008900043F4801338D0A0FB02CE4FF00005E1FBFB
:1008A00002E506F00042E0FB03E54FF00006E1FB45
:1008B00003569CF0000F18BF4EF0010EA4F1FF0488
:1008C000B6F5007F64F5407404D25FEA4E0E6D41C8
:1008D00046EB060642EAC62141EA55514FEAC520D9
:1008E00040EA5E504FEACE2EB4F1FD0C88BFBCF555
:1008F000E06F1ED8BEF1004F08BF5FEA500E50F106
:10090000000041EB045170BD06F0004646EA0101CB
:1009100040EA020081EA0301B4EB5C04C2BFD4EBFD
:100920000C0541EA045170BD41F480114FF0000EF6
:10093000013C00F3AB8014F1360FDEBF002001F064
:10094000004170BDC4F10004203C35DA0C341BDCDE
:1009500004F11404C4F1200500FA05F320FA04F0B0
:1009600001FA05F240EA020001F0004221F00041E4
:1009700010EBD37021FA04F642EB06015EEA430E57
:1009800008BF20EAD37070BDC4F10C04C4F1200587
:1009900000FA04F320FA05F001FA04F240EA02003A
:1009A00001F0004110EBD37041F100015EEA430E0B
:1009B00008BF20EAD37070BDC4F1200500FA05F22B
:1009C0004EEA020E20FA04F301FA05F243EA0203AA
:1009D00021FA04F001F0004121FA04F220EA0200B9
:1009E00000EBD3705EEA430E08BF20EAD37070BDFF
:1009F00094F0000F0FD101F00046400041EB0101DF
:100A000011F4801F08BF013CF7D041EA060195F0C0
:100A1000000F18BF704703F00046520043EB03037A
:100A200013F4801F08BF013DF7D043EA0603704767
:100A300094EA0C0F0CEA135518BF95EA0C0F0CD072
:100A400050EA410618BF52EA4306D1D181EA0301B8
:100A500001F000414FF0000070BD50EA410606BFB2
:100A60001046194652EA430619D094EA0C0F02D1F7
:100A700050EA013613D195EA0C0F05D152EA03363C
:100A80001CBF104619460AD181EA030101F000415A
:100A900041F0FE4141F470014FF0000070BD41F0A3
:100AA000FE4141F4780170BD70B54FF0FF0C4CF47D
:100AB000E06C1CEA11541DBF1CEA135594EA0C0F9C
:100AC00095EA0C0F00F0A7F8A4EB050481EA030EE9
:100AD00052EA03354FEA013100F088804FEA0333D0
:100AE0004FF0805545EA131343EA12634FEA02229E
:100AF00045EA111545EA10654FEA00260EF000415F
:100B00009D4208BF964244F1FD0404F5407402D2B0
:100B10005B084FEA3202B61A65EB03055B084FEA41
:100B200032024FF480104FF4002CB6EB020E75EB3E
:100B3000030E22BFB61A754640EA0C005B084FEA66
:100B40003202B6EB020E75EB030E22BFB61A7546E3
:100B500040EA5C005B084FEA3202B6EB020E75EB2E
:100B6000030E22BFB61A754640EA9C005B084FEAA6
:100B70003202B6EB020E75EB030E22BFB61A7546B3
:100B800040EADC0055EA060E18D04FEA051545EAA2
:100B900016754FEA06164FEAC30343EA52734FEA4B
:100BA000C2025FEA1C1CC0D111F4801F0BD141EAC4
:100BB00000014FF000004FF0004CB6E711F4801F29
:100BC00004BF01430020B4F1FD0C88BFBCF5E06F09
:100BD0003FF6AFAEB5EB030C04BFB6EB020C5FEA19
:100BE000500C50F1000041EB045170BD0EF0004E6E
:100BF0004EEA113114EB5C04C2BFD4EB0C0541EAA0
:100C0000045170BD41F480114FF0000E013C90E69C
:100C100045EA060E8DE60CEA135594EA0C0F08BF60
:100C200095EA0C0F3FF43BAF94EA0C0F0AD150EA5F
:100C300001347FF434AF95EA0C0F7FF425AF1046F2
:100C400019462CE795EA0C0F06D152EA03353FF41A
:100C5000FDAE1046194622E750EA410618BF52EA97
:100C600043067FF4C5AE50EA41047FF40DAF52EA6B
:100C700043057FF4EBAE12E74FF0FF3C06E000BF08
:100C80004FF0010C02E000BF4FF0010C4DF804CD15
:100C90004FEA410C7FEA6C5C4FEA430C18BF7FEAD5
:100CA0006C5C1BD001B050EA410C0CBF52EA430C03
:100CB00091EA030F02BF90EA020F0020704710F183
:100CC000000F91EA030F58BF994208BF90422CBF12
:100CD000D8176FEAE37040F0010070474FEA410C0B
:100CE0007FEA6C5C02D150EA013C07D14FEA430C29
:100CF0007FEA6C5CD6D152EA033CD3D05DF8040B9A
:100D0000704700BF8446104662468C4619466346CB
:100D100000E000BF01B5FFF7B7FF002848BF10F1A2
:100D2000000F01BD4DF808EDFFF7F4FF0CBF0120E7
:100D300000205DF808FB00BF4DF808EDFFF7EAFF63
:100D400034BF012000205DF808FB00BF4DF808ED1E
:100D5000FFF7E0FF94BF012000205DF808FB00BF13
:100D60004DF808EDFFF7CEFF94BF012000205DF89D
:100D700008FB00BF4DF808EDFFF7C4FF34BF0120AA
:100D800000205DF808FB00BF4FEA410C7FEA6C5C75
:100D900002D150EA013C0AD14FEA430C7FEA6C5C75
:100DA00002D152EA033C02D14FF0000070474FF0ED
:100DB000010070474FEA410212F5001215D211D519
:100DC0006FF47873B3EB625212D94FEAC12343F048
:100DD000004343EA505311F0004F23FA02F018BFCA
:100DE000404270474FF00000704750EA013005D193
:100DF00011F0004008BF6FF0004070474FF0000056
:100E0000704700BF4A0011D212F5001211D20DD561
:100E10006FF47873B3EB62520ED44FEAC12343F000
:100E2000004343EA505323FA02F070474FF00000AA
:100E3000704750EA013002D14FF0FF3070474FF059
:100E4000000070474FEA4102B2F1E04324BFB3F51E
:100E5000001CDCF1FE5C0DD901F0004C4FEAC00231
:100E60004CEA5070B2F1004F40EB830008BF20F015
:100E70000100704711F0804F21D113F13872BCBFCF
:100E800001F00040704741F480114FEA5252C2F124
:100E90001802C2F1200C10FA0CF320FA02F018BF6D
:100EA00040F001004FEAC1234FEAD32303FA0CFCC0
:100EB00040EA0C0023FA02F34FEA4303CCE77FEA4F
:100EC000625307D150EA01331EBF4FF0FE4040F499
:100ED0004000704701F0004040F0FE4040F4000048
:100EE000704700BF53B94AB9002908BF00281CBF8A
:100EF0004FF0FF314FF0FF3000F06EB9ADF1080C4C
:100F00006DE904CE00F006F8DDF804E0DDE9022327
:100F100004B070472DE9F047089D04468C46002B2D
:100F200040F083808A42174647D9B2FA82F242B132
:100F3000C2F1200024FA00F09140974040EA010CF1
:100F400094404FEA1748230CBCFBF8F61FFA87FEC3
:100F500008FB16C143EA014306FB0EF1994209D989
:100F6000FB1806F1FF3080F01981994240F216819A
:100F7000023E3B445B1AA4B2B3FBF8F008FB10330B
:100F800044EA034400FB0EFEA64509D93C1900F1D2
:100F9000FF3380F00581A64540F2028102383C44CF
:100FA00040EA0640A4EB0E0400261DB1D440002305
:100FB000C5E900433146BDE8F08702B9FFDEB2FA69
:100FC00082F2002A50D1CB1B4FEA174E1FFA87F846
:100FD0000126B3FBFEFC210C0EFB1C3341EA03414E
:100FE00008FB0CF38B4207D979180CF1FF3002D2C1
:100FF0008B4200F2E9808446C91AA3B2B1FBFEF02D
:101000000EFB101143EA014408FB00F8A04507D984
:101010003C1900F1FF3302D2A04500F2D9801846F6
:10102000A4EB080440EA0C40BFE78B4209D9002D2D
:1010300000F0B1800026C5E9000130463146BDE828
:10104000F087B3FA83F6002E4AD18B4202D3824254
:1010500000F2B880841A61EB030101208C46002D58
:10106000A8D0C5E9004CA5E7C2F1200320FA03F699
:10107000974001FA02F04FEA174ED9403043030C73
:10108000B1FBFEF61FFA87F80EFB161143EA014387
:1010900006FB08F1994204FA02F409D9FB1806F19B
:1010A000FF3C80F08D80994240F28A80023E3B44B2
:1010B0005B1A81B2B3FBFEF00EFB103341EA034131
:1010C00000FB08F38B4207D9791800F1FF3C73D27B
:1010D0008B4271D902383944CB1A40EA064678E788
:1010E000C6F1200C03FA06F422FA0CF31C4320FA92
:1010F0000CF701FA06F34FEA144E21FA0CF11F43E4
:101100003B0CB1FBFEF91FFA84F80EFB191143EA00
:10111000014109FB08FA8A4502FA06F200FA06F3D1
:1011200008D9611809F1FF3048D28A4546D9A9F19A
:1011300002092144A1EB0A01BFB2B1FBFEF00EFB94
:10114000101147EA014700FB08F8B84507D9E7192D
:1011500000F1FF312ED2B8452CD90238274440EA9D
:101160000940A7EB0807A0FB02894F45C646494640
:101170001AD317D05DB1B3EB0E0267EB010707FA84
:101180000CFCF2404CEA0202F740C5E900270026B9
:101190003146BDE8F0872E4628460BE70646E9E6CD
:1011A0001846FDE64345E5D2B8EB020E69EB0401B3
:1011B0000138DFE70846D2E760468DE78146B9E7A8
:1011C000664675E730464AE7ACF1020C394413E74E
:1011D00002383C4424E700BF704700BF30B58BB0F5
:1011E00000240594069407940894099401941E4BD6
:1011F0001A6B42F080021A631A6B02F080020192AD
:10120000019A02941A6B42F001021A631A6B02F0FF
:1012100001020292029A03941A6B42F004021A63CA
:101220001A6B02F004020392039A04941A6B42F0C0
:1012300002021A631B6B03F002030493049B0B4D21
:10124000224641F61001284601F0FEFD41F610034A
:101250000593012306930794089405A9284601F0F5
:101260000DFD0BB030BD00BF003802400008024049
:1012700008B50D480D4B03604FF4827343600023A3
:1012800083604FF40062C260036143614FF40072F7
:1012900082613022C2610362436283620A23C362B5
:1012A00001F096FF08BD00BF200C00200030014077
:1012B00008B50848084B03604FF4E133436000234E
:1012C0008360C36003610C2242618361C36102F0E9
:1012D000C9FB08BD780C00200044004030B583B045
:1012E000002400940194074D074B2B60284602F020
:1012F00081FD0094019422466946284602F0C3FD10
:1013000003B030BDCC0B00200074004030B589B074
:101310000024039404940594069407940194029481
:101320000F4D104B2B606C60AC604FF6FF73EB60A1
:101330002C61AC61284601F025F807230393602354
:1013400004930594079403A9284601F0F5F8019445
:10135000029401A9284601F019F909B030BD00BF77
:101360004C0B00200008004030B589B000240394E5
:101370000494059406940794019402940F4D104B25
:101380002B606C60AC604FF6FF73EB602C616C619E
:10139000AC61284600F0F6FF072303936023049313
:1013A0000594079403A9284601F0C6F80194029415
:1013B00001A9284601F0EAF809B030BDE00B002091
:1013C0000000014030B587B00024029403940494D7
:1013D0000594009401940E4D0E4B2B606C60AC6034
:1013E0004FF08063EB602C61AC61284600F0CAFFCF
:1013F0004FF48053029302A9284600F0E9FF0094BD
:1014000001946946284601F0C1F807B030BD00BF1D
:101410008C0B0020000C004070B594B030220021ED
:1014200008A802F0BBFD00240394049405940694DC
:10143000079401941B4B1A6C42F080521A641B6C87
:1014400003F080530193019B0294174B1A6842F4F6
:1014500080421A601B6803F480430293029B0123BD
:1014600008934FF48033099302260E964FF48003BD
:101470000F9304251095802311931296139508A8B5
:1014800001F0CAF80F230393049605944FF4A05378
:1014900006934FF480530793294603A801F018FBE5
:1014A00014B070BD003802400070004008B501F073
:1014B0007DFDFFF7B1FFFFF791FEFFF7D9FEFFF7C4
:1014C000F7FEFFF70BFFFFF721FFFFF74DFFFFF7D9
:1014D00079FF00F021F8FCE710B514464FF0FF3318
:1014E00092B2024802F0EDFA204610BD780C0020BE
:1014F00008B5054800F011FE044800F00EFE04484F
:1015000000F00BFE08BD00BF8C0B00204C0B002030
:10151000E00B002000000000F8B500244A4B1C60DE
:101520004A4B1C604A4B1C604A4D2C604A4B1C6065
:101530004A4B1C604A4F4B4B3B604B4E214630465A
:1015400002F06AFC3868FFF72DF93DA3D3E90023C8
:10155000FFF7AAFA0022454BFFF77CF9FFF752FC90
:10156000034622462146304602F0B2FC01224049A1
:10157000404802F017FB00F021FCFFF7B9FF3E4C9A
:101580002368013323603D4E4FF40061304601F083
:1015900061FC032001F036FD4FF48051304601F02C
:1015A00059FC4FF4967001F02DFD00F023FC2468E7
:1015B00007EE904AB8EE677A314BD3ED007A67EECA
:1015C000277A17EE900AFFF7EDF802460B46214600
:1015D0002C4802F033FD2C4B2C4A9B1A9B102B609D
:1015E0001FE01F4B2A4A1A601D4B1868FFF7DAF8F4
:1015F00013A3D3E90023FFF757FA00221B4BFFF791
:1016000029F9FFF7FFFB034600221146164802F0B6
:101610005FFC642001F0F6FC4FF48051174801F0A4
:1016200019FC0F4B93ED007AF7EE007AB4EEE77AEF
:10163000F1EE10FAD5DD00221A60D5E7AFF3008095
:101640006666666666660A40DC0F0020B80C0020FD
:10165000741100200C0B002080110020701100205C
:10166000781100203333D33FCC0B00200000B04072
:101670007C110020780C0020100B00200008024094
:1016800000000020609F000884110020BC0C002096
:10169000333353400368104A934203D00F4A9342B6
:1016A00011D07047037F012B07D0022BF9D10C4BCF
:1016B000B3F8C0200B4B1A6070470B4AB2F8C01049
:1016C0000A4A1160F1E7037F082BEAD1064BB3F811
:1016D000C020064B1A60E4E700080040000001400B
:1016E000BC0C0020080B002084110020040B0020FB
:1016F00008B50C4B834200D008BD0B4B5B6A0B4A0C
:1017000013600B4A526A0B490A609B1A0A4A13601B
:101710000A4B01221A604FF40061094801F09AFB5C
:10172000EAE700BF8C0B002000080040B80C002046
:1017300000000140741100200C0B0020DC0F002081
:101740000008024000000000514B834200D0704767
:1017500010B5504B1B78752B0BD0642B29D0722BF6
:1017600047D0782B65D001224A49494802F01AFA3D
:1017700010BD494C2068FFF715F83FA3D3E90023BB
:10178000FEF7B2FEFFF75EFB2060FFF70BF83CA30D
:10179000D3E90023FFF788F90022404BFFF75AF8FE
:1017A000FFF730FB0346002211463D4802F090FB54
:1017B000D9E7394C2068FEF7F5FF2FA3D3E90023C2
:1017C000FEF790FEFFF73EFB2060FEF7EBFF2CA339
:1017D000D3E90023FFF768F90022304BFFF73AF80E
:1017E000FFF710FB0346002211462D4802F070FB64
:1017F000B9E7294C2068FEF7D5FF23A3D3E90023DE
:10180000FEF772FEFFF71EFB2060FEF7CBFF1CA366
:10181000D3E90023FFF748F90022204BFFF71AF81D
:10182000FFF7F0FA0346002211461D4802F050FB74
:1018300099E7194C2068FEF7B5FF13A3D3E90023FD
:10184000FEF750FEFFF7FEFA2060FEF7ABFF0CA399
:10185000D3E90023FFF728F90022104BFEF7FAFF27
:10186000FFF7D0FA0346002211460D4802F030FB84
:1018700079E700BFAFF300809A9999999999B93F98
:101880006666666666660A407B14AE47E17A843F08
:10189000780C00207C110020781100200000B0405E
:1018A000CC0B002008B501221021024801F0CCFA2F
:1018B00008BD00BF0008024030B583B0ADF8060097
:1018C000ADF80410022001F09DFB124C0022102103
:1018D000204601F0B9FA032001F094FB0E4D642379
:1018E00001220DF10601284601F0B2FC6423012219
:1018F00001A9284601F0ACFC032001F083FB012282
:101900001021204601F0A0FA022001F07BFB03B079
:1019100030BD00BF00080240200C002070B582B02E
:101920000C46ADF80600022001F06CFB114D0022C0
:101930001021284601F088FA012001F063FB0E4EC9
:10194000642301220DF10601304601F081FC64237D
:1019500001222146304601F069FE012001F052FBD0
:1019600001221021284601F06FFA022001F04AFB03
:1019700002B070BD00080240200C002070B582B09B
:101980000646002400E00134312C14DC0B4B04EB40
:10199000440203EB420533F812000DF1060140F456
:1019A0002040FFF7BBFFBDF806301B0A6B80012EFD
:1019B000E9D1AB80E7E702B070BD00BF04000020B2
:1019C00010B5084CB4F826014FF4807140F4005073
:1019D000FFF772FFB4F82601002140F40050FFF732
:1019E0006BFF10BD0400002010B5134C208840F29E
:1019F000022140F40050FFF75FFF20884AF2A00167
:101A000040F40050FFF758FFB4F82601002140F4DD
:101A10000050FFF751FFB4F826014FF4807140F4F5
:101A20000050FFF749FFB4F82601002140F40050B0
:101A3000FFF742FF10BD00BF0400002008B50146BB
:101A4000034B588A40F40050FFF736FF08BD00BF33
:101A50000400002070B582B0D04BB3F81E2142F0D4
:101A6000010222F0020292B2EE21A3F8B210A3F812
:101A70007C100021A3F8D010B3F8D64044F08004C5
:101A8000A3F8D640A3F80611B3F80C4144F0800443
:101A9000A3F80C41A3F81811998300283AD1BF4B41
:101AA00004219983BD4DAB8B03F07F03AB830024EE
:101AB0002C8501266E846C87AE86EC850823A5F8FC
:101AC00040300423A5F84630A5F86A308623A5F8EF
:101AD0004C300220A5F864001623A5F8703002F0FF
:101AE000FD02A5F81E2101F08DFA22461021AC4816
:101AF00001F0AAF9032001F085FAB5F8723043F439
:101B0000C043ADF804306423324601A9A54801F072
:101B10009FFB27E0012805D00228C3D19F4B0C2151
:101B20009983BFE79D4B08219983BBE7032001F010
:101B300069FA04EB44019C4BA3EB810290886FF09F
:101B40000502A2EB81021344B3F9043043EA0023F7
:101B5000ADF80630642301220DF10601914801F031
:101B600077FB0134072CE1DD032001F04BFA8C4CAC
:101B700001221021204601F067F9022001F042FA0B
:101B8000022001F03FFA00221021204601F05CF90A
:101B9000032001F037FA814BB3F8C63043F4C04359
:101BA000ADF804306423012201A97E4801F050FB06
:101BB00000241BE0032001F025FA04EB44017B4BD9
:101BC000A3EB810290886FF00502A2EB810213441F
:101BD000B3F9043043EA0023ADF806306423012250
:101BE0000DF106016F4801F033FB0134062CE1DDF5
:101BF000032001F007FA6A4C01221021204601F06F
:101C000023F9022001F0FEF9022001F0FBF9002285
:101C10001021204601F018F9032001F0F3F95F4B81
:101C2000B3F80E3143F4C043ADF80430642301220D
:101C300001A95C4801F00CFB0024052C1CDC0320EE
:101C400001F0E0F904EB4401594BA3EB81029088C9
:101C50006FF00502A2EB81021344B3F9043043EAAA
:101C60000023ADF80630642301220DF106014D4832
:101C700001F0EEFA0134E0E7032001F0C3F9484C2B
:101C800001221021204601F0DFF8022001F0BAF90C
:101C9000022001F0B7F900221021204601F0D4F80B
:101CA000032001F0AFF93D4BB3F81A3143F4C043C0
:101CB000ADF804306423012201A93A4801F0C8FAC2
:101CC0000024002C1CDC032001F09CF904EB4401EF
:101CD000384BA3EB810290886FF00502A2EB8102E2
:101CE0001344B3F9043043EA0023ADF8063064230B
:101CF00001220DF106012B4801F0AAFA0134E0E7B8
:101D0000032001F07FF9264C01221021204601F02A
:101D10009BF8022001F076F9022001F073F900220D
:101D20001021204601F090F8032001F06BF91B4BC5
:101D3000B3F8203143F4C043ADF8043064230122EA
:101D400001A9184801F084FA0024002C0EDD0320BC
:101D500001F058F901221021114801F075F8022014
:101D600001F050F9FFF72CFE02B070BD032001F026
:101D700049F904EB4402104BA3EB42039A88B3F9F0
:101D8000043043EA0223ADF80630642301220DF14A
:101D90000601044801F05CFA0134D6E70400002093
:101DA00000080240200C002076000020CA0000201D
:101DB000120100201E0100202401002008B5FFF7B9
:101DC00071FDFFF711FE4EF69030FFF737FE012050
:101DD000FFF7D4FD1E2001F015F90220FFF73AFEAF
:101DE0001E2001F00FF90020FFF7C8FD1E2001F0B2
:101DF00009F908BD08B50020FFF7C0FD08BD704710
:101E0000FEE7FEE7FEE7FEE770477047704708B55C
:101E100001F0E6F808BD000008B5024801F04EFFE9
:101E200008BD00BF780C002008B5024800F089F911
:101E300008BD00BF8C0B002082B0002100910B4B2D
:101E40005A6C42F480425A645A6C02F48042009206
:101E5000009A01911A6C42F080521A641B6C03F0D4
:101E600080530193019B02B0704700BF00380240CD
:101E700000B589B000230393049305930693079359
:101E80000268134B9A4202D009B05DF804FB0022AD
:101E9000019203F5E233196C41F000511964196C99
:101EA00001F00051019101990292196B41F0010179
:101EB00019631B6B03F001030293029B102303932E
:101EC00003230493059203A9024800F0D7FEDBE741
:101ED000007400400000024000B589B00023039365
:101EE00004930593069307930268154B9A4202D018
:101EF00009B05DF804FB0022019203F58433596CAC
:101F000041F480515964596C01F480510191019957
:101F10000292196B41F0010119631B6B03F001037D
:101F20000293029BE023039302230493059203236D
:101F300006930523079303A9024800F09FFED7E705
:101F4000003001400000024000B58BB00023059333
:101F500006930793089309930368334A934208D082
:101F6000324A934229D0324A934248D00BB05DF8AE
:101F700004FB002200922F4B596C41F0010159647F
:101F8000596C01F00101009100990192196B41F027
:101F9000010119631B6B03F001030193019B4FF4D3
:101FA0000073059302230693079208920123099375
:101FB00005A9214800F062FED8E7002202921D4BDD
:101FC000196C41F004011964196C01F004010291CB
:101FD00002990392196B41F0020119631B6B03F024
:101FE00002030393039B8023059302230693079226
:101FF0000892099305A9114800F040FEB6E70021B8
:1020000004910C4B1A6C42F008021A641B6C03F02A
:1020100008030493049B0A46322000F049FF322053
:1020200000F07AFFA2E700BF000001400008004076
:10203000000C004000380240000002400004024052
:1020400010B588B000230393049305930693079378
:102050000268194B9A4201D008B010BD00240194C7
:1020600003F5FA331A6C42F400321A641A6C02F463
:1020700000320192019A02941A6B42F001021A6333
:102080001B6B03F001030293029B0C2303930223B7
:1020900004930594032306930723079303A9074892
:1020A00000F0ECFD22462146262000F001FF26200C
:1020B00000F032FFD0E700BF0044004000000240C3
:1020C00030B4036A056A25F001050562846924F0CD
:1020D000F00444EA021423F00A030B438461036210
:1020E00030BC704730B4056A25F01005056284697C
:1020F000036A24F4704444EA023423F0A00343EA60
:1021000001138461036230BC7047836823F070035D
:102110000B4343F00703836070470268D36843F0C2
:102120000103D3600268936803F00703062B03D012
:10213000136843F001031360002070477047704735
:10214000704710B5044603681A6912F0020F11D0E7
:10215000DA6812F0020F0DD06FF002021A6101234B
:10216000037703689B6913F0030F70D0FFF792FAAF
:102170000023237723681A6912F0040F12D0DA685B
:1021800012F0040F0ED06FF004021A6102232377BD
:1021900023689B6913F4407F5FD02046FFF77AFAEB
:1021A0000023237723681A6912F0080F12D0DA6827
:1021B00012F0080F0ED06FF008021A610423237783
:1021C0002368DB6913F0030F4ED02046FFF762FA55
:1021D0000023237723681A6912F0100F12D0DA68EF
:1021E00012F0100F0ED06FF010021A61082323773F
:1021F0002368DB6913F4407F3DD02046FFF74AFA9D
:102200000023237723681A6912F0010F03D0DA68DC
:1022100012F0010F36D123681A6912F0800F03D033
:10222000DA6812F0800F34D123681A6912F0400F77
:1022300003D0DA6812F0400F32D123681A6912F025
:10224000200F03D0DA6812F0200F30D110BDFFF755
:1022500075FF2046FFF773FF8AE72046FFF76EFF02
:102260002046FFF76CFF9BE72046FFF767FF2046FD
:10227000FFF765FFACE72046FFF760FF2046FFF75A
:102280005EFFBDE76FF001021A612046FFF730FAEA
:10229000C1E76FF080021A61204600F0BCF9C3E785
:1022A0006FF040021A612046FFF74AFFC5E76FF062
:1022B00020021A61204600F0ADF9C7E70368304AF2
:1022C000904212D0B0F1804F0FD0A2F57C429042E4
:1022D0000BD002F58062904207D002F580629042F6
:1022E00003D002F57842904203D123F070034A688C
:1022F0001343234A90422AD0B0F1804F27D0A2F551
:102300007C42904223D002F5806290421FD002F5B9
:10231000806290421BD002F57842904217D002F5BD
:102320007052904213D002F5806290420FD002F5B5
:10233000806290420BD0A2F59832904207D002F50D
:102340008062904203D002F58062904203D123F470
:102350004073CA68134323F080034A691343036040
:102360008B68C3620B688362054B984203D003F508
:102370008063984201D10B69036301234361704775
:1023800000000140B0B110B5044690F83D3063B193
:10239000022384F83D30214651F8040BFFF78EFFED
:1023A000012384F83D30002010BD80F83C30FFF759
:1023B000CBFDEDE70120704710B4846824F47F441E
:1023C00042EA03220A43224382605DF8044B7047CD
:1023D00090F83C30012B66D010B50446012380F8FC
:1023E0003C30022380F83D300268936823F47F4339
:1023F00023F0770393600B68602B40D022D8402BEA
:1024000047D00BD9502B0ED1CA6849680068FFF736
:1024100057FE50212068FFF778FE04E0202B0CD0F7
:1024200008D9302B09D0012384F83D30002084F8EE
:102430003C0010BD0BB1102BF5D119462068FFF7F9
:1024400064FEF0E7702B0ED0B3F5005FEBD1CB68E4
:102450004A6889680068FFF7AFFF2268936843F411
:1024600080439360DFE7CB684A6889680068FFF7BC
:10247000A3FF2268936843F077039360D3E7CA68A9
:1024800049680068FFF72EFE60212068FFF73DFED7
:10249000C9E7CA6849680068FFF712FE4021206852
:1024A000FFF733FEBFE70220704710B50468A2684B
:1024B00022F070024B68134323F007030A681343AA
:1024C000A3604B68602B2CD00CD8402B14D0502B21
:1024D00006D10A6989680068FFF7F2FD002028E04C
:1024E000002026E0702B23D10B698A68C968006838
:1024F000FFF762FF00201CE00B68052B1AD0036871
:102500001C6A1A6A22F001021A620268936923F0B7
:10251000F003096943EA0113936103681C62002018
:1025200007E00A6989680068FFF7DCFD002000E029
:10253000002010BD0120FCE790F83C30012B22D098
:1025400010B50446012380F83C30022380F83D306A
:10255000FFF7ABFF80B92268D36823F04003D36054
:102560002268D36823F48043D360012384F83D308C
:10257000002384F83C3010BD012084F83D00002386
:1025800084F83C30F7E702207047000090F83C30B8
:10259000012B3BD030B4012380F83C30022380F87B
:1025A0003D3003685C689D6824F070040A6822432B
:1025B0005A600368164A93421AD0B3F1804F17D07D
:1025C000A2F57C42934213D002F5806293420FD071
:1025D00002F5806293420BD002F57842934207D015
:1025E00002F57052934203D0A2F59432934204D183
:1025F00025F080054A6815439D60012380F83D3031
:10260000002380F83C30184630BC704702207047E9
:102610000000014070477047002800F0D98170B574
:1026200082B00446036813F0010F3BD0A64B9B68B1
:1026300003F00C03042B2CD0A34B9B6803F00C037A
:10264000082B21D06368B3F5803F4FD0B3F5A02F9E
:1026500052D09D4B1A6822F480321A601A6822F414
:1026600080221A606368002B50D000F0C5FC05463C
:10267000954B1B6813F4003F14D100F0BDFC401BC8
:102680006428F5D90320AAE18F4B5B6813F4800F0F
:10269000D8D08D4B1B6813F4003F03D06368002B28
:1026A00000F09881236813F0020F54D0864B9B688A
:1026B00013F00C0F3ED0844B9B6803F00C03082BE7
:1026C00033D0E368002B67D0804B01221A6000F002
:1026D00093FC05467C4B1B6813F0020F53D100F0AE
:1026E0008BFC401B0228F5D9032078E1764A136859
:1026F00043F480331360B5E7734B1A6842F48022C9
:102700001A601A6842F480321A60ABE700F074FC79
:1027100005466D4B1B6813F4003FC3D000F06CFC02
:10272000401B6428F5D9032059E1674B5B6813F41B
:10273000800FC6D1644B1B6813F0020F03D0E3680F
:10274000012B40F04981604A136823F0F8032169A6
:1027500043EAC1031360236813F0080F40D0636994
:1027600063B35B4B01221A6000F046FC0546564BF2
:102770005B6F13F0020F33D100F03EFC401B0228C8
:10278000F5D903202BE1504A136823F0F80321699F
:1027900043EAC1031360DEE74C4B00221A6000F0ED
:1027A0002BFC0546484B1B6813F0020FD3D000F0FA
:1027B00023FC401B0228F5D9032010E1444B0022E2
:1027C0001A6000F019FC05463F4B5B6F13F0020FD7
:1027D00006D000F011FC401B0228F5D90320FEE0D2
:1027E000236813F0040F78D0374B1B6C13F0805F15
:1027F0000DD100230193344B1A6C42F080521A64BD
:102800001B6C03F080530193019B012500E0002520
:10281000304B1B6813F4807F21D0A368012B32D08A
:10282000052B36D0284B1A6F22F001021A671A6F57
:1028300022F004021A67A368002B34D000F0DCFBFE
:102840000646214B1B6F13F0020F45D100F0D4FB5D
:10285000801B41F288339842F3D90320BFE01D4A20
:10286000136843F48073136000F0C6FB0646194BEF
:102870001B6813F4807FD0D100F0BEFB801B0228C0
:10288000F5D90320ABE0104A136F43F0010313673F
:10289000D1E70D4B1A6F42F004021A671A6F42F02B
:1028A00001021A67C7E700F0A7FB0646064B1B6F3D
:1028B00013F0020F10D000F09FFB801B41F2883311
:1028C0009842F3D903208AE00038024000004742D2
:1028D000800E474200700040E5B9A369002B7DD00F
:1028E000464A926802F00C02082A51D0022B17D0F7
:1028F000434B00221A6000F07FFB04463F4B1B68ED
:1029000013F0007F42D000F077FB001B0228F5D9BE
:10291000032064E0394A136C23F080531364DCE72E
:10292000374B00221A6000F067FB0546334B1B68EB
:1029300013F0007F06D000F05FFB401B0228F5D9A2
:1029400003204CE0E369226A1343626A43EA82137C
:10295000A26A5208013A43EA0243E26A43EA026386
:10296000264A5360264B01221A6000F045FB0446BC
:10297000224B1B6813F0007F06D100F03DFB001BCB
:102980000228F5D903202AE0002028E0002026E0D4
:10299000012B26D0194B5B6803F48001E269914258
:1029A00021D103F03F02216A8A421ED1616A47F6B3
:1029B000C0721A408A421AD103F44032A16A8A4294
:1029C00017D103F07063E26A934214D1002006E04D
:1029D00001207047012002E0012000E0002002B049
:1029E00070BD0120FBE70120F9E70120F7E7012096
:1029F000F5E70120F3E70120F1E700BF00380240CE
:102A000060004742F8B52F4B9B6803F00C03042B82
:102A100053D0082B53D12B4B5A6802F03F025B680E
:102A200013F4800F28D0274B5B68C3F38813580139
:102A30000021C01A61F100018E0146EA906687010B
:102A40003C1A66EB0105E90041EA5471E000C01848
:102A500041F100014B0243EAD0534402204619469B
:102A60000023FEF73FFA174B5B68C3F301430133C2
:102A70005B00B0FBF3F023E0124B5B68C3F38813F9
:102A80005C010025E41A65F10005AE0146EA946692
:102A9000A701381B66EB0501CC0044EA5074C50061
:102AA000E81844F100018B0243EA90538402204667
:102AB00019460023FEF716FAD5E7034800E003485D
:102AC000F8BD00BF0038024000127A000024F40074
:102AD000002800F09B8070B50D4604464F4B1B68E4
:102AE00003F00F038B4208D2CBB24C4A1370136829
:102AF00003F00F038B4240F08B80236813F0020F2A
:102B000017D013F0040F04D0454A936843F4E05300
:102B10009360236813F0080F04D0414A936843F48C
:102B2000604393603E4A936823F0F003A1680B432F
:102B30009360236813F0010F32D06368012B21D01A
:102B40009A1E012A25D9364A126812F0020F61D066
:102B500033498A6822F0030213438B6000F04CFA79
:102B600006462F4B9B6803F00C036268B3EB820FA1
:102B700016D000F041FA801B41F288339842F0D918
:102B8000032042E0264A126812F4003FE0D10120FF
:102B90003BE0234A126812F0007FD9D1012034E0D3
:102BA0001E4B1B6803F00F03AB4207D9EAB21B4B65
:102BB0001A701B6803F00F03AB422DD1236813F08A
:102BC000040F06D0164A936823F4E053E1680B43E0
:102BD0009360236813F0080F07D0114A936823F419
:102BE0006043216943EAC1039360FFF70BFF0C4B7D
:102BF0009B68C3F303130B4AD35CD8400A4B18609D
:102C00000A4B186800F0ACF9002070BD0120704735
:102C10000120FAE70120F8E70120F6E7003C024036
:102C2000003802407C9F0008380100203401002059
:102C3000014B1868704700BF3801002008B5FFF746
:102C4000F7FF044B9B68C3F38223034AD35CD8404D
:102C500008BD00BF003802408C9F000808B5FFF790
:102C6000E7FF044B9B68C3F34233034AD35CD8406D
:102C700008BD00BF003802408C9F000800230F2BC6
:102C800000F2D980F0B583B039E0072200E00022DD
:102C9000B2403A430234684E46F82420674A14682A
:102CA000EA4324EA05064F6817F4803F01D045EA5D
:102CB0000406624C2660646802EA04064F6817F452
:102CC000003F01D045EA04065C4C6660A46802EA55
:102CD00004064F6817F4801F01D045EA0406574CDC
:102CE000A660E46822404E6816F4001F01D045EA51
:102CF0000402524CE26001330F2B00F29A80012251
:102D00009A400C6804EA020532EA0404F3D14C68E4
:102D1000661E012E03D9112C01D0122C12D1866807
:102D20005F000324BC4026EA0406CC68BC40344360
:102D30008460466826EA02064C68C4F300129A4092
:102D400032434260C7685E000324B440E24327EA8E
:102D500004078C68B4403C43C4604C68022C01D02A
:102D6000122C13D1DF08083750F827E003F00704CE
:102D70004FEA840C0F2404FA0CF42EEA040E0C69BA
:102D800004FA0CF444EA0E0440F8274004681440A6
:102D90004A6802F00302B240224302604A6812F01D
:102DA000805FA8D000220192254A546C44F48044EC
:102DB0005464526C02F480420192019A9C08A61C51
:102DC0001D4A52F8267003F0030296000F22B2400B
:102DD00027EA02071B4A90423FF459AF02F580628E
:102DE00090421AD002F58062904218D002F58062BB
:102DF000904216D002F58062904214D002F58062B3
:102E0000904212D002F58062904210D002F58062AA
:102E100090423FF43AAF08223AE7012238E7022213
:102E200036E7032234E7042232E7052230E70622A0
:102E30002EE703B0F0BD704700380140003C014070
:102E400000380240000002400AB181617047090465
:102E500081617047436931EA030301D081617047A2
:102E600009048161704790F83530DBB2022B03D042
:102E70008023436501207047052380F835300268C0
:102E8000136823F00103136000207047074AD368DA
:102E900023F4E0631B041B0C000200F4E060034316
:102EA00043F0BF6343F40033D360704700ED00E0AC
:102EB00030B4174BDB68C3F30223C3F10704042CBF
:102EC00028BF04241D1D062D18D9033B4FF0FF35E4
:102ED00005FA04F421EA0401994005FA03F322EA11
:102EE0000303194300280BDB0901C9B200F160405C
:102EF00000F5614080F8001330BC70470023E5E71F
:102F000000F00F000901C9B2024B1954F4E700BFE9
:102F100000ED00E014ED00E0002807DB00F01F02E8
:102F2000400901239340024A42F82030704700BF15
:102F300000E100E00138B0F1807F0AD2064B586012
:102F4000064AF02182F823100020986007221A60B8
:102F500070470120704700BF10E000E000ED00E086
:102F600010B504460E4B18784FF47A73B3FBF0F3A8
:102F70000C4A1068B0FBF3F0FFF7DCFF68B90F2CC8
:102F800001D901200AE0002221464FF0FF30FFF76F
:102F90008FFF054B1C60002000E0012010BD00BF2A
:102FA00030010020380100203401002008B50B4B0F
:102FB0001A6842F400721A601A6842F480621A6059
:102FC0001A6842F480721A600320FFF75FFF002046
:102FD000FFF7C6FFFEF730FF002008BD003C0240AF
:102FE000034A1168034B1B780B441360704700BF02
:102FF0003416002030010020014B1868704700BFD4
:103000003416002038B50446FFF7F6FF0546B4F144
:10301000FF3F02D0044B1B781C44FFF7EDFF401B21
:10302000A042FAD338BD00BF30010020054BD3F8D1
:10303000882042F47002C3F888204FF000629A6042
:10304000704700BF00ED00E02DE9F04106468846DC
:1030500017461D463468A46838EA04030CBF0124EF
:103060000024BC4237D0B5F1FF3FF3D0FFF7C4FFD7
:10307000069BC01AA84201D2002DEBD132685368DA
:1030800023F0E00353607368B3F5827F0BD0B36A1B
:10309000B3F5005F14D0012386F85130002386F881
:1030A0005030032018E0B368B3F5004F02D0B3F5F9
:1030B000806FECD13268136823F040031360E6E7B9
:1030C0003268136823F4005313603268136843F4C2
:1030D00000531360DFE70020BDE8F08130B585B014
:1030E0000446164B1868164BA3FB0030400D4FF4F6
:1030F0007A7505FB00F003906368B3F5827F0BD00F
:10310000039BBBB1039B013B039323689B6813F0B4
:10311000800FF5D100200EE000920B4600228021A6
:103120002046FFF791FF30B1636D43F020036365E4
:10313000032000E0002005B030BD00BF38010020B2
:10314000819F5E1610B582B004460B464168B1F50A
:10315000827F14D06168B1F5827F2AD1A168B1F570
:10316000806F19D00092002280212046FFF76CFF6B
:1031700030B3636D43F020036365032020E0816872
:10318000B1F5004F02D0B1F5806FE3D1206801683E
:1031900021F040010160DDE700920022012120467C
:1031A000FFF752FF60B1636D43F0200363650320B6
:1031B00006E00092002201212046FFF745FF08B9F2
:1031C00002B010BD636D43F0200363650320F7E791
:1031D00000283BD010B504460023836290F851309C
:1031E000002B2ED0022384F851302268136823F07C
:1031F000400313606368A2681343E26813432269C3
:10320000134362691343A26902F400721343E26933
:103210001343226A1343A16A22680B431360638B32
:1032200003F00403616A22680B4353602268D36988
:1032300023F40063D36100206065012384F85130DA
:1032400010BD80F85030FEF747FECBE701207047F5
:103250002DE9F04383B01D4690F85030012B00F06B
:10326000C780044688469146012380F85030FFF716
:10327000C3FE074694F85160F6B2012E40F0A580D7
:10328000B8F1000F00F0A280B9F1000F00F09E80AD
:10329000032384F8513000236365C4F83080A4F818
:1032A0003490A4F83690A363A387E3876364236410
:1032B000A368B3F5004F1ED023681A6812F0400FC0
:1032C00003D11A6842F040021A60E368B3F5006F58
:1032D00017D0636813B1B9F1010F4DD1226B236888
:1032E00012781A73236B01332363E38E9BB2013B85
:1032F0009BB2E38640E02268136843F48043136086
:10330000DAE7636813B1B9F1010F16D1226B2368B4
:103310001288DA60236B02332363E38E9BB2013B96
:103320009BB2E38609E0FFF767FEC01BA84202D309
:10333000B5F1FF3F54D1002D54D0E38E9BB2002B4A
:103340002ED023689A6812F0020FECD0226B1288FC
:10335000DA60236B02332363E38E9BB2013B9BB2A3
:10336000E386EAE7FFF748FEC01BA84202D3B5F1A7
:10337000FF3F39D1002D39D0E38E9BB283B1236852
:103380009A6812F0020FEDD0226B12781A73236B39
:1033900001332363E28E92B2013A92B2E286EBE706
:1033A0003A4629462046FFF799FE08B12023636577
:1033B000A36833B901932368DA6801929B6801938B
:1033C000019B636D13B9002600E00226012384F8F7
:1033D0005130002384F85030304603B0BDE8F0830C
:1033E0000326F3E70326F1E70326EFE70326EDE7DD
:1033F0000226F1E72DE9F04383B01F460A9D90F8BD
:103400005030012B00F0108104468846914601237C
:1034100080F85030FFF7F0FD064694F85130DBB2EB
:103420006268012B0AD0B2F5827F40F0E380A26887
:10343000002A40F0E980042B40F0E880B8F1000F4A
:1034400000F0E680B9F1000F00F0E480002F00F0FA
:10345000E38094F85130DBB2042B02D0052384F8CA
:10346000513000236365C4F83890E787A787C4F814
:103470003080E786A7862364636423681A6812F0A5
:10348000400F03D11A6842F040021A60E368B3F5B6
:10349000006F11D063680BB1012F0BD1226B236831
:1034A00012781A73236B01332363E38E9BB2013BC3
:1034B0009BB2E38601276BE063680BB1012F0BD150
:1034C000226B23681288DA60236B02332363E38E56
:1034D0009BB2013B9BB2E38601271CE023689A68FC
:1034E00012F0010F0ED0E28F92B25AB1DA68A36BDC
:1034F0001A80A36B0233A363E38F9BB2013B9BB2A1
:10350000E3870127FFF778FD801BA84203D3B5F1BD
:10351000FF3F40F08380E38E9BB21BB9E38F9BB2E9
:10352000002B53D023689A6812F0020FD6D0E28E97
:1035300092B2002AD2D0002FD0D0226B1288DA604B
:10354000236B02332363E38E9BB2013B9BB2E38682
:103550000027C3E723689A6812F0010F0ED0E28FAC
:1035600092B25AB1DA68A36B1A70A36B0133A363EA
:10357000E38F9BB2013B9BB2E3870127FFF73CFD42
:10358000831BAB4202D3B5F1FF3F49D1002D49D097
:10359000E38E9BB213B9E38F9BB2BBB123689A68E9
:1035A00012F0020FD6D0E28E92B2002AD2D0002FB3
:1035B000D0D0226B12781A73236B01332363E38E0E
:1035C0009BB2013B9BB2E3860027C3E73246294604
:1035D0002046FFF783FD48B9A36863B901932368C8
:1035E000DA6801929B680193019B04E020236365E4
:1035F000012000E00220012384F85130002384F8E8
:10360000503003B0BDE8F0830220F4E70220F2E777
:103610000120F0E70120EEE70120ECE70320EAE7D4
:103620000320E8E70320E6E70220EAE72DE9F0437C
:1036300083B00446884691461D464368B3F5827FB1
:1036400036D094F85030012B00F0A180012384F88B
:103650005030FFF7D1FC074694F85160F6B2012EC6
:1036600040F08280B8F1000F7FD0B9F1000F7CD01C
:10367000042384F8513000236365C4F83880A4F82B
:103680003C90A4F83E902363A386E386236463649E
:10369000A368B3F5004F18D023681A6812F0400FE2
:1036A00003D11A6842F040021A60E368EBB13BE0D4
:1036B0008368002BC5D1042380F851300095134650
:1036C0000A46FFF797FE064655E02268136823F482
:1036D00080431360E0E7FFF78FFCC01BA84202D3D2
:1036E000B5F1FF3F4BD1002D4BD0E38F9BB2002BA8
:1036F0002ED023689A6812F0010FECD0A26B1B7BCE
:103700001370A36B0133A363E38F9BB2013B9BB2A6
:10371000E387EAE7FFF770FCC01BA84202D3B5F1CC
:10372000FF3F30D1002D30D0E38F9BB283B12368AF
:103730009A6812F0010FEDD0DA68A36B1A80A36BC0
:103740000233A363E28F92B2013A92B2E287EBE7CF
:103750003A4629462046FFF7F5FC08B12023636569
:10376000636D13B9002600E00226012384F851306E
:10377000002384F85030304603B0BDE8F0830326C0
:10378000F3E70326F1E70326EFE70326EDE702263A
:10379000F1E70268D36823F49073D3600268536939
:1037A00023F001035361202380F83A30704790F8EA
:1037B0003930DBB2212B01D0022070478368B3F58A
:1037C000805F17D0036A5A1C02621A7803685A6035
:1037D000C38C9BB2013B9BB2C3844BB90268D368D4
:1037E00023F08003D3600268D36843F04003D360C2
:1037F00000207047036A1B880268C3F30803536004
:1038000003691BB9036A02330362E1E7036A013308
:103810000362DDE770B504460268136923F4405380
:10382000C1680B4313618368026913434269134300
:10383000C2691A430168CB6823F4164323F00C03D2
:103840001343CB600268536923F4407381690B43CF
:103850005361C369B3F5004F36D00368654A93429C
:1038600000F09A8002F58062934200F09580FFF7A5
:10387000E5F90026051846EB06012D1846EB010177
:10388000CB0043EA5573EA001546194663689A006F
:103890009B0F281846EB0101FDF724FB564DA5FBB5
:1038A00000325109642303FB11031B013233A5FBD2
:1038B00003235B0903F0F00202EB011203F00F0394
:1038C000216813448B6093E003684A4A934233D0E3
:1038D00002F5806293422FD0FFF7B0F90026051859
:1038E00046EB06012D1846EB0101CB0043EA557368
:1038F000EA001546194662683346921846EB030300
:10390000281846EB0101FDF7EDFA3B4DA5FB00320F
:103910005109642303FB1103DB003233A5FB0323AE
:103920005B095A0002F4F87202EB011203F007037C
:10393000216813448B605BE0FFF790F900260518BF
:1039400046EB06012D1846EB0101CB0043EA557307
:10395000EA001546194662683346921846EB03039F
:10396000281846EB0101FDF7BDFA234DA5FB0032F7
:103970005109642303FB1103DB003233A5FB03234E
:103980005B095A0002F4F87202EB011203F007031C
:10399000216813448B602BE0FFF760F900260518BF
:1039A00046EB06012D1846EB0101CB0043EA5573A7
:1039B000EA001546194663689A009B0F281846EBE3
:1039C0000101FDF78FFA0C4DA5FB0032510964236C
:1039D00003FB11031B013233A5FB03235B0903F037
:1039E000F00202EB011203F00F03216813448B6015
:1039F00070BD00BF001001401F85EB512DE9F84359
:103A000005460F4616469946DDF820802C68246846
:103A100037EA04030CBF01240024B4421FD1B8F1DB
:103A2000FF3FF3D0B8F1000F05D0FFF7E5FAA0EBA8
:103A300009004045EAD92A68D36823F4D073D360DB
:103A40002A68536923F001035361202385F8393034
:103A500085F83A30002385F83830032000E0002054
:103A6000BDE8F88358B310B5044690F839300BB36D
:103A7000242384F839302268D36823F40053D360B8
:103A80002046FFF7C7FE2268136923F490431361B1
:103A90002268536923F02A0353612268D36843F4F0
:103AA0000053D3600020E063202384F8393084F889
:103AB0003A3010BD80F83830FEF7C2FAD8E701205E
:103AC00070472DE9F04383B01E4690F83930DBB2E1
:103AD000202B59D104460D469046002958D0002A83
:103AE00058D090F83830012B56D0012380F8383068
:103AF0004FF00009C0F83C90212380F83930FFF7DF
:103B00007BFA0746A4F82480A4F8268084F838902D
:103B100017E000963B46002280212046FFF76EFF0B
:103B200000283BD12B882268C3F308035360236924
:103B30000BB9023505E0013503E015F8012B2368C8
:103B40005A60E38C9BB29BB1E28C92B2013A92B282
:103B5000E284A368B3F5805FDBD000963B46002289
:103B600080212046FFF74AFF0028E6D003200CE022
:103B700000963B46002240212046FFF73FFF78B9E0
:103B8000202384F8393000E0022003B0BDE8F08340
:103B90000120FAE70120F8E70220F6E70320F4E726
:103BA0000320F2E790F83A30DBB2202B20D109B3A2
:103BB00012B390F83830012B20D081628285C28503
:103BC0000023C363222280F83A2080F8383001684D
:103BD000CA6842F48072CA6001684A6942F0010210
:103BE0004A610168CA6842F02002CA6018467047FC
:103BF0000220704701207047012070470220704763
:103C0000704708B50168CA6822F04002CA602022E5
:103C100080F83920FFF7F4FF002008BD08B590F8C0
:103C20003A30DBB2222B46D18368B3F5805F0FD0E8
:103C300003690BBB03685A68836A591C81621A7056
:103C4000C38D9BB2013B9BB2C385F3B1002008BD7D
:103C5000826A036943B903685B68C3F3080313808E
:103C6000836A02338362EBE703685B68DBB213802D
:103C7000836A01338362E3E703685B68826A511CED
:103C8000816203F07F031370DAE70268D36823F0E0
:103C90002003D3600268D36823F48073D360026882
:103CA000536923F001035361202380F83A30FDF774
:103CB0004BFD0020CBE70220C9E7704710B5044652
:103CC00002681368D168526913F00F0005D113F030
:103CD000200F02D011F0200F13D128B112F00102F1
:103CE00013D111F4907F10D113F0800F02D011F096
:103CF000800F6CD113F0400F02D011F0400F6AD149
:103D000010BD2046FFF78AFFFAE713F0010F06D037
:103D100011F4807F03D0E06B40F00100E06313F00A
:103D2000040F04D01AB1E06B40F00200E06313F01E
:103D3000020F04D01AB1E06B40F00400E06313F00E
:103D4000080F07D011F0200F00D11AB1E26B42F03A
:103D50000802E263E26B002AD2D013F0200F02D0F7
:103D600011F0200F21D123685B6903F04003E26B5F
:103D700012F0080F00D123B32046FFF70AFD236895
:103D80005A6912F0400F18D05A6922F040025A6165
:103D9000636B73B1124A1A65606BFFF764F8002811
:103DA000AED0606B036D9847AAE72046FFF736FF59
:103DB000D9E72046FFF781FFA2E72046FFF77DFF06
:103DC0009EE72046FFF779FF0023E36398E720464C
:103DD000FFF7EDFC94E72046FFF713FF90E700BFE5
:103DE000E53D000808B5806B0023C385C384FFF759
:103DF00064FF08BD70B110B50446037933B10223E6
:103E00002371002020610123237110BD4371FEF74F
:103E10002FF8F4E7012070474379012B31D010B41B
:103E20000123437102220271046822688B4013430C
:103E30002360B1B902681168136803F0380311F008
:103E4000040F01D0382B07D00123037100234371E5
:103E500018465DF8044B7047536843F00103536004
:103E6000F2E702681168136803F4601311F4802FFD
:103E7000EAD0B3F5601FE7D1536843F00203536003
:103E8000E2E7022070474379012B1FD070B401256F
:103E90004571022303710668336840F6FE7494404E
:103EA00023EA04040B6849680B43934023433360BF
:103EB00004682368C02101FA02F223EA02022260A8
:103EC000057100234371184670BC7047022070478B
:103ED00010B483B0002401940068019051B9019995
:103EE0000A4408320192019A1360002003B05DF881
:103EF000044B704701990A4414320192F3E7000021
:103F0000DFF834D0002103E00C4B5B584350043100
:103F10000B480C4B42189A42F6D30B4A02E000239E
:103F200042F8043B094B9A42F9D3FFF77FF800F0BF
:103F300011F8FDF7BBFA704700000220A4A30008A7
:103F400000000020E80A0020E80A00206016002097
:103F5000FEE7000070B50D4E0D4D761BB61006D075
:103F6000002455F8043B01349847A642F9D1094E84
:103F7000094D761B05F0E8FFB61006D0002455F871
:103F8000043B01349847A642F9D170BD98A30008BC
:103F900098A30008A0A3000898A30008F0B486071F
:103FA00046D0541E002A3CD0CAB2034601E0013C70
:103FB00037D303F8012B9D07F9D1032C2AD9CDB2B1
:103FC00045EA05250F2C45EA054534D9A4F1100230
:103FD00022F00F0C03F120071609674403F11002C9
:103FE00042E9045542E902551032BA42F8D1721C36
:103FF00014F00C0F03EB021204F00F0613D0331F62
:1040000023F003030433134442F8045B9342FBD1CF
:1040100006F003042CB1CAB21C4403F8012B9C42E5
:10402000FBD1F0BC704734461346002CF3D1F8E7BF
:1040300014460346C1E71A462646E0E70FB400B52A
:10404000074983B004AB086853F8042B81680193D7
:1040500000F00AF803B05DF804EB04B0704700BF4D
:104060003C010020000000002DE9F04F2DED068BF3
:10407000CFB01C468B461746814603F087F903688C
:10408000089418461193FCF7BBF91090B9F1000F92
:1040900004D0D9F83830002B00F00A82DBF8643005
:1040A000BBF90C2013F0010F93B202D1910540F13E
:1040B000D5869E040AD4DBF8641042F4005321F440
:1040C0000051ABF80C30CBF864109BB21D0740F1E7
:1040D000CA80DBF81020002A00F0C58003F01A0225
:1040E0000A2A00F0CE8000239FED837BCDE92333A5
:1040F000CDE91333CDE915330C931293049325AB1B
:10410000229398463B788DED0E7B09EE10BA002B7A
:1041100000F078813C4604E014F8013F002B00F0E9
:10412000C980252BF8D1E51B40F0C7802378002BF0
:1041300000F06881002305938DF86B300293661CB4
:104140004FF0FF33647803932B254FF0200A01369C
:10415000A4F120035A2B00F2D380DFE813F0780299
:10416000D100D1007202D100D100D1006A00D1008B
:10417000D10010022102D1001B025802D1005202CC
:104180005B005B005B005B005B005B005B005B0057
:104190005B00D100D100D100D100D100D100D1000D
:1041A0005D01D100B30190025D015D015D01D100AF
:1041B000D100D100D1008A02D100D100E902D100A2
:1041C000D100D100C101D1002502D100D1002108C8
:1041D000D100D100D100D100D100D100D100D10057
:1041E0005D01D100B301E7015D015D015D01FE02EA
:1041F000E701AD01D1008102D1001B0317080703BD
:10420000AD01D100C10182001308D100D100F20735
:10421000D1008200A4F13003002216F8014B02EB1A
:10422000820203EB4202A4F13003092BF5D9059277
:104230008EE7484603F0AAF8436815931846FCF742
:10424000DFF8034648461C46169303F09FF8826841
:10425000139234B1139B23B1139B1B78002B41F0B5
:10426000D980347873E75946484601F02FFD00287D
:1042700041F07483BBF80C3003F01A020A2A7FF471
:1042800032AFBBF90E20002AFFF62DAFDBF8642019
:10429000D20702D49E0541F1918123463A46594600
:1042A000484601F0D1FC049004984FB0BDEC068B59
:1042B000BDE8F08FE51B00F0A580DDE92332013376
:1042C0002A44072BCDE92332C8F80070C8F80450FF
:1042D00006DC08F10808049A23782A44049226E7A9
:1042E00019EE101A22AA484604F020F8002841F0DE
:1042F0004D840DF19408EEE700000000000000007E
:104300000996002C7ED000231A464FF0010A8DF842
:10431000D4408DF86B30079203920A920D920B9263
:10432000CDF818A035AF029B029913F0020318BF15
:104330000AF1020A11F0840B05D10599A1EB0A06D6
:10434000002E00F3D483249D72B1239A01320135EB
:104350000DF16B000121072ACDE92325C8E90001F1
:1043600000F3058408F108086BB1239B0133023583
:104370001BA90222072BCDE92335C8E9001200F35F
:10438000068408F10808BBF1800F00F09682039BB9
:10439000069A9E1A002E00F3D882029BDE0500F1D9
:1043A0003082239B069AC8F8007001331544072B0E
:1043B0002495C8F80420239300F32D8308F10808FE
:1043C000029B5C0705D5059BA3EB0A04002C00F3B8
:1043D000EC83DDE904325245ACBF9B18534404938F
:1043E000002D40F0EF8200232393079B1BB1079918
:1043F000484602F0A3FE0DF19408099F3B78002B7C
:104400007FF488AE249B19EE10BA002B40F0F88799
:104410000023239300F08FBC089B0996073323F0F9
:104420000703B3EC027B8DED0E7BDDE90E5608939E
:1044300026F000430AEE903A0AEE105A5BEC1AABF3
:10444000B84B504659464FF0FF32FCF79DFC002810
:1044500040F05285B34B4FF0FF3250465946FCF7BF
:1044600075FC002840F0488500220023284631468C
:10447000FCF762FC002841F09A819DF86B20AA4F5E
:10448000AA4B029800214FF0030A20F08000079108
:104490000290472CC8BF1F46CDF818A003910A917F
:1044A0000D910B91002A3FF43EAF0AF1010A3AE761
:1044B000484602F0A7FDF1E5029B347843F0200363
:1044C000029344E6089B099653F8042B8DF8D420F8
:1044D00000210A464FF0010A08938DF86B101AE785
:1044E000089D099655F8047B00268DF86B60002F17
:1044F00000F08486039A1346013300F02E8731467C
:104500003846FBF77DFE0790002801F0E281079B0B
:104510000396DA1B0692334622EAE27A08959DF862
:104520006B2007930A930D930B93BBE7029B0996AD
:104530009D0640F1AD80089B073323F00703194621
:10454000F1E80223089192469B46002A73F100038A
:10455000C0F2AF80039B013300F0AD85029B23F0D6
:1045600080055AEA0B0340F0B182039B002B40F018
:10457000B48202950023039306934EAFC3E0089BD9
:1045800053F8042B0592002A80F27184059A08934F
:1045900052420592029B347843F004030293D6E51D
:1045A00034788DF86B50D2E5029B099643F01005E4
:1045B000AF0640F12984089B073323F00703F3E893
:1045C00002AB0893012300228DF86B20039A114659
:1045D00001317DD025F0800102915AEA0B0140F0B3
:1045E0007182002A40F08686002BC3D115F00103AA
:1045F000069300F06B8430238DF837310DF23717B6
:1046000081E0029B347843F0800302939FE53246B9
:1046100012F8014B2A2C01F0F182A4F13003092B8E
:10462000164698BF002201F2928116F8014B02EB68
:10463000820203EB4202A4F13003092BF5D9039265
:1046400086E5029B347843F0010302937FE59DF8F1
:104650006B30002B7FF405AE34788DF86BA076E5D7
:104660003478029B6C2C00F0C28543F01003029357
:104670006DE5029B347843F00803029367E5029BE3
:10468000099643F010030293029B9D063FF553AF3A
:10469000029BD80640F1F684089B53F8042B08933C
:1046A0004FEAE27B5B46002A73F100039246BFF6B5
:1046B00051AF039A029DDAF1000A11464FF02D0323
:1046C0006BEB4B0B01318DF86B304FF0010381D157
:1046D000012B00F0FB81022B4EAF73D112984FEAF1
:1046E0001A130AF00F0143EA0B734FEA1B129A46A2
:1046F0009346435C07F8013D5AEA0B03EFD14EABFA
:10470000DB1B029506930023039907930A930D93ED
:104710000B93069B9DF86B208B42B8BF0B469A46C5
:10472000C0E600BFFFFFEF7F989F00089C9F000836
:10473000029B099643F010030293029B990640F1F5
:104740007783089B073323F00703F3E802AB089352
:10475000029B23F48065002335E73478029B682CA4
:1047600000F03E8543F040030293F0E4089B099675
:1047700047F6300153F8042BADF86C1002990893FA
:10478000CD4B129341F0020592464FF0000B0223ED
:10479000782418E7029B09969E0600F1A183029BEC
:1047A000DD0600F1AD85029B5C0600F14986029BA7
:1047B000980540F1A585089B049953F8042B0893AC
:1047C00011701AE64FEADA0242EA4B724FEADB0155
:1047D0000AF007038B46924630335AEA0B013A46F9
:1047E00007F8013DEED1E90789D5302B87D030237A
:1047F000023A07F8013C4EAB9B1A02950693174606
:1048000081E7652C40F31381DDE90E0100220023CE
:10481000FCF788FA002800F00482239BA74AC8F816
:104820000020013301350122072BCDE92335C8F8DB
:10483000042000F3418508F108081C9B0C9A934260
:1048400080F20783239B119AC8F80020109AC8F8B9
:10485000042001331544072B2495239300F3B284DD
:1048600008F108080C9B5C1E002C7FF7A9AD102CEA
:10487000239BDFF84CB240F330855F46102619EEDB
:1048800010BA05E008F10808103C102C40F324850C
:1048900001331035072BCDE92335C8E90076F1DD6A
:1048A00022AA5946484603F041FD002840F03E82C6
:1048B000DDE923350DF19408E6E7059BA3EB0A0635
:1048C000002E7FF764AD102E239ADFF8F4B129DDB6
:1048D00058462946A34619EE105A1023044604E010
:1048E000103E102E08F1080818DD01321031072A99
:1048F000CDE92321C8E90043F2DD22AA2946484632
:1049000003F014FD002840F01082103E102EDDE967
:1049100023210DF194084FF01003E6DC23460D46E9
:104920005C469B4601323544072ACDE92325C8F869
:1049300000B0C8F8046000F33784039B069A9E1AFF
:10494000002E08F108087FF728AD102E239ADFF813
:1049500070B129DD58462946A34619EE105A102396
:10496000044604E0103E102E08F1080818DD01325C
:104970001031072ACDE92321C8E90043F2DD22AA3C
:104980002946484603F0D2FC002840F0CE81103E74
:10499000102EDDE923210DF194084FF01003E6DC21
:1049A00023460D465C469B4601323544072ACDE935
:1049B0002325C8F800B0C8F8046000F3178208F196
:1049C0000808EAE419EE101A22AA484603F0AEFCE1
:1049D00000283FF408AD19EE10BAA7E1239B119906
:1049E000C8F800101099C8F8041001330D44072BC3
:1049F0002495239300F3D28508F10808002AC0F219
:104A0000C7870C9A01331544072BCDE92335C8E934
:104A100000727FF7D3AC19EE101A22AA484603F0B1
:104A200085FC0028D7D1249D0DF19408C8E40C9B87
:104A3000239C012B40F39281013401350123072C83
:104A4000CDE92345C8F80070C8F8043000F3F183BD
:104A500008F10808109B119A01341D44072CCDE978
:104A60002345C8E9002300F3F28308F10808002376
:104A7000DDE90E010022FCF755F90C9B002840F0FF
:104A80008B81013B013401371D44072CCDE92345BF
:104A9000C8F80070C8F8043000F3708108F1080805
:104AA000149A013415441EAB072CCDE92345C8E9FF
:104AB00000327FF783ACAEE7A89F0008D89F0008BC
:104AC000EC9F0008012B029D7FF405AEBBF1000FA7
:104AD00008BFBAF10A0F80F0F6820AF1300A01230A
:104AE0008DF837A1029506930DF237170BE6102EBD
:104AF000DDE9232129DD1793102543460846B846F2
:104B0000274619EE104A04E0103E102E03F1080368
:104B100016DD0132C4491030072ACDE92320C3E94C
:104B20000015F1DD22AA2146484603F0FFFB0028CC
:104B300040F0B483103E102EDDE9232025ABE8DCE5
:104B40003C4647469846179B01460132B648C8F88E
:104B500000007518072ACDE92325C8F8046000F382
:104B60008B839DF86B2008F10808FFF7EDBB19EE69
:104B7000101A22AA4846179303F0D8FB00287FF4A6
:104B80002AAF249D179B0DF19408FFF7EDBB19EE9A
:104B9000101A22AA484603F0C9FB00287FF41BAF75
:104BA000249D0DF19408FFF7EEBB102C239B20DD14
:104BB00019EE107A102604E0103C102C08F10808B9
:104BC00017DD0133984A1035072BCDE92335C8E9A5
:104BD0000026F1DD22AA3946484603F0A7FB00284B
:104BE00040F07883103C102CDDE923350DF194085A
:104BF000E7DC01338C4AC8F800202544072BCDE9B7
:104C00002335C8F804407FF7E4AB19EE101A22AA46
:104C1000484603F08BFB00287FF4DDAE249DFFF7B0
:104C2000D8BB1C9A002A40F32681DDE90B3293425F
:104C3000A8BF1346002B1C460DDD239BC8F800704F
:104C400001332544072B2495C8F80440239300F32F
:104C5000D98508F108080B9B002CA8BF1B1B002B53
:104C60001C4600F355830B9B3B449B46029B590516
:104C700000F104851C9B0C9A934203DB029AD20735
:104C800040F1CF83239A1199C8F800101099C8F801
:104C9000041001320D44072A2495239200F3E9857C
:104CA00008F108080C9ABC18A4EB0B04D31A9C4218
:104CB000A8BF1C46002C0DDD239AC8F800B00132B5
:104CC0002544072A2495C8F80440239200F32E8631
:104CD00008F10808002CACBF1C1B1C46002C7FF7F9
:104CE0006FAB102C239BDFF844B140F3F6825F4694
:104CF000102619EE10BA05E008F10808103C102C37
:104D000040F3EA8201331035072BCDE92335C8E99A
:104D10000076F1DD22AA5946484603F007FB28B980
:104D2000DDE923350DF19408E8E7AB46079911B1A9
:104D3000484602F003FADBF8643013F0010FBBF8C9
:104D40000C3002D1980540F19082590600F112868C
:104D500004984FB0BDEC068BBDE8F08F029BDE07D8
:104D60003FF56AAE013401350123072CCDE9234517
:104D7000C8F80070C8F804307FF790AE19EE101A2A
:104D800022AA484603F0D2FA00287FF424AEDDE9D7
:104D900023450DF1940883E65E1E002E7FF780AE5A
:104DA000102EDFF888B040F3E382CDF80CA0102776
:104DB00019EE10AA05E008F10808103E102E40F385
:104DC000D58201341035072CCDE92345C8E900B759
:104DD000F1DD22AA5146484603F0A8FA002840F027
:104DE000BA85DDE923450DF19408E6E719EE101ABE
:104DF00022AA484603F09AFA00287FF4ECAD249DDD
:104E00000DF19408FFF7C9BA089AEE0652F8041B90
:104E100008924FF001035ED4680659D51FFA81FA53
:104E20004FF0000BFFF7CFBBDC9F0008EC9F0008A2
:104E3000029BDA0600F13681029B5B0640F1B082EC
:104E4000089B53F8042B08931FFA82FA4FF0000BCB
:104E50007EE4029BD8077FF5B3AAF3E4DBF85800A1
:104E600002F09CFABBF90C2093B2FFF722B9347818
:104E70000893FFF76CB9239BC649C8F800100133AB
:104E800001350121072BCDE92335C8F8041000F3C3
:104E90009B8408F10808002A7FF4A0AD029B0C9ABD
:104EA00003F0010313433FF48BAA239B119AC8F824
:104EB0000020109AC8F8042001331544072B2495CC
:104EC000239300F36B8308F108089AE54EAF1AE4C8
:104ED000AA0500F1AF828A464FF0000BFFF773BBC3
:104EE000089B53F8041B0893049BDD171A462B46B6
:104EF000C1E90023FFF781BADDE90E0102460B4646
:104F0000FBF742FF0546002840F03086612C00F098
:104F1000A485412C00F0A282039B24F020065A1C99
:104F2000069600F0C085472E00F09C85DDE90E0155
:104F3000029A002942F480720A924FF00003C0F2F4
:104F4000E58541EC180B17930793462E00F0A084DB
:104F5000452E40F07184B0EE480AF0EE680A039BDB
:104F600020A95D1C1DABCDE900312A461CAB0221F6
:104F7000484600F0B1FF074605440A9BDDF808B03B
:104F8000029351EC180B00220023FBF7CBFE002804
:104F900000F056832B46DB1B0C93069B472B00F03F
:104FA0002183069B462B00F0A1841C9B0B930B9B3B
:104FB000069A013B412A1C9300F0A285E2B200212F
:104FC000002BB8BF0B9B8DF87820BABFC3F101034B
:104FD0002D222B22092B8DF8792040F382850DF1AB
:104FE000870EDFF8B8C175468CFB0321DA17C2EBD8
:104FF000A10202EB8201A3EB41011E463031632E78
:10500000284605F8011C134605F1FF35ECDC30336A
:10501000DAB2831E9E45294605F8012C40F2F98537
:105020000DF17A0301E011F8012B03F8012B8E45F5
:10503000F9D10DF189030DF17A021B1A13441EAA4E
:105040009B1A14930C9B149A012B1A44069240F35A
:10505000AF85069B109A1344069300232BF48066B9
:105060000A930D930B93069B46F48072029223EAF7
:10507000E37A179B002B40F0DC829DF86B200393B2
:10508000FFF710BA029B590640F19981089B53F82B
:10509000042B08930FFA82FA4FEAEA7B52465B46EA
:1050A000FFF753BA089B53F8042B089392464FF02E
:1050B000000BFFF74DBBBBF1000F08BFBAF10A0FA1
:1050C000029DFFF40AAD05F4806600230295CDF839
:1050D0001880139DA0464EAF34461E4609E0FBF7EC
:1050E00001FFBBF1000F08BFBAF10A0F1FD38246C0
:1050F0008B460A22002350465946FBF7F3FE94469E
:105100000CF1300C07F801CC504659460A22002316
:105110000136013F002CE2D095F800C06645DED193
:10512000FF2EDCD09B4508BF924580F095824EABA8
:10513000DB1B44461395DDF818800C960693FFF7A9
:10514000E2BA154B09961293029B9F0666D5089BFF
:10515000073323F00703F3E802AB0893029AD00762
:105160000AD55AEA0B0307D0302342F002028DF829
:105170006D4002928DF86C30029B23F4806502230F
:10518000FFF721BA029D0996FFF712BA0996FFF7B9
:10519000D4BA00BFD89F0008A89F0008676666665B
:1051A000AB4B09961293CFE719EE101A22AA484684
:1051B00003F0BCF800287FF40EAC249D0DF1940898
:1051C000FFF7E5B819EE101A22AA484603F0AEF828
:1051D00000287FF400AC249D0DF19408FFF742BB3A
:1051E00043F40073747802930136FEF7B0BF43F0C6
:1051F0002003747802930136FEF7A9BF039B0A9738
:10520000062B28BF062303970D970B9707973A465F
:105210009A46904F08950693FFF744B9029BDE0625
:105220003ED5089B53F8042B089392464FF0000B91
:1052300094E719EE101A22AA484603F077F80028DE
:105240007FF4C9ABDDE923450DF1940802E419EEC2
:10525000101A22AA484603F069F800287FF4BBAB75
:10526000DDE923450DF1940801E4DBF8580002F074
:1052700097F8BBF80C3068E519EE101A22AA4846D8
:10528000179303F053F800287FF4A5AB9DF86B202B
:10529000249D179B0DF19408FFF756B8A34645E5EA
:1052A000029B5D066ED5089B53F8042B08931FFAEA
:1052B00082FA4FF0000B51E719EE101A22AA484665
:1052C00003F034F800287FF486AB249D0DF1940898
:1052D000FFF7B3BABB4629E5BB4601332544072B8C
:1052E000C8F800B0CDE92335C8F804407FF766A8B8
:1052F000FFF791BB012B029D7FF4EDA9FFF7EDBBFA
:10530000089B049953F8042B11600893FFF775B8B4
:10531000102C239BDFF840B164DD2A4610265D4641
:1053200019EE10BA04E008F10808103C102C57DD03
:1053300001331032072BCDE92332C8E90056F2DDE4
:1053400022AA5946484602F0F1FF00287FF4EEAC4D
:10535000DDE923320DF19408E7E73846FBF750F812
:105360003346039602460690FFF7D6B8DDF80CA048
:1053700001343544072CCDE92345C8E900B67FF751
:105380008DABFBE4029B13F4007F089B53F8042BC6
:10539000089314BF5FFA82FA92464FF0000BDDE6E5
:1053A000029B13F4007F089B53F8042B089314BF4F
:1053B0005FFA82FA92464FF0000BFFF7C9B9029BE1
:1053C00013F4007F089B53F8042B3FF468A94FFAAD
:1053D00082FA4FEAEA7B089352465B46FFF7B5B87C
:1053E000AB46154601332544072BCDE92335C8F8D4
:1053F00000B0C8F8044000F3E78008F1080832E480
:1054000019EE101A484622AA02F090FF00283EF436
:10541000FFAF90E4029B347843F480630293FEF77D
:1054200096BE0C9ABC18A4EB0B04D31A9C42A8BFDE
:105430001C464FE45FFA81FA4FF0000BFFF7C3B848
:10544000089B049953F8042B08931180FEF7D5BFED
:10545000BC9F0008D09F0008EC9F000830238DF807
:105460006C3058238DF86D30029B43F00205039B8E
:10547000632B00F3CC820023079335AFDDE90E01E7
:10548000029A029542F4817224F0200600290A92C1
:105490000696C0F2AC81002341EC180B1793612CE7
:1054A00000F00583412C7FF450ADB0EE480AF0EED9
:1054B000680A1CA802F03CFE00224FF07F5351EC1A
:1054C000100BFBF7C7F90022002382468B46FBF73F
:1054D00029FC08B101231C93B74B0B93039B19972D
:1054E0003E4609EE909A0B9F18945D1ECDF83480CD
:1054F00003E0FBF717FC013D08BBB04B0022504610
:105500005946FBF7A7F989468046FBF753FC04464A
:10551000FBF736F902460B4640464946FAF7E2FFEA
:1055200017F804C0B5F1FF3FB046824606F801CB3C
:105530008B464FF000024FF00003A946D9D1A04B93
:10554000CDF83080002250465946DDF83480199F4E
:105550000D944D46189C19EE909AFBF70BFC002811
:1055600040F05F82964B504659460022FBF7DAFB2B
:1055700018B10D9BD90700F15482002D2B4606DB94
:1055800001333344302206F8012BB342FBD1F31B25
:105590000C930A9BDDF808B00293FEE419EE101A92
:1055A00022AA484602F0C2FE00287FF414AADDE9D0
:1055B00023351C9A0DF19408FFF720BADBF8580048
:1055C00001F0EEFEFEF769BE19EE101A22AA484657
:1055D00002F0ACFE00287FF4FEA9249D0DF1940892
:1055E000FFF741BB1C9B0B93DA1C02DB039A93422F
:1055F00004DD023C24F020030693D8E4DDE90B31FE
:105600008B42C0F289811BF0010F00F0BC82109A1E
:10561000134406931BF4806F03D00B9B002B00F305
:105620007782069B672423EAE37A00230A930D938B
:105630001FE52D2200238DF86B200393FEF735BF65
:10564000209BAB42BFF4A7AC30215A1C20921970AA
:10565000209B9D42F9D89EE4169B1599FF1A1A4685
:10566000384602F0F3FD6B7803B101350A220023BE
:10567000504659460026FBF735FC38E50C9BCDF823
:1056800018A05E46DDF834B00B97FB180393424632
:10569000DDF858A0139F0A9B19EE108A2846BBF12B
:1056A000000F2ED0002B6BD1013F0BF1FF3B239B52
:1056B0001599116001335044072B2490C2F804A0BF
:1056C000239361DC083203993B788C1B9C42A8BF72
:1056D0001C46002C0ADD239B166001332044072B57
:1056E00024905460239358DC3B780832002CACBFE4
:1056F0001C1B1C46002C14DC1E440A9BBBF1000F33
:10570000D0D1002B3CD11397DDE90B73FB189E42DF
:10571000B346DDF818A09046054628BF9B46FFF724
:10572000A9BA102C23991EDD10250B4604E0103C6D
:10573000102C02F1080215DD013322491030072B2D
:10574000CDE92330C2E90015F1DD22AA41464846E1
:1057500002F0ECFD002846D1103C102CDDE923308E
:1057600025AAE9DC1946174B13604B1C2044072B74
:10577000CDE92330546053DC3B7808321E44BCE74B
:105780000A9B013B0A9392E722AA4146484602F04F
:10579000CDFD40BB249825AA95E722AA414648465C
:1057A00002F0C4FDF8B93B78249825AA9EE72D2283
:1057B0008DF86B20FEF763BEBC9F000800003040F0
:1057C0000000E03FEC9F000819EE101A22AA48469C
:1057D00002F0ACFD00287FF4FEA81C9A249D0DF178
:1057E0009408FFF758BBC346FFF7A0BA0790DDE95E
:1057F0000E2303F1004308EE903A2D2308EE102A01
:1058000017934CE619EE101A22AA484602F08EFDB4
:1058100000287FF4E0A8249D0DF19408FFF71BBA3F
:1058200022AA4146484602F081FD0028DBD13B78A0
:10583000249825AA1E4460E720AA1DABCDE90032BA
:10584000B0EE480AF0EE680A039A1CAB0221484603
:1058500000F042FB472E074629D1029BDA0700F1F0
:105860008E800A9A029247229B460692209BFFF75F
:1058700092BB19EE101A22AA484602F057FD0028E2
:105880007FF4A9A81C9B249D0DF19408FFF70ABA88
:1058900020AA1DABCDE90032B0EE480AF0EE680A4E
:1058A000039A1CAB0321484600F016FB0746039BF6
:1058B000462E07EB03057FF460AB3B78302B00F0FE
:1058C00069811C9BDDF808B01D440A9B0293FFF719
:1058D00058BBDDF80CA09DF86B20CDF818A0039004
:1058E00008950A900D900B90FEF7DCBD1C9A0B9268
:1058F000002A40F36E8103990BF001030B4340F043
:105900002E810B9B069366241BF4806F40F001816F
:10591000069B23EAE37A88E60C9B109A9A180B9B65
:105920000692002B40F34A816724EDE719EE101A26
:1059300022AA484602F0FAFC00287FF44CA81C9BDF
:105940000C9A249DD31A0DF19408FFF7C3B90023D4
:105950000393FEF7FDBBD346FFF7E8B9DBF86430ED
:10596000D80707D4BBF80C30990503D4DBF85800EE
:1059700001F016FD4FF0FF330493FFF7E9B9DDE9BD
:1059800002B3FD180A9B029347230693FFF7F9BA67
:1059900054421032DFF8ACB221DA2A4610265D46B6
:1059A00019EE10BA04E008F10808103C102C14DDC0
:1059B00001331032072BCDE92332C8E90056F2DD5E
:1059C00022AA5946484602F0B1FC00287FF4AEA94D
:1059D000DDE923320DF19408E7E7AB4615460133C4
:1059E0002544072BCDE92335C8E900B47FF76BAA1E
:1059F00019EE101A22AA484602F098FC00287EF4FC
:105A0000EAAFDDE923350DF19408FEF7FABF591C22
:105A1000484601F041FD0746002800F0FE8007904F
:105A20002CE50C9B20930B9B16F8012CD97B8A420A
:105A3000334609D1302003F8010C209B5A1E2092D6
:105A400013F8012C9142F6D0392A0BBF0B9A013280
:105A5000927AD2B203F8012C99E530238DF86C309C
:105A60007823FFE4002B1A4608BF01220F9B039204
:105A7000029A002B42F480720A92FFF6B7AEDDE97B
:105A80000EAB20AA1DABCDE900324BEC10AB039A54
:105A900007951CAB0221484600F01EFA4BEC18ABF0
:105AA00007461795D9E606230393FFF73FBA1CA8CC
:105AB000B0EE480AF0EE680A02F03AFB00224FF01E
:105AC0007F5351EC100BFAF7C5FE002200238246EB
:105AD0008B46FBF727F908B101231C93564B0B9318
:105AE000FCE4002972D130228DF87A200DF17B027E
:105AF000303302F8013B1EABD31A1493FFF7A2BA5E
:105B000004F10F02D2B20121FFF75ABA07936EE6F1
