:020000040800F2
:10000000580600109D010008F3300008A72D0008D5
:10001000F1300008850900081D37000800000000C5
:100020000000000000000000000000004132000855
:100030005D0A000800000000F530000843320008A7
:10004000B7010008B7010008B7010008B7010008B0
:10005000B7010008B7010008B7010008B7010008A0
:10006000B7010008B7010008B7010008B701000890
:10007000B7010008B7010008B7010008B701000880
:10008000B7010008B7010008B7010008B701000870
:10009000B701000889090008B7010008B701000886
:1000A000B7010008B7010008B7010008B701000850
:1000B000B7010008B7010008B7010008B701000840
:1000C000B7010008B7010008B7010008B701000830
:1000D000B7010008B701000811370008B701000890
:1000E000B7010008B7010008B7010008B701000810
:1000F000B7010008B7010008B7010008B701000800
:10010000B7010008B7010008FD320008B701000878
:10011000B7010008B7010008B7010008B7010008DF
:10012000A1090008B7010008AD090008B7010008DF
:10013000B70100080000000000000000B70100083F
:1001400095090008B7010008B7010008B7010008C9
:10015000B7010008B7010008B7010008B70100089F
:10016000B7010008B7010008B7010008B70100088F
:10017000B7010008B70100080000000000000000FF
:10018000B7010008B7010008DFF80CD000F0F0FA62
:1001900000480047593A00085806001006488047B2
:1001A00006480047FEE7FEE7FEE7FEE7FEE7FEE75C
:1001B000FEE7FEE7FEE7FEE7E132000889010008FE
:1001C0002DE9F05F0546002092469B46884606468C
:1001D000814640241BE0284641464746224600F01F
:1001E00011FA53465A46C01A914110D31146184687
:1001F000224600F0F8F92D1A67EB01084F46224617
:100200000120002100F0EFF917EB00094E41201EFC
:10021000A4F10104DFDC484631462A464346BDE8E6
:10022000F09FD2B201E000F8012B491EFBD27047CB
:100230000022F6E710B513460A4604461946FFF7B2
:10024000F0FF204610BD2DE9FE4F804681EA0300F5
:10025000C00F0C46009021F0004123F00045B8EBA0
:100260000200A94105D24046214690461C460B4655
:10027000024623F00040104347D0270DC7F30A0081
:10028000C3F30A510290401A019040286BDAC3F37D
:10029000130040F4801B0098924620B10023D2EB5B
:1002A000030A63EB0B0B01985946C0F1400250461C
:1002B00000F099F906460D4650465946019A00F05D
:1002C000B1F910EB08006141002487EA115284EA79
:1002D000E7731A4340D0009A62B3019A012A4FEAA9
:1002E000075215DC001B61EB02014FF0004202EAED
:1002F0000752CDE90042001C41F5801132462B46E1
:1003000000F0E8F903B0BDE8F08F40462146F9E778
:10031000001B61EB0201001C41F5801300185B41DA
:100320002018A2F5001747EB030140EAD570B61973
:100330006D4111E06D084FEA360645EAC0754FEA97
:100340000752001B61EB0201001C41F580114908B6
:100350004FEA30000019514132462B4603B0BDE848
:10036000F04F00F0A8B90098012240000023D0EB24
:10037000020263EBE073009821464FEAE074B8EBA9
:10038000000061EB0401E9E783F000435BE781F0E3
:10039000004158E72DE9FE4F81EA030404F00044D0
:1003A00021F0004100944FF0000B23F0004350EA8D
:1003B00001045ED052EA03045BD0C3F30A54C1F3D4
:1003C0000A552C44A4F2F3340194A0FB0254C1F367
:1003D000130141F48011C3F3130343F4801301FBB1
:1003E000024400FB034E840A970A44EA815447EA18
:1003F0008357A4FB076802958D0A05FB07854FEA22
:10040000932C04FB0C542705029D4FEA065847EA3B
:100410001637B5EB08056EEB070C870E920E47EA10
:10042000811742EA8312A7FB0201B6EB0B0164EBD2
:1004300000042B0D43EA0C335E1844EB1C50DA46E3
:100440005146E7FB0201C5F313044FEA0B3343EABD
:1004500014534FEA0432019C43EA0603A4F10C044E
:100460000294009CCDE900B400F034F903B0BDE87B
:10047000F08F00200146F9E72DE9F04D81EA0304F1
:1004800004F0004B21F0004514464FF0000A23F021
:10049000004150EA050220D054EA01021DD0C5F304
:1004A0000A570246C5F31303C1F31300C1F30A56FA
:1004B00040F4801543F48013A7EB0608101BD646C2
:1004C00008F2FD3873EB050002D308F1010801E0E2
:1004D00092185B41B8F1000F03DA00200146BDE835
:1004E000F08D00204FF48011064684460EE0171B65
:1004F00073EB050705D3121B63EB050306434CEAB8
:10050000010C49084FEA300092185B4150EA01079C
:10051000EDD152EA030012D082EA040083EA050119
:10052000084305D0101BAB4106D20122002306E090
:1005300000224FF0004302E06FF0010253101AEB6B
:1005400006004CEB085110EB0A0041EB0B01BDE833
:10055000F04D00F0B0B8C1F30A5210B5C1F3130169
:1005600040F2FF3341F480119A4201DA002010BDBD
:1005700040F233439A42A2F2334203DC524200F08B
:1005800041F810BD904010BD00F0004230F0004036
:100590000AD0C10D01F56071C0F3160042EA0151A5
:1005A000C20840071143704700200146704701F020
:1005B000004330B421F0004150EA010206D00A0D98
:1005C000A2F56072C1F31301002A02DC30BC0020E6
:1005D0007047440F44EAC104C100E01830BC00EB8E
:1005E000C25000F031B8202A04DB203A00FA02F1B0
:1005F000002070479140C2F1200320FA03F3194311
:1006000090407047202A04DB203A21FA02F00021B2
:10061000704721FA02F3D040C2F120029140084312
:1006200019467047202A06DBCB17203A41FA02F020
:1006300043EAE07306E041FA02F3D040C2F120023F
:1006400091400843194670470029A8BF7047401CD5
:10065000490008BF20F00100704710B4B0FA80FCD8
:1006600000FA0CF050EA010404BF10BC704749B115
:10067000CCF1200421FA04F411FA0CF118BF012185
:1006800021430843A3EB0C01CB1D4FEA00614FEA65
:10069000102042BF002010BC704700EBC350104434
:1006A0000029A4BF10BC7047401C490008BF20F0BF
:1006B000010010BC704710B5141E73F1000408DA75
:1006C000401C41F1000192185B411A4301D120F016
:1006D000010010BD2DE9F04D92469B4611B1B1FAD3
:1006E00081F202E0B0FA80F220329046FFF77BFF01
:1006F00004460F4640EA0A0041EA0B0153465A46B7
:10070000084313D0114653EA010019D0C8F1400242
:100710005046FFF777FF05460E465046594642467B
:10072000FFF761FF084305D0012004E02046394669
:10073000BDE8F08D0020054346EAE0762C433743C0
:100740000A986305E40AA0EB08000022FD0A44EAC7
:1007500047540A3002D500200146E9E70105101987
:100760006941DDE9084500196941BDE8F04DA2E79E
:10077000064C074D06E0E06840F0010394E80700EE
:1007800098471034AC42F6D3FFF702FD444100080D
:100790008441000830B58C1810F8012B12F00F03BB
:1007A00001D110F8013B120906D110F8012B03E02A
:1007B00010F8015B01F8015B5B1EF9D101E001F863
:1007C000013B521EFBD1A142E6D3002030BD10B543
:1007D0000146806B026C12F0500F05D0026CD206FD
:1007E00026D500F024FA10BD016C41F400710164BB
:1007F00001688A6812F0405F17D1027EAAB9CA6AFE
:1008000012F4700F02D08A6852050ED44A6822F0A2
:1008100020024A60016C21F480710164016CC904FA
:1008200003D4016C41F00101016400F0BFF910BD77
:10083000806BC26CBDE810400846104710B5806B55
:1008400040210164416C41F00401416400F0EFF982
:1008500010BD10B5806B00F0E9F910BD464910B528
:100860004A6822F440324A604A6843681A434A6040
:1008700001684A6822F480724A6001684A68036924
:1008800042EA03224A6001684A6822F040724A60E4
:1008900001684A6883681A434A6001688A6822F4DA
:1008A00000628A6001688A68C3681A438A60816A44
:1008B0006FF07062D14201688A6822F070628A60CB
:1008C00001688A680CD0836A1A438A6001688A6862
:1008D00022F040528A6001688A68C36A1A4301E0C4
:1008E00022F040528A6001688A6822F002028A601F
:1008F00001688A68037E42EA43028A6090F8201009
:10090000002901684A680FD042F400624A60016819
:100910004A6822F460424A6001684A68174C436A98
:1009200004EB43331A4301E022F400624A60016899
:10093000CA6A22F47002CA620168CA6A838B104CC8
:1009400004EB03531A43CA6201688A6822F40072F6
:100950008A6001688A6890F8303042EA43228A60EF
:1009600001688A6822F480628A6001688A68406946
:1009700042EA8020886010BD0023014000E0FFFFB4
:100980000000F0FFFEE70000014800F096BA00000A
:1009900040040120014800F090BA000068040120E2
:1009A000014800F027BD000098010010014800F048
:1009B00021BD0000F801001001681823CAB2103AE6
:1009C000B2FBF3F2054B6FF30901032A9B5CC3658D
:1009D00000D9091D816508467047000024410008C0
:1009E00010B5014600208B698A6A4FF0C07453B17C
:1009F000B3F5005F15D072B1012A0CD0022A0AD0DB
:100A0000032A09D104E01AB1012A06D0022A03D12F
:100A1000C96AC90100D5012010BDC96AA142FAD036
:100A200010BD002AF7D0012AF2D0022AF3D0032AFF
:100A3000F3D010BD30B50468256825F48025256005
:100A4000046863608368402B036803D09960006882
:100A5000C26030BD9A600068C16030BD70477047A9
:100A600078B50024009490F83C20012A19D0012286
:100A700080F83C200A6807230568092A13D9EE6824
:100A80000A3A02EB420293409E43EE600B788A687A
:100A90000A3B03EB43039A400368DD682A43DA60AC
:100AA00010E0022078BD2E6902EB420293409E4383
:100AB0002E610B788A6803EB43039A4003681D6933
:100AC0002A431A614A681F23072A13D205686E6BEE
:100AD000521E02EB820293409E436E630B790A889A
:100AE0005B1E92B203EB83039A4003685D6B2A435B
:100AF0005A6327E005680D2A12D22E6BD21F02EB33
:100B0000820293409E432E630B790A88DB1F92B2C8
:100B100003EB83039A4003681D6B2A431A6311E0B9
:100B2000EE6A0D3A02EB820293409E43EE620B792D
:100B30000A880D3B92B203EB83039A400368DD6A97
:100B40002A43DA62164B0568144A9D4206D10D68A5
:100B5000122D03D1556845F48005556005689D4206
:100B600018D10B68102B01D0112B13D1536843F40B
:100B700000035360096810290CD10A490A4A096820
:100B8000B1FBF2F101EB8101490000E0491E009147
:100B90000029FBD180F83C40002078BD00230140B3
:100BA000002001400C00002040420F0070B50446B8
:100BB0001848844208D1184901204FF4FA52C862FB
:100BC0001649144800F0E0F81548844220D1154C2D
:100BD0004FF6FF70144E216845F25555814204D0FE
:100BE00004F5CE742168814206D1C822211D0C482B
:100BF00000F0CAF8256004E04FF48051304600F060
:100C000059FE3046BDE870404FF4006100F052BE1E
:100C100070BD0000F803012030010010B041002039
:100C2000B00301207800012000080240704770479F
:100C300070B504004FF0000503D0206C002610B101
:100C400007E0012070BD204600F01CF8666484F8BF
:100C50003C60206CC00610D4206C20F4885040F01A
:100C6000020020642046FFF7F9FD6664206C20F046
:100C7000020040F00100206400E0012584F83C609F
:100C8000284670BD2DE9F04387B00646142168461A
:100C9000FFF7CEFA3648DFF8D4C0143835680024A0
:100CA00033490323334A07154FF400684FF40059C2
:100CB000654529D10D6845F480750D60096801F41A
:100CC00080710591016841F0010101600068694689
:100CD00000F00100059001208DE81900104600F099
:100CE0000DFD264D244805F10C0CC5E90004AC604F
:100CF0008CE89003EC612C6228466C622FE0B563AF
:100D0000AE6307B0BDE8F083DFF874C06545F8D185
:100D10000D6845F400750D60096801F400710591D6
:100D2000016841F0010101600068694600F00100BE
:100D3000059002208DE81900104600F0DFFC114DEF
:100D40000D4805F10C0C303028604FF00070C5E9FB
:100D500001048CE89003EC612C6228466C6200F080
:100D600019FC0028CBD0FFF77AFEC8E7002001402D
:100D70004438024000000240106402409801001014
:100D800000210140F8010010F8B50E46002104468C
:100D9000009190F83C00012807D0012084F83C0025
:100DA00020688368DB0702D011E00220F8BD836869
:100DB00043F0010383603748374B0068B0FBF3F022
:100DC00000EB400000E0401E00900028FBD12068AE
:100DD0008368DB075CD0236C40F20165AB4343F4CE
:100DE000807323644068400505D5206C20F40050D2
:100DF00040F480502064206CC00404D5606C20F066
:100E00000600606400E0616484F83C10A16B244833
:100E1000224DC863A16B23480864A16B2248C864B3
:100E200021686FF0220008602068416841F080610D
:100E300041602068816841F48071816021681346B7
:100E400032464C31A06B00F00FFC68681749C006B1
:100E5000206806D088421BD1816811F0405F13D012
:100E600016E08842F8D0124A904203D1D1F8042308
:100E7000D206F1D00F4A90420AD1D1F8041301F002
:100E80001F011029E8D303E0816841F080418160AF
:100E90000020F8BD0C00002040420F00002301405C
:100EA000CF070008530800083D0800080020014053
:100EB000002101400022014070472DE9F05F054606
:100EC000006800244669D0F804908768D0F80CB018
:100ED000D0F810A0D0F81880F10748D0F90714D046
:100EE00001218160B80703D5284600F0F7F90CE02E
:100EF000780702D54FF4006407E0380702D54FF4B5
:100F0000805402E0284600F0E8F9F80516D5296873
:100F10004FF480708860B80503D5284600F0E0F9EA
:100F20000CE0780502D544F4005407E0380502D5FA
:100F300044F4804402E0284600F0D1F9F80316D5C5
:100F400029684FF480308860B80303D5284600F044
:100F5000C9F90CE0780302D544F4004407E03803F3
:100F600002D544F4803402E0284600F0BAF9300794
:100F700007D55FEACB6004D52968102044F40074DB
:100F8000C86070074FF0080707D55FEA0B7004D5FB
:100F90002868C760284600F09BF9B00706D5286886
:100FA000C068800702D0284600F093F9700607D584
:100FB0005FEACA6004D52968102044F4806408619F
:100FC000B00607D55FEA0A7004D52868076128468D
:100FD00000F080F9F00606D528680069800702D085
:100FE000284600F078F9B00308D55FEAC96005D556
:100FF000296810204860284600F06EF9F00307D5F4
:101000005FEA097004D528684760284600F06BF94C
:10101000300446D55FEA497040D5F00504D55FEA53
:10102000C87001D044F00104B00504D55FEA8870AF
:1010300001D544F00204700504D55FEA487001D57B
:1010400044F00404300529D518F0700F26D008F0BC
:101050007000402815D006DC102809D020280AD0BE
:10106000302816D10AE050280ED0602811D10EE0A9
:1010700044F008040DE044F010040AE044F02004B9
:1010800007E044F0400404E044F0800401E044F44C
:1010900080742868816921F07001816129680420C9
:1010A0004860002C05D0686A204368622846FFF734
:1010B00003FFBDE8F09F70B5040003D094F8200052
:1010C00010B104E0012070BD204600F081F82068D6
:1010D000016821F00201016000F0F8FB05460526D9
:1010E00004E000F0F3FB401B0A2811D82068406898
:1010F0008007F6D42068016841F00101016000F02A
:10110000E5FB05460BE000F0E1FB401B0A2806D991
:10111000606A40F40030606284F82060D2E72068A2
:101120004068C007EFD0207E0128206801683DD0CC
:1011300021F080010160607E01282068016838D0BC
:1011400021F040010160A07E01282068016833D0B1
:1011500021F020010160E07E0128206801682ED086
:1011600041F010010160207F01282068016829D02A
:1011700021F008010160607F01282068016824D007
:1011800021F004010160D4E902010843D4E904120A
:10119000114308436168491E08432168C861002063
:1011A0006062012084F82000002070BD41F08001C1
:1011B000C0E741F04001C5E741F02001CAE721F056
:1011C0001001CFE741F00801D4E741F00401D9E76D
:1011D000F0B587B0044614216846FFF729F8374B6D
:1011E0003748DFF8D4E01968D4F800C0344A022543
:1011F0000326092710300024491CF44524D1196026
:10120000012907D1016841F000710160006800F018
:1012100000700590106840F001001060106802AB8B
:1012200000F0010005904FF4C050CDE9000583E8BF
:10123000D0006946234800F061FA002211461520CB
:1012400000F0B2FB152033E0DFF87CE0F44531D14B
:10125000D0F800C04CF0806CC0F800C0D0F800C0DE
:1012600001290CF0806CCDF814C0196007D1016819
:1012700041F000710160006800F000700590106896
:1012800040F002001060106802AB00F00200059010
:101290004FF44050CDE9000583E8D00069460B4883
:1012A00000F02CFA00221146402000F07DFB402087
:1012B00000F06CFB07B0F0BD00640040940100102A
:1012C0003038024000000240006800400004024044
:1012D0007047704770477047704770477047704756
:1012E000704770477047704770B54379012B1AD02B
:1012F000012646710223037105682C6840F6FE73CF
:1013000093409C43D1E900310B43934023432B602E
:1013100001680B68C0249440A3430B600671002150
:101320004171084670BD022070BD70B5040003D045
:101330002079002510B105E0012070BD65712046BF
:1013400000F008F8022020712561012020710020A2
:1013500070BD000010B586B0044614216846FEF743
:1013600067FF1149206888421CD11048002102689B
:1013700042F000520260006800F0005005900B48F7
:101380001038026842F001020260006800F00100BB
:101390000590102000900320CDE901016946044822
:1013A00000F0ACF906B010BD0074004040380240B7
:1013B0000000024018B5046800940068104421B190
:1013C000143000900360002018BD0830F9E790F851
:1013D0003510022903D08021416501207047052185
:1013E00080F835100068016821F0010101600020DB
:1013F000704700002DE9F84304464FF00009CDF88E
:10140000009063484FF41651A56D0068B0FBF1F7EA
:101410002E6894F85C10082000FA01F131420FD0D8
:1014200021680A6852070BD50A6822F004020A6094
:1014300094F85C108840A860606D40F00100606521
:1014400094F85C104FF0010808FA01F0304208D01F
:1014500021684969090604D5A860606D40F0020062
:10146000606594F85C1004208840304208D0216800
:101470000968890704D5A860606D40F004006065C4
:1014800094F85C1010208840304218D02168096818
:10149000090714D5A86020680168490304D50068CD
:1014A000000308D5A16C07E00168C90503D40168F1
:1014B00021F008010160216C09B12046884794F8A9
:1014C0005C1020208840304231D021680968C9066C
:1014D0002DD5A86094F8350005282068016806D04D
:1014E000490347D5006800031DD4616C1CE021F05E
:1014F000160101602068416921F080014161206C82
:1015000008B9A06C20B12068016821F008010160D1
:1015100094F85C103F208840A86084F8349084F8E8
:101520003580216D1FE0E16B09B120468847606D71
:1015300000282BD0606DC00714D0052084F835003A
:101540002068016821F0010101600098401C0090B2
:10155000B84203D820680068C007F6D184F83490F8
:1015600084F83580E16C002910D001B02046BDE838
:10157000F04308470168C905D5D4016821F010017E
:10158000016084F8349084F83580CCE7BDE8F883B6
:101590000C0000202DE9F041044600F097F90646C2
:1015A0005CB1002584F83450022084F835002068AE
:1015B000016821F0010101600DE00120BDE8F0812A
:1015C00000F084F9801B052805D9202060650320E0
:1015D00084F83500F2E720680068C007F0D122687F
:1015E000116820480140D4E901031843D4E90336C7
:1015F0003343184363691843A3691843E3691843E5
:10160000236A18430843616A042903D1D4E90B1300
:1016100019430843106020684069666A20F007019A
:1016200030460E43012704280CD1A06A0643E06A25
:1016300040B12046FFF7D4F920B14020606584F81E
:101640003570BAE7206846612046FFF7B5F994F88F
:101650005C203F2191408160656584F835700020F1
:10166000ACE700003F8010F02DE9F0410446866DA4
:1016700090F83400002501280DD0012084F83400B2
:1016800094F835700020012F07D084F8340002252B
:101690002846BDE8F0810220FBE7022784F8357078
:1016A00060652046FFF7C6F994F85C103F2088403B
:1016B000B0602068016841F016010160206C20B123
:1016C0002068016841F0080101602068016841F06C
:1016D00001010160DCE7000070B5044600F0F6F897
:1016E0000546601C02D004480078044400F0EEF87F
:1016F000401BA042FAD370BD000000202DE9F84F36
:1017000000224FF0010803254FF00F0E0B6808FA76
:1017100002F42340A3426ED14E68012E05D0022E62
:1017200003D0112E01D0122E12D186684FEA420C3E
:1017300005FA0CF7BE43CF6807FA0CF7374387600A
:101740004668A6430C79C4F30014944034434460C3
:10175000C668570005FA07FC8C6826EA0C06BC40F0
:101760003443C4604C68022C01D0122C13D1D4082D
:1017700000EB8404A346D4F8209054074FEAD46ABF
:101780000EFA0AF629EA06090E6906FA0AF646EA88
:101790000906CBF8206006680C7926EA0C0604F0EE
:1017A0000304BC40344304604C68E40065D5364C07
:1017B000266846F480462660246822F0030604F476
:1017C00080440094314C3444A446D4F80848960729
:1017D000370F0EFA07F6B4432D4EB04201D1002662
:1017E00024E02C4EB04201D101261FE02A4EB04227
:1017F00002D102261AE040E0284EB04201D1032671
:1018000014E0274EB04201D104260FE0254EB0422D
:1018100001D105260AE0244EB04201D1062605E09A
:10182000224EB04201D1072600E00826BE402643E2
:10183000CCF808681E4E34684F689C43FF0300D5FF
:101840001C4334601A4C241D26684F689E43BF0316
:1018500000D51E432660164E083634684F689C43F8
:10186000FF0200D51C433460114E0C3634684F68BB
:101870009C43BF0200D51C433460521C102AFFF465
:1018800045AFBDE8F88F0000443802400030014009
:10189000000002400004024000080240000C024028
:1018A000001002400014024000180240001C0240D8
:1018B000003C0140426931EA020200D10904816121
:1018C00070470AB1816170470904FBE701488068ED
:1018D000704700000000002002488168027811442F
:1018E00081607047000000200B4810B5016841F48A
:1018F00000710160016841F480610160016841F498
:1019000080710160032000F06FF8002000F006F8FD
:1019100000F024F8002010BD003C024070B50D4DD1
:1019200004464FF47A712878B1FBF0F00A4909684F
:10193000B1FBF0F000F037FE48B9102C07D20022BE
:101940002146501E00F030F800206C6070BD012070
:1019500070BD0000000000200C0000200A4808B5FF
:10196000016841F480410160006800F4804000900B
:101970000548001F016841F080510160006800F0D7
:101980008050009008BD000044380240002809DB68
:1019900000F01F02012191404009800000F1E02089
:1019A000C0F8001170470000F0B40E4B1B680C46E5
:1019B000C3F30223C3F10705042D00D90425191D23
:1019C000072901D2002300E0DB1E012606FA05F1FB
:1019D000491E214099409E40761E16403143F0BC7E
:1019E00001F09DBE0CED00E0064900F0070208681A
:1019F0004FF6FF03184040EA0220034A10430860F4
:101A0000704700000CED00E00000FA052DE9F047FA
:101A10000E46050065D0DFF81481D8F80000F7B253
:101A200000F00F00B04207D288F80070D8F800002C
:101A300000F00F00B04254D128683D4C810712D508
:101A4000400703D5206840F4E05020602878000764
:101A500003D5206840F4604020602068A96820F029
:101A6000F000084320602878C0072DD0304968680E
:101A70000839012812D0022813D0032811D0096890
:101A8000890700292DDA216821F003010143216033
:101A9000FFF71CFF814641F2883A0EE0096889038E
:101AA000EFE709688901ECE7FFF710FFA0EB0901F8
:101AB000514502D90320BDE8F0872068696800F02D
:101AC0000C00B0EB810FEFD1D8F80010404601F0C8
:101AD0000F01B14207D90770006800F00F00B04253
:101AE00001D00120E7E72878400705D52068E9689C
:101AF00020F4E050084320602878000706D52068CD
:101B0000296920F4604040EAC100206000F038F804
:101B10002168084AC1F30311515CC84006490860B6
:101B200006480068FFF7FAFE0020C4E7003C0240C8
:101B3000083802402C4100080C000020040000205E
:101B40000448054900680968044AC1F38221515CD0
:101B5000C84070470C000020083802403C41000893
:101B60000448054900680968044AC1F34231515CE0
:101B7000C84070470C000020083802403C41000873
:101B8000154810B5006810F00C02144813D041102D
:101B9000042A0FD0082A0ED10F4C241F2268236874
:101BA00002F03F025B0207D52068C0F38810A0FB5B
:101BB000010106E0084610BD2168C1F38811A1FBB0
:101BC00000010023FEF7FCFA2168C1F30141491C22
:101BD0004900B0FBF1F010BD083802400024F400C9
:101BE000F0B51F4C16460D461D4B0021022203275F
:101BF000283C0028186887B019D040F0040018600D
:101C0000186800F00400059010020090CDE9012151
:101C1000CDE9037169461348FFF770FD206845EA76
:101C2000C60120F078400843206007B0F0BD40F0C6
:101C300001001860186800F0010005904FF48070F2
:101C40000090CDE90121CDE9037169460648FFF70F
:101C500055FD2068354320F0EC602843E4E70000A0
:101C60003038024000080240000002402DE9F84FE1
:101C700004006ED02078DFF83C93C007A9F104057A
:101C80004AD009F104000168C1F38101012908D09B
:101C90000068C0F3810002280AD1D9F80000400290
:101CA00006D52868800337D560680028E1D033E086
:101CB0006068B0F5803F10D0B0F5A02F286810D034
:101CC00020F480302860286820F480202860606834
:101CD000A8B1FFF7FBFD06460DE0286840F4803010
:101CE000F4E740F480202860F7E700BFFFF7EEFD3F
:101CF000801B642873D828688003F7D50CE0FFF7B1
:101D0000E5FD064605E000BFFFF7E0FD801B642807
:101D1000F0D828688003F7D42078DFF89C82800709
:101D20004FF0000A3ED5A348001D016811F00C0FCA
:101D300008D00068C0F3810002280BD1D9F8000058
:101D4000400207D42868800716D5E068012800D132
:101D500012E02BE1E068B8B10120C8F80000FFF7FD
:101D6000B5FD064605E000BFFFF7B0FD801B022869
:101D7000C0D828688007F7D52868216920F0F800C6
:101D800040EAC10028600DE0C8F800A0FFF79EFD02
:101D9000064604E0FFF79AFD801B02281FD828683A
:101DA0008007F7D42078000722D5824E83486169E6
:101DB000703671B101210160FFF788FD074604E02C
:101DC000FFF784FDC01B022809D830688007F7D5CB
:101DD0000EE0C0F800A0FFF779FD074605E082E0BD
:101DE000FFF774FDC01B02287DD830688007F7D448
:101DF0002078400768D5DFF8BCB100270BF13C0B19
:101E0000DBF80000C0000BD4DBF8001041F080517B
:101E1000CBF80010DBF80000012700F080500090A4
:101E2000674E3068C00510D4306840F48070306070
:101E3000FFF74CFD009005E0FFF748FD0099401AC0
:101E4000022850D83068C005F6D55A4EA0686C36C6
:101E500001280FD00528306810D020F00100306034
:101E6000306820F004003060A068B8B1FFF72EFDA4
:101E700000900FE0306840F00100F4E740F004000B
:101E80003060F7E7FFF722FD0099411A41F28830F0
:101E9000814266D830688007F4D50EE0FFF716FD62
:101EA000009007E0FFF712FD0099411A41F28830D7
:101EB000814256D830688007F4D42FB1DBF8001087
:101EC00021F08051CBF80010A069C8B33949091D31
:101ED0000968C1F3810102294AD00228504607D07F
:101EE000C8F8600000E03CE0FFF7F0FC04463BE08F
:101EF0004746C8F86000FFF7E9FC064605E000BF6A
:101F0000FFF7E4FC801B02282BD828688001F7D457
:101F1000D4E907010843A16A2A4A490802EB0141B2
:101F2000626A41EA8211084394F82C1040EA016188
:101F3000C9F8001001203866FFF7C8FC044606E027
:101F400036E000BFFFF7C2FC001B022809D8286852
:101F50008001F7D52CE000BFFFF7B8FC001B02287A
:101F600002D90320BDE8F88F28688001F4D41FE06F
:101F70000128F7D0D9F80000E26900F4800191420D
:101F800014D1226A00F03F0191420FD147F6C0718F
:101F9000626A0140914209D1A26A00F44031914243
:101FA00004D1E16A00F07060884201D00120D9E7D5
:101FB0000020D7E70438024000004742800E474225
:101FC000007000400000FFFF70B5040005D0002540
:101FD000A56294F8510010B106E0012070BD84F8AC
:101FE0005050204600F030F8022084F8510020685C
:101FF000016821F040010160D4E901010843D4E9FE
:1020000003121143084361690843218B01F40071F5
:102010000843E1690843216A0843A16A084321682B
:102020000860A069042101EA1040616A0843216840
:1020300048602068C16921F40061C16165650120C3
:1020400084F85100002070BDF0B587B0044614211B
:102050006846FEF7EDF82A4A21680024294802253F
:1020600003260527914217D1264914310A6842F404
:1020700080520A60096801F480510591016841F0BD
:10208000010101600068694600F001000590E02050
:10209000CDE900051C482CE01C4A91422ED119497B
:1020A00010310A6842F480420A60096801F48041F4
:1020B0000591016841F004010160016801F004012B
:1020C0000591016841F002010160006802AA00F078
:1020D000020005900820CDE9000582E8D00069469D
:1020E0000B48FFF70BFB4FF48060CDE90005094872
:1020F000694602AA82E8D000FFF700FB07B0F0BDF6
:1021000000300140303802400000024000380040FA
:1021100000080240000402402DE9F84F04464068E0
:102120000025984616460F464FF0040BB0F5827F07
:1021300001D1A06888B194F85000012818D001207E
:1021400084F85000FFF7C2FB814694F851004FF02D
:10215000000A01280ED002257DE084F851B0134614
:102160000A462046CDF8008000F02CF9BDE8F88F33
:102170000220FBE7002F6DD0002E6BD084F851B009
:10218000C4F854A0A763A687E687C4F830A0A4F8D3
:1021900034A0A4F836A0C4F840A0C4F844A0A068B5
:1021A000B0F5004F04D12068016821F4804101603E
:1021B00020680168490603D4016841F040010160CC
:1021C000E068D8B139E020688168C90709D0007B90
:1021D000A16B0870A06B401CA063E08F401EE087DD
:1021E0000CE0FFF773FBA0EB0901414503D3B8F105
:1021F000FF3F03D036E0B8F1000F33D0E08F002866
:10220000E1D11DE020688168C90709D0C068A16BD1
:102210000880A06B801CA063E08F401EE0870CE06C
:10222000FFF754FBA0EB0901414503D3B8F1FF3F91
:1022300003D017E0B8F1000F14D0E08F0028E1D1EF
:102240004A464146204600F056FF08B1202060650E
:10225000606D00B10125012084F8510084F850A080
:10226000284683E70325F6E72DE9F84F044690F862
:10227000500000271D461646894601280DD04FF014
:10228000010B84F850B0FFF721FB804694F8510011
:10229000BA46012804D002278EE00220BDE8F88F5C
:1022A000B9F1000F7DD0002E7BD0032084F85100BF
:1022B000C4F854A0C4F83090A686E686C4F838A0C6
:1022C000A4F83CA0A4F83EA0C4F844A0C4F840A0E0
:1022D000A068B0F5004F04D12068016841F4804146
:1022E000016020680168490603D4016841F040019B
:1022F0000160E068B0F5006F606803D030B3012E74
:1023000024D040E008B1012E1CD1206B2168008848
:10231000C86006E020688168890709D5216B0988B3
:10232000C160206B801C2063E08E401EE08609E0C7
:10233000FFF7CCFAA0EB0800A84202D3681C01D03A
:1023400031E07DB3E08E0028E4D11FE0206B2168EE
:102350000078087306E020688168890709D5216B39
:1023600009780173206B401C2063E08E401EE086DC
:1023700009E0FFF7ABFAA0EB0800A84202D3681C03
:1023800001D010E075B1E08E0028E4D14246294624
:10239000204600F0DFFE08B120206065A06820B173
:1023A00007E008E0FFE7032706E02068C1688068CF
:1023B0000090606D00B1012784F851B084F850A0FE
:1023C00038466BE72DE9F84F044690F85000002797
:1023D0000A9E1D4692468B464FF0010901280ED0F9
:1023E000012084F85000FFF771FA804694F85100FC
:1023F000616801280CD0B1F5827F07D102E002208C
:10240000BDE8F88FA16809B9042801D00227C2E00D
:10241000BBF1000F27D0BAF1000F24D01DB394F800
:102420005100042802D0052084F851000020606586
:10243000C4F838A0E587A587C4F830B0E586A5863E
:102440002064606420680168490603D4016841F093
:1024500040010160E068B0F5006F606805D0E8B346
:10246000012D46D07FE0012795E008B1012D39D13B
:10247000206B21680088C860206B801C2063E08E80
:10248000401EE0862EE02068816889070FD5E18E26
:1024900069B1B9F1010F0AD1216B0988C160206BC4
:1024A000801C2063E08E401EE0864FF0000920680B
:1024B0008168C9070CD0E18F51B1C068A16B088059
:1024C000A06B801CA063E08F401EE0874FF00109E5
:1024D000FFF7FCF9A0EB0800B04200E009E001D3EF
:1024E000701C50D1E08E0028CDD1E08F0028CAD1D9
:1024F0003FE0206B216800780873206B401C20634C
:10250000E08E401EE0862EE02068816889070FD5A6
:10251000E18E69B1B9F1010F0AD1216B097801731C
:10252000206B401C2063E08E401EE0864FF00009C7
:1025300020688168C9070CD0E18F51B1C068A16BD8
:102540000870A06B401CA063E08F401EE0874FF036
:102550000109FFF7BBF9A0EB0800B04202D3701CE1
:1025600001D010E07EB1E08E0028CDD1E08F0028B0
:10257000CAD142463146204600F0ECFD28B1012781
:102580002020606507E0032705E0A06818B92068EF
:10259000C16880680090012084F85100002084F810
:1025A000500038462CE710B5401EB0F1807F01D3B3
:1025B000012010BD4FF0E02460610F21601701F091
:1025C000AEF80020A06107202061002010BD7047F8
:1025D0007047000070B590F83C20012A32D00124E9
:1025E00080F83C40022280F83D2003685A689D68CC
:1025F00022F070060A6832435A60134B02689A420E
:1026000014D0B2F1804F11D0104B9A420ED0104B23
:102610009A420BD00F4B9A4208D00F4B9A4205D0EA
:102620000E4B9A4202D00E4B9A4204D1496825F0D3
:1026300080031943916080F83D40002180F83C10F0
:10264000084670BD022070BD00000140000400403B
:1026500000080040000C0040000401400040014020
:102660000018004010B5040003D094F83D0010B1EC
:1026700007E0012010BD002084F83C00204600F057
:102680000DF8022084F83D00211D206800F03CFE7A
:10269000012084F83D00002010BD000030B587B057
:1026A000044614216846FDF7C3FD2C482368002228
:1026B0002B49022483421BD129481430036843F07C
:1026C00001030360006800F001000590086840F015
:1026D00001000860086800F00100059048150090AE
:1026E000CDE901420120CDE9032069461D481CE0E7
:1026F0001B481D4D1030AB421BD1036843F004034F
:102700000360006800F004000590086840F00200D3
:1027100008600868694600F002000590802000907B
:10272000CDE90142CDE903241048FEF7E7FF07B0E9
:1027300030BD0F498B42FAD1016841F008010160B8
:102740000068002200F00800059011463220FFF7D3
:102750002BF93220FFF71AF9E9E7000000000140E9
:1027600030380240000002400008004000040240EF
:10277000000C004070B5044690F83C00012817D0CA
:10278000012584F83C50022084F83D0020688268CE
:1027900022F0770222F47F4282600868502830D00D
:1027A0000DDC20284DD005DC98B310283BD148E043
:1027B000022070BD302844D0402834D139E0602850
:1027C00028D0702806D0B0F5805F2CD0B0F5005F1F
:1027D00029D10AE0CB68D1E90121206800F0F8FD99
:1027E0002068816841F0770109E0CB68D1E90121D7
:1027F000206800F0EDFD2068816841F4804181602F
:1028000011E0CA684968206800F037FE502120684E
:1028100007E016E0CA684968206800F03FFE6021C2
:10282000206800F0DFFD84F83D50002084F83C0073
:1028300070BDCA684968206800F01FFE402120680A
:10284000EFE7226801461046EBE7000010B50F499C
:102850000D4C0368B1F8C0100D4A89B2A3420AD1E9
:10286000007F01280DD0022804D10A48B0F8C0002A
:1028700080B2506010BD084CA342FBD1007F0828F5
:10288000F8D1116010BD00000008004010000020C9
:1028900030010010A00100200000014070B5044686
:1028A000006801694FF00005C943890715D4C16864
:1028B000C943890711D4E91E0161012020772068EE
:1028C00080698007204602D0FFF7C0FF04E000F0D7
:1028D00098F8204600F096F8257720680169C943EA
:1028E000490717D4C168C943490713D46FF00401DD
:1028F0000161022020772068806910F4407F204623
:1029000002D0FFF7A3FF04E000F07BF8204600F0C0
:1029100079F8257720680169C943090716D4C16889
:10292000C943090712D46FF0080101610420207720
:102930002068C0698007204602D0FFF787FF04E0C7
:1029400000F05FF8204600F05DF825772068016907
:10295000C943C90617D4C168C943C90613D46FF067
:1029600010010161082020772068C06910F4407FC1
:10297000204602D0FFF76AFF04E000F042F820464C
:1029800000F040F8257720680169C943C90708D1DC
:10299000C168C943C90704D1891E0161204600F0FE
:1029A00033F820680169C943090609D4C168C943DD
:1029B000090605D46FF0800101612046FFF707FE8C
:1029C00020680169C943490609D4C168C943490659
:1029D00005D46FF040010161204600F05EF82068E8
:1029E0000169C94389060BD4C168C943890607D464
:1029F0006FF0200101612046BDE87040FFF7E8BD9F
:102A000070BD704770470000094988420ED10948DF
:102A1000026809480949C263496A0164511AC160E0
:102A200001214164C9020648FEF744BF7047000017
:102A3000D4050120240800403001001000000140AE
:102A40000008024070B5044690F83C00012812D0FE
:102A5000012584F83C50022084F83D00204600F017
:102A6000C9FC01004FF0000007D084F83D5084F805
:102A70003C00012070BD022070BD2168CA6822F0B0
:102A80004002CA602168CA6822F48042CA6084F8A1
:102A90003D5084F83C00002070BD70477047000036
:102AA00070B5026804461068D168536910F00F0FC2
:102AB00052D003F0010501F490762E435FD0C20797
:102AC00005D0CA0503D5E26B42F00102E26342077A
:102AD00005D5DA0703D0E26B42F00202E263820717
:102AE00005D5DA0703D0E26B42F00402E263020785
:102AF00007D501F020022A4303D0E26B42F008021E
:102B0000E263E26B002A33D0800604D5880602D542
:102B1000204600F0EBFC20684069E16BC0F38010B8
:102B2000090700D428B3204600F0D2FC2068416990
:102B300049061AD5416921F040014161606BA0B19D
:102B40001B490165606BFEF742FC002810D0606BEA
:102B5000016DBDE870400847830610D58B060ED581
:102B60002046BDE8704000F0C1BC2046FFF796FF4C
:102B700070BD2046FFF792FF0020E06370BD0306A2
:102B800006D50B0604D52046BDE8704000F08EBD8A
:102B90004006F3D54806F1D5D168204621F0400122
:102BA000D160202184F8391000F0FCF870BD0000DD
:102BB000C134000870B5040004D094F83900002531
:102BC00010B106E0012070BD84F83850204600F0B6
:102BD00023F8242084F839002068C16821F40051CA
:102BE000C160204600F0CEFC2068016921F49041CC
:102BF00001612068416921F02A0141612068C168B2
:102C000041F40051C160E563202084F8390084F864
:102C10003A00002070BD000010B586B004461421B3
:102C20006846FDF705FB17492068884228D11648F9
:102C30000021026842F400320260006800F40030B3
:102C4000059011481038026842F0010202600068E5
:102C500000F0010005900C2000900220CDE9010158
:102C6000032003900720049069460848FEF746FDBC
:102C7000002211462620FEF797FE2620FEF786FE4C
:102C800006B010BD00440040403802400000024041
:102C900090F83A30202B22D1F9B1F2B190F83830C7
:102CA000012B1CD081628285C2850021C163222252
:102CB00080F83A2080F838100168CA6842F48072BF
:102CC000CA6001684A6942F001024A610068C1684D
:102CD00041F02001C16000207047012070470220B0
:102CE0007047000010B524492DED068B884240D175
:102CF00022489FED23ABA0F1500401789FED228B79
:102D00009FED239B606D752908D064290DD0722931
:102D10009FED21AB02D0782907D021E0FDF734FCEC
:102D200053EC1A2BFDF78FFA05E0FDF72DFC53EC61
:102D30001A2BFDF729FBFDF73AFC6065FDF724FC33
:102D400053EC182BFDF798FB53EC192BFDF722FBE6
:102D5000FDF701FC0346002211461148FEF72AFB4D
:102D6000BDEC068B0122BDE8104004490248FFF784
:102D70008FBFBDEC068B10BD140601208001001032
:102D80009A9999999999B93F6666666666660A4006
:102D9000000000000000B0407B14AE47E17A843FA1
:102DA000900401207047FEE77FB50024114800948D
:102DB000019402940E49039401604FF44031C0E93C
:102DC000011401250461057680F820400A49C0E914
:102DD0000A14C561C46080F830504561FDF728FFD2
:102DE000CDE90045694603480294FDF739FE7FBDF1
:102DF00000200140B00301200100000F7FB5002436
:102E000011480094019402940E49039401604FF418
:102E10004031C0E9011401250461057680F82040A5
:102E20000A49C0E90A14C561C46080F830504561A0
:102E3000FDF7FEFE0095CDE9015469460248FDF715
:102E40000FFE7FBD00210140F80301200100000FAB
:102E50000B480A494FF440220160032141600021E0
:102E60008160C0E903124FF480124261017641761D
:102E70008176C17601774177FEF71DB90064004085
:102E8000400401200B480A494FF44022016003210D
:102E9000416000218160C0E903124FF48012426159
:102EA000017641768176C17601774177FEF703B9E5
:102EB00000680040680401202DE9F04186B014212B
:102EC0006846FDF7B5F929480024016841F0800102
:102ED0000160016801F080010591016841F0040181
:102EE0000160016801F004010591016841F00101F0
:102EF0000160016801F001010591016841F00201E2
:102F0000016000681A4F00F0020041F6104505907C
:102F1000002229463846FEF7D4FCDFF858804FF4EB
:102F20004076002231464046FEF7CBFC0095012555
:102F3000CDE90154694638460394FEF7DFFB2802C9
:102F400000900220CDE90104039469460A480494E4
:102F5000FEF7D4FB0096CDE9015469464046039440
:102F6000FEF7CCFB06B0BDE8F0810000303802402F
:102F70000008024000040240000002400C480B49D7
:102F80004FF4006201604FF4827141600021C0E99A
:102F9000021292100161C0E905123022C0E9072136
:102FA000416281620A21C162FFF70EB80030014020
:102FB000A40401200D480C494FF4007201604FF445
:102FC000827141604FF4004181600911C1600021AC
:102FD0000161C0E90512C1610162416281620A2199
:102FE000C162FEF7F1BF000000380040FC04012080
:102FF00010B588B014216846FDF71AF9002411486D
:1030000005940F490694C0E900144FF6FF71C0E91A
:103010000241046144618461FFF724FB07200090B2
:103020006020CDE90104694606480494FFF70AFDD3
:10303000059405A903480694FFF7CCFA08B010BD23
:10304000000001405405012010B588B014216846E5
:10305000FDF7EEF80024114805940F490694C0E9E5
:1030600000144FF6FF71C0E9024104618461FFF76B
:10307000F9FA072000906020CDE90104694607486D
:103080000494FFF7DFFC059405A904480694FFF7B4
:10309000A1FA08B010BD000000080040940501200E
:1030A00010B586B000241148009401940294039452
:1030B00004940D490594C0E900144FF08061C0E903
:1030C000024104618461FFF7CDFA4FF48050009013
:1030D00069460648FFF74EFB049404A9034805948B
:1030E000FFF778FA06B010BD000C0040D4050120AF
:1030F000FEE770477047F8B5044640684FF48273A6
:10310000984221D1A0684FF48065B0F5004F01D0FE
:10311000A8420AD12068066826F04006066060686A
:10312000984211D1A068A8420ED000920B4600220E
:103130008021204600F03AF8002804D0606D40F06D
:10314000200060650320F8BD00920B46002201219B
:10315000EFE7000038B504461248134B0068B0FB97
:10316000F3F04FF47A73584300906068B0F5827FB3
:103170000DD10B46009200228021204600F016F867
:1031800070B1606D40F020006065032038BD00988C
:1031900030B1401E009020688068C0430006F6D51C
:1031A000002038BD0C00002000366E012DE9F041F2
:1031B0001D4617460E460446DDF8188008E0681CD8
:1031C00006D0FEF783FBA0EB0800A8420BD255B156
:1031D0002068806836EA000030D00020B842EED186
:1031E0000020BDE8F0812068416821F0E0014160E5
:1031F0006068B0F5827F0BD1A068B0F5004F02D0B7
:10320000B0F5806F04D12068016821F040010160B1
:10321000A06AB0F5005F09D12068016821F400516F
:1032200001602068016841F400510160012084F8C8
:103230005100002084F850000320D2E70120CDE7A0
:103240007047FEF749BB000030B593B030216846A7
:10325000FCF7EEFF14210CA8FCF7EAFF1E4800253E
:10326000016841F080510160006800F080501190C9
:103270001A48016841F48041016000684FF48031D0
:1032800000F4804011900320CDE900010121039159
:1032900010210224049106948904CDE907108020AE
:1032A000CDE9090404200B906846FEF7DFFC0CA969
:1032B0000F2081E831004FF4A0500F90E0021090F1
:1032C00003210CA8FEF7A2FB002211461046FEF7D0
:1032D00087FC13B030BD0000403802400070004051
:1032E0000548016841F47001016003494FF0006036
:1032F000803908607047000088ED00E00148FFF762
:10330000CDBA0000D4050120F0B50268254C264D49
:10331000264E274F274B4FF0804CA04209D06045E6
:1033200007D0A84205D0B04203D0B84201D098429D
:1033300004D122F0700E4A6842EA0E02A0421BD06D
:10334000604519D0A84217D0B04215D0B84213D06A
:10335000984211D0184DA8420ED0184DA8420BD05B
:10336000174DA84208D0174DA84205D0164DA842C7
:1033700002D0164DA84203D122F44075CA682A43F0
:103380004D6922F080022A4302608A68C2620A689C
:103390008262A04201D0984201D1096901630121F2
:1033A0004161F0BD00000140000400400008004001
:1033B000000C004000040140004001400044014076
:1033C0000048014000180040001C00400020004060
:1033D00010B5846842EA032224F47F440A4322435E
:1033E000826010BD826822F070020A4342F0070139
:1033F0008160704710B503689A6822F070044A68CB
:10340000224322F007040A6822439A604A6812F0B5
:103410000F0F30D11211082A2DD2DFE802F02C2C28
:103420002C2C0B2127040B69D1E902210068FFF73E
:10343000CFFF20E00A68052A10D00268136A146AD8
:1034400024F00104146202689469096924F0F0040C
:1034500044EA01119161006803620CE0012010BD93
:103460000A698968006800F008F804E00A69896858
:10347000006800F013F8002010BD10B5036A046A5C
:1034800024F001040462846924F0F00444EA021484
:1034900023F00A020A438461026210BD10B5036A78
:1034A00023F0100303628369046A23F4704343EA40
:1034B000023224F0A00343EA01118261016210BDCF
:1034C00010B5806B0021C185C184FFF7E7FA10BDFC
:1034D0000168CA6822F49072CA6001684A6922F0E1
:1034E00001024A61202180F83A10704710B590F827
:1034F0003A10222901D0022010BD8168B1F5805F09
:1035000011D00169002901681FD0496801F07F03CB
:10351000816A4A1C82620B70C18D491E0904090C24
:10352000C18518D02BE00269816A002A02685268BE
:1035300005D0D2B20A80816A491C8162ECE7C2F3ED
:1035400008020A80816A891CF7E74A68816A4B1C75
:1035500083620A70E0E70168CA6822F02002CA604C
:103560000168CA6822F48072CA6001684A6922F060
:1035700001024A61202180F83A10FFF7B3FB0020D6
:1035800010BD00002DE9F041044600680169E268C1
:1035900021F44051114301612169A068E2690843A7
:1035A0006169114308432168CA6849F20C639A4370
:1035B0000243CA6020684169A26921F44071114345
:1035C0004161E069192764253226B0F5004F354A7C
:1035D000354920684FF0000806D0884201D090425B
:1035E00036D1FEF7BDFA35E0884201D0904202D1D3
:1035F000FEF7B6FA01E0FEF7A3FA61684A18A0FBED
:10360000070148EB0803FCF7DBFD0146B0FBF5F0D2
:103610000201B1FBF5F06FF01803584301EB800095
:1036200006EBC000B0FBF5F000F0F80002EB400242
:10363000B1FBF5F0584301EB800006EBC000B0FB96
:10364000F5F000F00700216810448860BDE8F081C3
:10365000FEF776FA61688B0F8A00A0FB0701FCF782
:10366000AFFD0146B0FBF5F06FF01802504301EBDF
:10367000800006EB0010B0FBF5F000F0F002B1FBAB
:10368000F5F002EB0012B1FBF5F06FF018035843B0
:1036900001EB800006EB0010B0FBF5F000F00F002E
:1036A000D1E70000001401400010014090F83910EB
:1036B000212901D0022070478168B1F5805F016A3D
:1036C0000BD04A1C0262026809785160C18C491E05
:1036D0000904090CC1840ED017E009880268C1F3FF
:1036E0000801516001690029016A02D0491C016288
:1036F000ECE7891CFBE70168CA6822F08002CA6017
:103700000068C16841F04001C160002070470000BE
:103710000148FFF7C5B9000014060120FEE70907BC
:10372000090E002804DB00F1E02080F80014704747
:1037300000F00F0000F1E02080F8141D704702E057
:1037400008C8121F08C1002AFAD17047704700202C
:1037500001E001C1121F002AFBD170472DE9F05F83
:10376000074600202DED048B15460E469B46C822C9
:103770004FEA000100EBD0735B1007EB8303401CA2
:103780009B889042C3F30B031944F3DB91FBF2F4E3
:10379000A4F500643946204600F032F9574BD7F8BB
:1037A000940157491862D7F898015862002000BF69
:1037B00001EB8002526841F82020401C0928F7DB09
:1037C00000224C62C3E90442A146104651F820C0D1
:1037D000401C62440A28F9DB0A2092FBF0F0824682
:1037E0005861086A9846201A00EE100A9861B8EEEF
:1037F000C00A10EE100AFCF7C7FE9FED421B53EC07
:10380000112BFCF7C7FD00EE10AA41EC190BB8EE26
:10381000C00A10EE100AFCF7B7FE9FED3C1B53ECFC
:10382000112BFCF7B7FD00EE109A41EC180BB8EE27
:10383000C00A10EE100AFCF7A7FE9FED361B53ECF2
:10384000112BFCF7A7FD53EC182BFCF7FCFC53ECF9
:10385000192BFCF7F8FCFCF7AAFE3049C8F81C004D
:103860008B4501DA00240AE02D485FEACB724FF461
:10387000806101D0032400E00024FEF71BF898EDDE
:10388000070A3268BDEEC00A10EE101A114431600A
:1038900098ED070A29680122BDEEC00A10EE100A51
:1038A000081A28603068204430602868001B2860AF
:1038B0003068010B062000F0A7F930880122C0F320
:1038C0000B01072000F0A0F928680122010B052058
:1038D00000F09AF928880122C0F30B01042000F0BF
:1038E00093F900204FEA000107EB8002401C516071
:1038F0006428F9DBBDEC048BBDE8F09F30010010BB
:1039000030FD00200AD7A3703D0AF23F88855AD3C4
:10391000BCE3743FFCA9F1D24D6240BF20BF02005E
:103920000008024010B500F01BF800F0F7F94EF661
:10393000903000F0E9F9012000F0A8F91E20FDF711
:10394000CBFE022000F014FA1E20FDF7C5FE002079
:1039500000F09CF9BDE810401E20FDF7BDBE000040
:10396000012210210148FDF7ACBF00000008024011
:1039700038B5204C012211022046FDF7A2FF01229A
:10398000550229462046FDF79CFF0220FDF7A4FEC4
:1039900001204FF6FF7101EA0030ADF8000000226F
:1039A00029462046FDF78DFF0A2301226946124869
:1039B000FEF75AFC012229462046FDF782FF00222D
:1039C00029462046FDF77DFF0F2040F6FF7101EBF1
:1039D0000030ADF800000A23012269460648FEF7D0
:1039E00043FC012229462046FDF76BFF03490020D6
:1039F000088038BD00040240FC0401209001001042
:103A0000F0B5DFF850C0124C0022DCF83830C8277F
:103A1000164644F823005B1C93FBF7F007FB1030BD
:103A2000CCF83800D1F89431154600BF54F8220084
:103A30000644C01A00D54042521C0544C72AF5DB93
:103A400096FBF7F095FBF7F2C1E96502F0BD0000C7
:103A500058FD0020300100101CB5FDF745FFFFF7B1
:103A60002BFA27480024016841F4800101600068B6
:103A7000224600F48000009021463820FDF794FF94
:103A80003820FDF783FF002211463A20FDF78CFF16
:103A90003A20FDF77BFFFFF771FA1B4819490160D7
:103AA0004FF4E131C0E901140C21C460C0E90441C4
:103AB0008461C461FFF77EF81549009413480194AE
:103AC00008600846FDF731FC009400226946104862
:103AD0000194FDF709FCFFF7B7FAFFF789FAFFF742
:103AE000DFFAFFF767FAFFF75FF9FFF787F9FFF7EC
:103AF000AFF9FFF7C7F900BF00F00CF8FCE70000D2
:103B00003038024000440040140601200074004098
:103B10009004012088B020216846FCF789FB2D4CD9
:103B20004FF6FF7704F5CE7827600025C8F80070BF
:103B3000FFF71EFF684600F087FA0122D102092034
:103B400000F062F8244E0122306B010B062000F0D9
:103B50005BF8308E0122C0F30B01072000F054F80F
:103B6000706B0122010B052000F04EF8B08E01228F
:103B7000C0F30B01042000F047F8FFF7D3FEFFF776
:103B800063FB0120FDF7A8FD0020B062F062C822AF
:103B9000211D1248FDF7F8F845F255562068B0424D
:103BA00008D10D4A2B463432111F0A48FFF7D6FDC3
:103BB00027600CE0D8F80000B042EFD1064A2B464F
:103BC0003432111F0648FFF7C9FDC8F800706D1C9C
:103BD000E4E700007800012030010010B00301206C
:103BE0001402012070B5074D4FF480740022214665
:103BF0002846FDF766FE21462846BDE870400122B2
:103C0000FDF75FBE00040240F8B504464FF6FF70B2
:103C100000EA043008431A4E1746ADF800004FF48E
:103C20000075002229463046FDF74BFE0A2301228B
:103C300069461448FEF718FB012229463046FDF775
:103C400040FE002229463046FDF73BFE012F10D1F1
:103C50000D490120A41C0A88A040104340F4604292
:103C6000ADF8002008800A23012269460548FEF7C6
:103C7000FBFA012229463046FDF723FEF8BD00007D
:103C800000040240FC040120900100102DE9F843DB
:103C900032270D4D8046002404EB4406694635F872
:103CA000160040F4204000F011F8BDF8000005EBCC
:103CB0004601000A4880B8F1010F00D18880641CD9
:103CC000BC42E9DBBDE8F8830000001073B50C4C82
:103CD0000D46002210212046FDF7F3FD642301224A
:103CE00069460848FEF7C0FA6423012229460548C0
:103CF000FEF712FA012210212046FDF7E2FD7CBDFD
:103D000000080240A404012001460348408A40F410
:103D1000005000F0DDB900000000001010B5134C99
:103D200040F20221208840F4005000F0D1F92088B0
:103D30004AF2A00140F4005000F0CAF9B4F826019C
:103D4000002140F4005000F0C3F9B4F826014FF40C
:103D5000807140F4005000F0BBF9B4F82601BDE8D2
:103D6000104040F40050002100F0B2B900000010F3
:103D70007CB5B149B1F81E2122F0020242F00103E4
:103D8000A1F81E31EE22A1F8B220A1F87C20002279
:103D9000A1F8D020B1F8D64044F08004A1F8D64074
:103DA0002224A1F80641A1F8182130248C8320B1E7
:103DB000012804D0022804D005E0342002E0382095
:103DC00000E03C20888311F81C0F9B4D00F07F0021
:103DD00021F80C0B012021F80C2B723521F8120C64
:103DE000CA8021F8180B082021F81E2C21F80C0C91
:103DF000062021F8060CC88386200880022008834C
:103E00001620888403F0FD00A1F8D2000220FDF7FF
:103E100063FC8A4E002210213046FDF752FD03203C
:103E2000FDF75AFC2888642340F4C040ADF8000038
:103E3000012269468248FEF717FA00240320FDF7A5
:103E40004BFCA4EB840005EB8000642330F8021CDB
:103E50000079012241EA0020ADF8040001A9784868
:103E6000FEF702FA641C082CE8DB0320FDF734FCA3
:103E7000012210213046FDF724FD0220FDF72CFC25
:103E80006D4D0220C635FDF727FC0022102130467B
:103E9000FDF717FD0320FDF71FFC2888642340F47D
:103EA000C040ADF80000012269466548FEF7DCF924
:103EB00000240320FDF710FCA4EB840005EB800038
:103EC000642330F8021C0079012241EA0020ADF899
:103ED000040001A95A48FEF7C7F9641C072CE8DB67
:103EE0000320FDF7F9FB012210213046FDF7E9FC24
:103EF0000220FDF7F1FB534D0220FDF7EDFB002200
:103F000010213046FDF7DDFC0320FDF7E5FB288896
:103F1000642340F4C040ADF80000012269464848DF
:103F2000FEF7A2F900240320FDF7D6FBA4EB8400E2
:103F300005EB8000642330F8021C0079012241EA7D
:103F40000020ADF8040001A93D48FEF78DF9641C7E
:103F5000062CE8DB0320FDF7BFFB012210213046D1
:103F6000FDF7AFFC0220FDF7B7FB364C02200C3406
:103F7000FDF7B2FB002210213046FDF7A2FC032022
:103F8000FDF7AAFB2088642340F4C040ADF8000090
:103F9000012269462A48FEF767F90320FDF79CFBDA
:103FA00034F8020C2179642340EA0120ADF80400C2
:103FB000012201A92248FEF757F90320FDF78CFBE7
:103FC000012210213046FDF77CFC0220FDF784FB26
:103FD000A41D0220FDF780FB002210213046FDF7D2
:103FE00070FC0320FDF778FB2088642340F4C04078
:103FF000ADF80000012269461148FEF735F90320AB
:10400000FDF76AFBA088642340EA0020ADF80400B5
:10401000012201A90A48FEF727F90320FDF75CFBFE
:10402000012210213046FDF74CFC0220FDF754FB25
:10403000BDE87C4000F036B80000001000080240E7
:10404000A40401200E01001010B5044602220168EC
:104050001046FFF7D9FD022203206168FFF7D4FD67
:1040600002220420A168FFF7CFFD02220520E168AB
:10407000FFF7CAFD022206202169FFF7C5FD0222D3
:1040800007206169FFF7C0FD02220820A169FFF740
:10409000BBFD02220920E169FFF7B6FDBDE8104033
:1040A000FFF7A0BD10B5094C4FF48071B4F826019C
:1040B00040F4005000F00CF8B4F82601BDE81040C0
:1040C00040F40050002100F003B800000000001090
:1040D00013B50220FDF700FB104C002210212046F2
:1040E000FDF7EFFB0320FDF7F7FA64230122694691
:1040F0000B48FEF7B9F86423012201A90848FEF72E
:10410000B3F80320FDF7E8FA012210212046FDF75D
:10411000D8FB0220FDF7E0FA1CBD000000080240B9
:10412000A40401200006101600061016000000006E
:104130000000000001020304060708090000000057
:104140000102030484410008000000201000000068
:104150003E3700089441000800000010980100005C
:104160009407000894410008100000204406010054
:104170004E3700081042000898010010C0040000EB
:104180004E37000801000000100000000000000091
:104190000024F4007162036205620662106211621B
:1041A0001262136214621562166217621862196253
:1041B0001A621B621C621D621E621F62F062F16263
:1041C000F262F362F462F562F662F762F862F96233
:1041D000FA62FB62FC62FD5390015391015392011C
:1041E00053930153940153950153960153970153EF
:1041F0009801539901539A01539B0153E00153E1F4
:1042000001533002033B3202428002328000000040
:040000050800018965
:00000001FF
