:020000040800F2
:1000000078070020A12300084122000843220008AD
:10001000452200084722000849220008000000008D
:100020000000000000000000000000004B2200085B
:100030004D220008000000004F2200085122000855
:10004000D5230008D9230008DD230008E123000898
:10005000E5230008E9230008ED230008F123000848
:10006000F5230008F9230008FD23000801240008F7
:1000700005240008092400080D24000811240008A4
:1000800015240008192400081D2400082124000854
:100090002524000855220008292400082D240008E2
:1000A0003124000835240008392400083D240008C4
:1000B0004124000845240008492400084D24000874
:1000C0005124000855240008592400085D24000824
:1000D00061240008652400085B22000869240008E8
:1000E0006D24000871240008752400087924000894
:1000F0007D24000881240008852400088924000844
:100100008D2400089124000861220008952400082D
:10011000992400089D240008A1240008A5240008B3
:1001200067220008A92400086D220008AD240008F9
:10013000B12400080000000000000000B524000801
:1001400073220008B9240008BD240008C124000857
:10015000C5240008C9240008CD240008D1240008C3
:10016000D5240008D9240008DD240008E124000873
:10017000E5240008E9240008000000000000000059
:10018000ED240008F124000881B000200090002236
:10019000DFF84C04416841F480414160416801F45A
:1001A0008041009100990092036843F080530360FE
:1001B000006800F080500090009801B070472DE971
:1001C000F84386B000F0EEF82268DFF81834DFF864
:1001D0001884DFF81804DFF818149A424FF4005519
:1001E0004FF400664FF480691ED1002200924B69E3
:1001F000DFF8007443F480734B6100234A6902F412
:10020000807200F04DF8012200F03EF8C7F800803F
:1002100000207860B860F860C7F810907E61BD611A
:10022000F8613862786224E0DFF8CC339A4228D152
:10023000002200924B69DFF8C47343F400734B61F2
:1002400000234A6902F4007200F02AF8022200F04A
:100250001BF808F1300038604FF00071796000221F
:10026000BA60FA60C7F810907E61BD61FA613A62C7
:100270007A62384600F0DCF908B100F055FDA7635A
:10028000BC6307B0BDE8F083096801F0010100918B
:100290000099019202930022039201A900F056BD39
:1002A0000092009A009303230A6842F001020A6058
:1002B000704710B586B000F075F8DFF84413236876
:1002C0000A68DFF84043DFF82803521CA34212D12A
:1002D000012A00F036F841F0010101604FF4C051ED
:1002E00000F071F900F069F900220021152000F0FA
:1002F0003BFE152021E0DFF81043A3421FD100236D
:100300000093012A046944F080640461036903F0E6
:1003100080630093009B00F014F841F0020101603B
:100320004FF4405100F005F9032200F046F9002295
:100330000021402000F018FE402000F032FE06B000
:1003400010BD0A600AD100210091026942F00072DA
:100350000261016901F00071009100990022009290
:1003600002220168704738B586B000F01BF8246897
:10037000DFF89C52AC4213D100F019F941F0005162
:100380000161016901F0005100F0DEF810210368FD
:1003900043F001030360032200F0DAF800F010F9E3
:1003A00007B030BD044601A8142100F025BE10B5E9
:1003B00086B004466846142100F01EFE2168954C64
:1003C0008B48A14218D100210591426942F4805224
:1003D00042610022416901F480510591059905921D
:1003E000E02100F0A0F8006800F0010005900598F9
:1003F0007E4800F039F833E0874A914232D100213B
:100400000591026942F4804202610022016901F40F
:100410008041059105990592036843F00403036048
:10042000016801F00401059105990592082100F089
:1004300074F8006800F0020005900598774800F015
:1004400013F800F083FC0221019100224FF4806038
:1004500002920321009003910522049269466B48A1
:1004600000F074FC06B010BD0091019200210291D1
:1004700003220521049103926946704710B586B0A6
:10048000FFF790FF2168664C5948A14214D1002122
:100490000091426942F0010242610022416901F08B
:1004A000010100F051F84FF4007100F03CF800F049
:1004B0004FF80491012115E05A4A914216D10021CA
:1004C0000091026942F0040202610022016901F018
:1004D000040100F039F8802100F01FF800F029F83D
:1004E00004910221059100F06BF814E04E4A91420C
:1004F00011D100210091026942F00802026100223C
:10050000006900F0080000900098322000F02CFDF7
:10051000322000F046FD06B010BD036843F0020330
:10052000036002227047036843F001030360022264
:100530007047006800F00200009000983348019175
:100540000292002103917047009100990092704738
:10055000006800F001000090009824480191029288
:1005600000210391704738B586B0FFF71BFF246860
:100570002E4DAC4219D100F01AF841F4003101615E
:10058000016901F40031FFF7DFFF0C21FFF7CBFF1A
:1005900000F019F8072100F011F8002200212620B0
:1005A00000F0E2FC262000F0FCFC07B030BD00208B
:1005B000009000220E4801697047092105910492BC
:1005C00001A900F0C3BB006800F001000090009892
:1005D0000648019102920021039103227047000016
:1005E00040380240002001401064024000000240F8
:1005F00030380240B40200200021014014030020E2
:1006000074030020006400400068004000040240C1
:1006100000740040003001400038004000080240F3
:100620000000014000080040000C00400044004071
:1006300070B5044600F000FD06460CB9012070BDFF
:1006400004F13405002028700221697020680268D6
:1006500052085200026022681068C10722D500F0DB
:10066000EBFC801B0628F6D320202862032169704A
:10067000032070BDB0F5005F09D1032E42D8DFE83A
:1006800006F00C0A0C02B1F1C07F3BD105E0022E4E
:1006900003D9F61E36D1C80134D540212962012084
:1006A000687070BD1368DFF82C0261680340A068B1
:1006B0000B43E168034320690B4361690343A0696D
:1006C0000B43E1690343206A0B43616A0343042936
:1006D00003D1E16A206B01430B43136023685A691D
:1006E000606AD208042840EAC2020BD1A66AE16A15
:1006F000324339B1A0690028BCD1002E18BF022EA8
:10070000C9D0C0D35A61204600F0F2F8A96A3F224E
:100710008A408260002028620121697070BD90F8D3
:100720003510022903D0802242650120704705213F
:1007300080F83510006802685208520002600020FC
:1007400070472DE9FC41044604F13406002062495B
:1007500000904FF41650776A0A683D68B2FBF0F8D3
:10076000B06A082100F0BBF80ED020680268530779
:100770000AD5026822F004020260B06A8140B960C2
:10078000316A41F001013162B06A25FA00F1CA070D
:100790000BD521684A69110607D5012202FA00F03B
:1007A000B860306A40F002003062042100F096F830
:1007B00008D021680A68930704D5B860306A40F011
:1007C00004003062102100F089F819D021680A680D
:1007D000130715D5B860206801684A0307D500687B
:1007E000010309D5716959B12046884708E00168BD
:1007F000CA0501D400F077F8F16809B120468847AE
:10080000B06A202100F06BF843D021680A68D30653
:100810003FD5B86020687178052920D1026822F0A0
:10082000160202602068416921F080014161F06890
:10083000002804BF7069002802D0206800F053F837
:100840003F22B06A8240BA6000213170012272708A
:10085000F16900293CD02046BDE8FC410847016809
:100860004A0307D5006801030FD4316989B12046D6
:1008700088470EE00168CA0507D4016821F010011D
:1008800001600020307001227270B16809B1204609
:100890008847306AE0B1306AC10713D5052070700F
:1008A000206801684908490001600098401C8045A3
:1008B000009003D320680168CA07F6D40020307086
:1008C00001217170B16919B12046BDE8FC410847AA
:1008D000BDE8F3813F8010F00C000020B06A01FAFF
:1008E00000F005427047016821F00801016070477F
:1008F00030B5016808A401F0FF02103A1823B2FBDA
:10090000F3F2890A8902A55CC565042A28BF091D7E
:100910008165084630BD000000061016000610165E
:100920002DE9F84F88B000F08DFB00F078F9002039
:1009300000900022DFF8AC03DFF8AC83016841F4DB
:10094000800101600021006800F48000009008F13F
:10095000D0050098382000F007FB382000F021FB7C
:10096000002200213A2000F0FFFA3A2000F019FBA3
:10097000DFF8780328614FF482710020A8612862B3
:1009800069613020E86200210A20E8634FF4006BBF
:1009900069624FF4007A29636963A963C5F81CB0E2
:1009A000C5F828A008F1E00000F066FB08F5A8767D
:1009B000DFF83C0330644FF4E13171640020B0642F
:1009C000F06430650C21B065F065716508F5C8709C
:1009D00000F094FB0FF2543208F5147700F016F98A
:1009E000C44A3A6408F52474204600F041FD002111
:1009F0000091002201926946204600F04DFD03A8B7
:100A000000F00AF90FF2343EBB4ADEE90001CDE9FD
:100A1000010108F5E874002022646064A0644FF6C8
:100A2000FF79C4F84C902065A06508F5047000902B
:100A300000F05AFD072103916022002105910791E2
:100A4000049203A9009800F063FE00210191029135
:100A500001A9009800F05AFF02A800F0DDF80FF29B
:100A6000D422A64B00F0D2F8236000226260A2607C
:100A7000C4F80C9022616261A261204600F034FD4E
:100A8000072102916022002104910691039202A99C
:100A9000204600F03DFE002100910191204669466C
:100AA00000F034FF02A800F0AEF80FF29822944B49
:100AB00000F0ACF800224FF080613B607A60BA60D1
:100AC000F9603A61BA61384600F00EFD4FF480508B
:100AD000029002A9384600F0CAFD00210091019160
:100AE0003846694600F012FF4FF48271E966002132
:100AF0008448854FA866A967E9677160B160F160B5
:100B000031614FF4004028670A217161C5F874B063
:100B1000C6F800A008F59C7000F0AEFA00F072F87C
:100B20007A48C8F800000021C8F808104FF4403691
:100B30000020012108F13004C8F80460C8F8100052
:100B400088F8181088F82000C8F82C00C8F8287019
:100B5000C8F80C00C8F81C102170C8F814104046E2
:100B600000F01AFF002001210090019102906946D7
:100B7000404600F039FF00F045F86548A061E661A5
:100B800000212162002008F16006A062012131707D
:100B9000307270613761606271603176E16208F1D4
:100BA000480000F0F9FE012000220090019002921E
:100BB000694608F1480000F017FF564830630321EA
:100BC00000204FF440277163B063F06337644FF443
:100BD0008014746408F1A8063060B08008F19000B9
:100BE00001F024F84C483061032100207161B061AC
:100BF000F061376274622860A88008F1B80001F0E3
:100C000015F8FEE76846102100F0F6B9D2E90001B8
:100C1000CDE90001704701A8142100F0EDB970B5CD
:100C200086B0FFF7F8FF00242E483C4D009441F6B3
:100C3000104601683A4C41F080010160026802F000
:100C400080020092002200990092036843F004039E
:100C50000360016801F004010091009900920368AB
:100C600043F001030360016801F001010091009964
:100C700000923146036843F002030360006800F00D
:100C8000020000900098284600F039F900224FF445
:100C90004071204600F033F90121029100220392B5
:100CA0000492019601A9284600F050F84FF4807094
:100CB000022101900291002203920492059201A95F
:100CC000184800F043F84FF44071019101220021CF
:100CD00003910491029201A9204600F037F806B072
:100CE00070BD00003038024010000020003001408C
:100CF0000044004000740040000800400000014033
:100D0000000C0040003800400100000F00200140AE
:100D100000210140006400400068004000080240DB
:100D20000004024000000240704700000000000084
:100D300000000000000000000000000000000000B3
:100D40000000000000000000000000002DE9F84F46
:100D50000D464FF000086C490F22012304462E680F
:100D600003FA08F000EA0609814540F0C0804FEA26
:100D7000480C032606FA0CF66FEA060E6E68012E82
:100D800018BF022E03D0112E18BF122E11D1A66843
:100D9000EF680EEA060607FA0CF73E43A66066689F
:100DA00026EA00006E68C6F3001606FA08F630431D
:100DB0006060E068AE680EEA000006FA0CF63043A8
:100DC000E0604FEA88006E68022E18BF122E12D122
:100DD0004FEAD80604EB860600F01C07D6F820A0E0
:100DE00002FA07FB2AEA0B0AD5F810B00BFA07F74C
:100DF00047EA0A07376226680EEA06072E7906F0E8
:100E0000030606FA0CF63E4326606E68F6006ED5C1
:100E1000002600964FEA980C0E68DFF8F0E046F4E2
:100E200080460E6000F00C000E6806F480460096C6
:100E3000009E5EF82C7002FA00F627EA0606344F90
:100E4000BC4208BF002722D0324FBC4208BF012756
:100E50001DD0314FBC4208BF022718D02F4FBC42D3
:100E600008BF032713D02E4FBC4208BF04270ED063
:100E70002C4FBC4208BF052709D02B4FBC4208BFEE
:100E8000062704D0294FBC420CBF0727082707FAC2
:100E900000F030434EF82C006FEA090C2448066835
:100EA0000CEA060E6E68F70348BF49EA0E0EC0F85A
:100EB00000E046680CEA060E6E68B70348BF49EAD0
:100EC0000E0EC0F804E086680CEA060E6E68F702A3
:100ED00048BF49EA0E0EC0F808E0C6680CEA060EE4
:100EE0006E68B60248BF49EA0E0EC0F80CE008F181
:100EF0000108B8F10F0F7FF632AFBDE8F18F02B9EC
:100F000009048161704700004438024008380140FC
:100F1000000002400004024000080240000C0240B1
:100F2000001002400014024000180240001C024061
:100F3000003C01400901020002D429488154704755
:100F4000284B02F00F021A4402F8041C7047264B8B
:100F500019684FF6FF020002114000F4E0600843F8
:100F6000224908431860704738B51F4B1C68C4F30A
:100F70000223C3F10704052C28BF04241D1D072DDF
:100F800034BF0023DB1E012505FA04F4641E214052
:100F9000994005FA03F35B1E1A401143BDE8344043
:100FA000C8E7010007D4012200F01F01104B8A405E
:100FB000400943F82020704710B5401EB0F1807FF3
:100FC00001D3012010BD0B4C60600F214FF0FF30AA
:100FD000FFF7B0FF0021A16007202060002010BDB6
:100FE00000E400E018ED00E00CED00E00000FA0580
:100FF00000E100E010E000E0002200F09DBF30B40E
:10100000002513E050F8042BD30744BFA9F10103D6
:101010009A18091F042942F8045BFAD213468C0778
:1010200044BF15809B1CC90748BF1D7050F8041BA6
:101030000029E7D130BC704701484068704700BFC5
:101040000000002080B50B48016841F40071016088
:10105000026842F480620260016841F480710160BC
:101060000320FFF774FF002000F080FFFFF78CF8EB
:10107000002002BD003C024038B5040001D101202F
:1010800032BD0020A06204F15005687820B900212B
:1010900029702046FFF78BF90220687000F027F8CE
:1010A0006268A168E06823680A43216902436069B5
:1010B0000A43A169024301F40071E0690A43216A0D
:1010C0000243A06A0A4302431A60A169606A226867
:1010D000090C01F00401014351602068C16921F449
:1010E0000061C161002068600121697032BD206823
:1010F000016821F0400101607047000038B504002C
:1011000001D1012032BD00F021F808B900F022F829
:1011100000F012F800F023F8FFE7416100F001F859
:1011200032BD2068C16841F40051C1600020686090
:1011300020216970A9707047242068702068C168F8
:1011400021F40051C160204600F01FB904F13805B8
:1011500068787047002129702046FFF704BA20689C
:10116000016921F4904101612068416921F02A015F
:101170007047416921F040014161606B704738B5AB
:10118000044625682968EA686B6911F00F0007D1E9
:1011900088065FD593065DD52046BDE83240ABE0BA
:1011A000D80702D412F4907F54D0C80705D5D505CE
:1011B00003D5E06B40F00100E063480705D5DD078B
:1011C00003D5E06B40F00200E063880705D5DD073A
:1011D00003D5E06B40F00400E063080707D59506EF
:1011E00001D4D80703D5E36B43F00803E363E06B56
:1011F00000286CD0880604D5910644BF204600F034
:101200007BF820684069E16B0A0701D440061BD5D2
:10121000204600F05DF8206841694A060FD5FFF7C7
:10122000A8FF60B10FF2C5010165606BFFF777FAA7
:1012300000284CD0606B016DBDE834400847204663
:10124000BDE8324000F0B2BE204600F0AFFE002004
:10125000E06331BD08062AD5130628D594F8390075
:10126000212834D1A068B0F5805F206A0BD10188B5
:10127000C1F30801696020690028206A0CBF811C45
:10128000411C216203E0411C216200786860E08C0F
:10129000401EE08480B2D0B92068C16821F080018E
:1012A000C1602068C16841F04001C16031BD48069D
:1012B0000DD551060BD5E86820F04000E8602021EC
:1012C00084F839102046BDE8324000F070BE31BDD0
:1012D0000168CA6822F49072CA6001684A695208BB
:1012E00052004A61202180F83A107047806B00213B
:1012F000C185C18400F05ABE80B590F83A10222909
:1013000041D18168B1F5805F12D101690368826AB9
:101310000029596805D1C1F308011180826A911C26
:1013200004E001F0FF011180826A511C81620FE02C
:1013300001690029816A04D14A1C826203685A68E3
:1013400005E04A1C826203685A6802F07F020A7054
:10135000C18D491EC18589B299B90168CA6822F058
:101360002002CA600168CA6822F48072CA600168FB
:101370004A69520852004A61202180F83A1000F070
:1013800017FE002002BD022002BDD0B5064664272C
:1013900032681169F06821F4405101431161192448
:1013A000D3682D48B168034030690B43716903432A
:1013B000F0690B430343D3605169B06921F4407174
:1013C00001435161F36925482549B3F5004F1FD109
:1013D0008A4218BF824202D100F0F4FD01E000F021
:1013E000E9FD0246A4FB02017268D30F520000F02F
:1013F000F9FD00F037F8FF0032376420B7FBF0F05A
:10140000420002F4F87202EB011200F007001DE046
:101410008A4218BF824202D100F0D4FD01E000F000
:10142000C9FD0246A4FB02017268930F920000F00E
:10143000D9FD00F017F83F0132376420B7FBF0F018
:1014400000F0F00202EB011200F00F00316880188A
:101450008860D0BD00000000F369FFFF0014014068
:10146000001001406421B0FBF1F107FB1107704748
:1014700010B5040001D1012010BD207920B9002150
:1014800061712046FEF76FFF02202071002121616B
:1014900001202071002010BD70B54379012B01D1CE
:1014A000022070BD012343710224047140F6FE75D1
:1014B00003681C680E68496895400E43AC4396402B
:1014C00034431C60C02401680B6804FA02F223EA6A
:1014D00002020A6000F001F870BD012101710022D2
:1014E000427100207047000038B5040001D101208E
:1014F00032BD00F014F818B900F00DF8FEF7BEFF89
:10150000FFE702206870211D206800F02DF90120FE
:101510006870002032BD002129702046704704F118
:101520003C056878704710B50446206801698A0751
:1015300015D5C1688A0712D56FF002010161012239
:101540002277806910F0030F204602D000F062FE7F
:1015500003E000F060FE00F087F8002020772068AC
:1015600001694A0715D5C1684A0712D56FF0040111
:10157000016102222277806910F4407F204602D068
:1015800000F048FE03E000F046FE00F06DF8002099
:101590002077206801690A0715D5C1680A0712D5A6
:1015A0006FF00801016104222277C06910F0030F77
:1015B000204602D000F02EFE03E000F02CFE00F0EA
:1015C00053F80020207720680169CA0615D5C16844
:1015D000CA0612D56FF01001016108222277C06996
:1015E00010F4407F204602D000F014FE03E000F02B
:1015F00012FE00F039F80020207720680169CA0740
:1016000008D5C168CA0705D56FF001010161204600
:1016100000F002FE206801690A0608D5C1680A06C2
:1016200005D56FF080010161204600F0F6FD2068CD
:1016300001694A0608D5C1684A0605D56FF0400120
:101640000161204600F0EAFD206801698A060AD59A
:10165000C1688A0607D56FF0200101612046BDE808
:10166000104000F0DCBD10BD204600F0D9BD38B5FB
:1016700000F05DF801D1022032BD0120207002226D
:101680006270DFF8EC012A68936803409360086891
:10169000020018BF10282DD0202818BF302829D0CC
:1016A000402823D0502816D0602818D0702803D0A6
:1016B000B0F5005F07D021E000F025F828688168C8
:1016C00041F0770105E000F01EF82868816841F4D8
:1016D0008041816012E000F012F850210BE0CA68EE
:1016E0004968286800F0EBF8602104E000F007F892
:1016F000402100E00146286800F0F3F82EE0CA68B7
:1017000049682868CCE0CB684A6889682868F0E0B6
:1017100038B500F00CF801D1022032BD00F00DF810
:1017200000B110E02868C16821F0400110E00546D2
:1017300005F13C0420780128704701202070022226
:10174000627028465BE0012060700021217032BD8C
:10175000C1602868C16821F48041C16001206070C7
:1017600000212170002032BDF0B5424C0568424B8B
:10177000424E434FDFF80CC1A04218BFB0F1804F7A
:1017800007D0604518BFB84203D0B04218BF984296
:101790000DD14A6825F070051543A04218BFB0F17D
:1017A000804F17D060451CBFB842B04212D098425B
:1017B0001CBF354A90420DD0344EB0421CBF344A53
:1017C000904207D0334EB0421FBF334A9042334E4F
:1017D000B04203D1CA6825F4407515434A6925F023
:1017E000800515430560A0428D68C5620A68826263
:1017F00012BF98420969016301224261F0BD10B530
:10180000006884684B680A6824F070041C43E4088C
:1018100042EAC40484604C68402C0BD0502C1CD08D
:10182000602C1FD0702C21D10B698A68C96800F028
:1018300060F81BE00A68052A01D1012010BD026A88
:10184000036A5B085B0003628369096923F0F003A4
:1018500043EA01138361026208E00A69896800F0C3
:101860001FF803E00A69896800F029F8002010BD1C
:101870008800FFFF0000014000040140000C004010
:1018800000080040000400400040014000440140C6
:101890000048014000180040001C004000200040AB
:1018A00010B5036A046A64086400046223F00A0342
:1018B000846924F0F00444EA0214846123E010B542
:1018C000036A23F0100303628369046A23F47043FC
:1018D00043EA023324F0A004836144EA0114046261
:1018E00010BD826822F07002114341F0070181604F
:1018F000704710B5846824F47F442143114341EAC2
:101900000321816010BD1943016210BD70B500F163
:101910003C031A78012A01D1022070BD01221A70FD
:1019200002245C7005686E68AC680A6826F0700670
:1019300016436E6002681148824218BFB2F1804FB0
:1019400011D00F4882421CBF0E4DAA420BD00E4848
:1019500082421CBF0D4DAA4205D00D4882421CBFD9
:101960000C4DAA4204D1486824F0800404439460DA
:10197000012159700020187070BD00000000014066
:101980000004004000080040000C0040000401403A
:10199000004001400018004070B5044600250CB915
:1019A000012070BD04F13C06706820B92046FEF7A6
:1019B00006FCB56035707068C10610D4706820F4FC
:1019C000885040F002007060204600F0A8F8B56032
:1019D000716821F0020141F00101716000E0012510
:1019E00000203070284670BD78B502460020009077
:1019F00092F83C30012B01D1022072BD012082F807
:101A00003C0007240B6810680A2B12D30A3BC568F8
:101A100003EB43039C4025EA0404C460C3680D68DB
:101A20008C68A5F10A0606EB4606B4402343C36062
:101A30000FE0056903EB430304FA03F325EA03030C
:101A4000036103690D688C6805EB4505AC402343D1
:101A500003611F244B68072B0CD25B1E456B00F003
:101A600050F84463436B4D680C886E1E00F044F8D8
:101A700043631BE00D2B0CD2DB1F056B00F041F81C
:101A80000463036B4D680C88EE1F00F035F80363A8
:101A90000CE00D3BC56A00F034F8C462C36A4D68BF
:101AA0000C88A5F10D0600F027F8C3625B4B984245
:101AB0001DD10C685848122C03D1036843F48003ED
:101AC00003600B68102B18BF112B10D1036843F46F
:101AD000000303600868102809D15249504C0B6874
:101AE000B3FBF4F40A204443009400F010F8002102
:101AF00082F83C10002072BD06EB8606B4402343FA
:101B0000704703EB83039C4025EA0404704702E01E
:101B10000098401E009000980028F9D170473E4A76
:101B2000116821F440311160136841680B43136060
:101B30000268536823F4807353605168036941EA73
:101B400003215160516821F04071516053688168F0
:101B50000B435360936823F4006393609368C168F8
:101B60000B4393603049836A8B4210D0936823F013
:101B7000706393609368816A0B439360936823F06A
:101B8000405393609368C16A0B43936007E0916888
:101B900021F070619160916821F0405191609168ED
:101BA00021F0020191609168037E41EA4301916056
:101BB00090F82010002951680CD041F40061516068
:101BC000516821F4604151605168436A5B1E41EAEB
:101BD000433101E021F400615160D16A21F47001C8
:101BE000D162D16AC3695B1E41EA0351D162916837
:101BF00021F400719160916890F8303041EA4321FE
:101C00009160916821F4806191609168406941EA36
:101C100080219160704700000423014000200140B2
:101C200040420F000C0000200100000F38B50400F6
:101C30001ED094F8200010B92046FEF73AFB206829
:101C4000016821F002010160FFF7F6F905462068FE
:101C500041688A074ED5FFF7EFF9401B0B28F6D3F2
:101C600004E0FFF7E9F9401B0B2846D300F055F8D4
:101C7000012032BD016821F080010160607E00F02A
:101C800048F80CBF41F0400121F040010160A07E06
:101C900000F03FF80CBF41F0200121F0200101606D
:101CA000E07E00F036F80CBF21F0100141F0100189
:101CB0000160207F00F02DF80CBF41F0080121F0F9
:101CC00008010160607F00F024F80CBF41F00401BE
:101CD00021F004010160A268E068216902436069A3
:101CE0000A43616802432068491E0A43C261002119
:101CF00061621AE000F01EF8054620684168CA07D4
:101D0000AFD5217E0129B5D1026842F08002026080
:101D1000B4E70128206801687047606A40F4003029
:101D20006062052184F820107047012084F82000AB
:101D3000002032BD016841F001010160FFF77CB96C
:101D40002DE9F84F05464FF0000828684669D0F89D
:101D500004B08468D0F80C90D0F810A08769F1071F
:101D600045D5E20713D501218160A00703D5284698
:101D700000F057FA0BE0600748BF4FF4006806D444
:101D800020074EBF4FF48058284600F04BFAE0057C
:101D900015D52A684FF48071A005916003D52846B7
:101DA00000F041FA0BE0600548BF48F4005806D443
:101DB00020054EBF48F48048284600F035FAE0037D
:101DC00015D52A684FF48031A003916003D52846C9
:101DD00000F02BFA0BE0600348BF48F4004806D43B
:101DE00020034EBF48F48038284600F01FFA300721
:101DF00048BF5FEAC96104D52968102048F400781B
:101E0000C860700748BF5FEA097105D52A680820D5
:101E1000D060284600F00BFAB00707D52968C868DB
:101E200010F0030F1CBF284600F002FA700648BFEE
:101E30005FEACA6104D52968102048F48068086107
:101E4000B00648BF5FEA0A7105D52A68082010610C
:101E5000284600F0EEF9F00607D52968086910F069
:101E6000030F1CBF284600F0E5F9B00348BF5FEA46
:101E7000CB6105D52A6810205060284600F0DBF9B8
:101E8000F00348BF5FEA0B7105D52A68082050604F
:101E9000284600F0D1F9300440D55FEA4B713AD5BD
:101EA000F00503D5F90748BF48F00108B00503D590
:101EB000B90748BF48F00208700503D5790748BF45
:101EC00048F00408300526D517F0700F23D007F02E
:101ED0007007102F0CD0202F0DD0302F0ED0402F98
:101EE0000FD0502F10D0602F08BF48F480780DE03D
:101EF00048F008080AE048F0100807E048F0200819
:101F000004E048F0400801E048F080082868816952
:101F100021F070018161042029684860B8F1000F48
:101F200008D0686A48EA000068622846BDE8F24FB7
:101F300000F083B9BDE8F18F00B500BF13009646ED
:101F40009446103928BFA0E80C50FAD85FEA417CCB
:101F500028BF0CC048BF40F8042BC90728BF20F891
:101F6000022B48BF00F8012B00BD000038B50D4D15
:101F70000D4B2A7804464FF47A711868B1FBF2F2DF
:101F8000B0FBF2F0FFF718F850B9102C08D200227D
:101F900021464FF0FF30FEF7E7FFAC60002032BD76
:101FA000012032BD000000200C0000207047704767
:101FB000704700000848094A006813680849C3F3DD
:101FC000822206E00448054A006813680449C3F306
:101FD0004232895CC84070470C000020083802403B
:101FE000CC230008BBBBE1B1B2F5803F80F07E801E
:101FF000022A1ED98C46B1FBF2F102FB11C31B046D
:1020000043EA1043B3FBF2FC02FB1C3380B240EA0C
:102010000343B3FBF2F002FB103240EA0C40002312
:102020007047022A05D98446B0FBF2F002FB10C2C9
:1020300070474AB105D100F0010249085FEA30005B
:10204000704700220023704700F0F8B80B00020030
:10205000002100207047904271EB030CF6D3B3F5DA
:10206000803F2FD2F0B5B3FA83F7B1FA81F4A7F12C
:102070000F0E3D1B5340CEF1200602FA0EF2F34143
:102080005340B5F10F0746D80F3C2C444140C4F1F2
:102090002006A040F1414140B1FBF3F603FB1611CD
:1020A000A2FB0645001BA94102D2761E80185941A9
:1020B00080EA010221FA0EF362FA0EF200215A4080
:1020C0003046F0BD30B4B1FBF3FC03FB1C11A2FBA6
:1020D0000C45001BA94103D2ACF1010C80185941F9
:1020E00030BC02460B46604600217047B2F1807F4B
:1020F00065D3F0B5B2FA82F7B1FA81F4C7F10F06F1
:102100003D1B22FA06F307F1110EF24120355A4029
:10211000B5F10F07B8D94140C4F12006A040F14104
:102120004140B1FBF3FC03FB1C11A2FB0C45001B5F
:10213000A94103D2BCF1010C801859410F2F12D3D1
:102140000F3FC90341EA5041B1FBF3F603FB1611FF
:10215000A2FB0645D4EBC030A94102D2761E8018FE
:10216000594146EACC3C07B34140C7F12006B8408C
:10217000F1414140B1FBF3F603FB1611A2FB06450A
:10218000001BA94102D2761E8018594180EA010243
:1021900021FA0EF3C7F1200462FA0EF20CFA07F0EE
:1021A0005A402CFA04F13043F0BD80EA010221FAD2
:1021B0000EF3002162FA0EF260465A40F0BD8C46E2
:1021C000B1FBF2F102FB11C31B0243EA1063B3FB44
:1021D000F2FC02FB1C331B024CEA002043EA1063B2
:1021E000B3FBF2FC02FB1C331B024CEA002043EA67
:1021F0001063B3FBF2FC02FB1C331B024CEA002011
:1022000043EA1063B3FBF2FC02FB1C324CEA0020F1
:10221000002370477047704770477047704770479A
:1022200070477047704770477047704770477047F6
:10223000704770477047704770477047704700009D
:102240007047FEE7FEE7FEE7FEE77047704770471E
:1022500000F01EB80848FFF773BD0848FEF78FBFAF
:102260000748FFF760B90748FEF76BBA0648FEF764
:1022700068BA0648FFF764BDA0000020A001002056
:1022800060020020B402002014030020C8000020D7
:102290000248416802788A184260704700000020B6
:1022A00030B450F8041B79B1026843680244083026
:1022B000DC0744BFA9F10104E31852F8045B43F8BA
:1022C000045B091FF9D1ECE730BC704710B5074932
:1022D00079441831064C7C44163404E00A68081D21
:1022E000114488470146A142F8D110BD2C000000DE
:1022F0004C0000004EF68851CEF20001086840F410
:1023000070000860BFF34F8FBFF36F8F4FF0007006
:10231000E1EE100A70470000E7ECFFFF68030000E1
:10232000100000200000000079FFFFFF10000000F7
:1023300080000000000000200000000000F00DF808
:10234000002801D0FFF7C2FFAFF300800020AFF3F9
:102350000080FEF7E5FA00F002F80120704700F077
:1023600001B800000746384600F002F8FBE700001D
:1023700080B5AFF30080024A11001820ABBEFBE726
:10238000260002000448054A016841F4700101601A
:102390004FF000601060704788ED00E008ED00E04D
:1023A000014880470148004785230008C1230008F1
:1023B0000100000000000000100000000024F400F4
:1023C000AFF30080FFF796FFFFF7B8FF00000000B3
:1023D00001020304FFF7FEBFFFF7FEBFFFF7FEBFDA
:1023E000FFF7FEBFFFF7FEBFFFF7FEBFFFF7FEBF21
:1023F000FFF7FEBFFFF7FEBFFFF7FEBFFFF7FEBF11
:10240000FFF7FEBFFFF7FEBFFFF7FEBFFFF7FEBF00
:10241000FFF7FEBFFFF7FEBFFFF7FEBFFFF7FEBFF0
:10242000FFF7FEBFFFF7FEBFFFF7FEBFFFF7FEBFE0
:10243000FFF7FEBFFFF7FEBFFFF7FEBFFFF7FEBFD0
:10244000FFF7FEBFFFF7FEBFFFF7FEBFFFF7FEBFC0
:10245000FFF7FEBFFFF7FEBFFFF7FEBFFFF7FEBFB0
:10246000FFF7FEBFFFF7FEBFFFF7FEBFFFF7FEBFA0
:10247000FFF7FEBFFFF7FEBFFFF7FEBFFFF7FEBF90
:10248000FFF7FEBFFFF7FEBFFFF7FEBFFFF7FEBF80
:10249000FFF7FEBFFFF7FEBFFFF7FEBFFFF7FEBF70
:1024A000FFF7FEBFFFF7FEBFFFF7FEBFFFF7FEBF60
:1024B000FFF7FEBFFFF7FEBFFFF7FEBFFFF7FEBF50
:1024C000FFF7FEBFFFF7FEBFFFF7FEBFFFF7FEBF40
:1024D000FFF7FEBFFFF7FEBFFFF7FEBFFFF7FEBF30
:1024E000FFF7FEBFFFF7FEBFFFF7FEBFFFF7FEBF20
:0424F000FFF7FEBF35
:04000005080023C10B
:00000001FF
